{
	"The aution/auction.sol": {
		"AuctionCreator": {
			"abi": [
				{
					"inputs": [
						{
							"internalType": "uint256",
							"name": "",
							"type": "uint256"
						}
					],
					"name": "auctions",
					"outputs": [
						{
							"internalType": "contract Auction",
							"name": "",
							"type": "address"
						}
					],
					"stateMutability": "view",
					"type": "function"
				},
				{
					"inputs": [],
					"name": "createAuction",
					"outputs": [],
					"stateMutability": "nonpayable",
					"type": "function"
				}
			],
			"devdoc": {
				"kind": "dev",
				"methods": {},
				"version": 1
			},
			"evm": {
				"assembly": "    /* \"The aution/auction.sol\":68:265  contract AuctionCreator{... */\n  mstore(0x40, 0x80)\n  callvalue\n  dup1\n  iszero\n  tag_1\n  jumpi\n  0x00\n  dup1\n  revert\ntag_1:\n  pop\n  dataSize(sub_0)\n  dup1\n  dataOffset(sub_0)\n  0x00\n  codecopy\n  0x00\n  return\nstop\n\nsub_0: assembly {\n        /* \"The aution/auction.sol\":68:265  contract AuctionCreator{... */\n      mstore(0x40, 0x80)\n      callvalue\n      dup1\n      iszero\n      tag_1\n      jumpi\n      0x00\n      dup1\n      revert\n    tag_1:\n      pop\n      jumpi(tag_2, lt(calldatasize, 0x04))\n      shr(0xe0, calldataload(0x00))\n      dup1\n      0x571a26a0\n      eq\n      tag_3\n      jumpi\n      dup1\n      0xf5811447\n      eq\n      tag_4\n      jumpi\n    tag_2:\n      0x00\n      dup1\n      revert\n        /* \"The aution/auction.sol\":98:123  Auction[] public auctions */\n    tag_3:\n      tag_5\n      0x04\n      dup1\n      calldatasize\n      sub\n      dup2\n      add\n      swap1\n      tag_6\n      swap2\n      swap1\n      tag_7\n      jump\t// in\n    tag_6:\n      tag_8\n      jump\t// in\n    tag_5:\n      mload(0x40)\n      tag_9\n      swap2\n      swap1\n      tag_10\n      jump\t// in\n    tag_9:\n      mload(0x40)\n      dup1\n      swap2\n      sub\n      swap1\n      return\n        /* \"The aution/auction.sol\":132:262  function createAuction() public{... */\n    tag_4:\n      tag_11\n      tag_12\n      jump\t// in\n    tag_11:\n      stop\n        /* \"The aution/auction.sol\":98:123  Auction[] public auctions */\n    tag_8:\n      0x00\n      dup2\n      dup2\n      sload\n      dup2\n      lt\n      tag_13\n      jumpi\n      0x00\n      dup1\n      revert\n    tag_13:\n      swap1\n      0x00\n      mstore\n      keccak256(0x00, 0x20)\n      add\n      0x00\n      swap2\n      pop\n      sload\n      swap1\n      0x0100\n      exp\n      swap1\n      div\n      0xffffffffffffffffffffffffffffffffffffffff\n      and\n      dup2\n      jump\t// out\n        /* \"The aution/auction.sol\":132:262  function createAuction() public{... */\n    tag_12:\n        /* \"The aution/auction.sol\":174:192  Auction newAuction */\n      0x00\n        /* \"The aution/auction.sol\":205:215  msg.sender */\n      caller\n        /* \"The aution/auction.sol\":193:216  new Auction(msg.sender) */\n      mload(0x40)\n      tag_16\n      swap1\n      tag_17\n      jump\t// in\n    tag_16:\n      tag_18\n      swap2\n      swap1\n      tag_19\n      jump\t// in\n    tag_18:\n      mload(0x40)\n      dup1\n      swap2\n      sub\n      swap1\n      0x00\n      create\n      dup1\n      iszero\n      dup1\n      iszero\n      tag_20\n      jumpi\n      returndatasize\n      0x00\n      dup1\n      returndatacopy\n      revert(0x00, returndatasize)\n    tag_20:\n      pop\n        /* \"The aution/auction.sol\":174:216  Auction newAuction=new Auction(msg.sender) */\n      swap1\n      pop\n        /* \"The aution/auction.sol\":227:235  auctions */\n      0x00\n        /* \"The aution/auction.sol\":241:251  newAuction */\n      dup2\n        /* \"The aution/auction.sol\":227:252  auctions.push(newAuction) */\n      swap1\n      dup1\n      0x01\n      dup2\n      sload\n      add\n      dup1\n      dup3\n      sstore\n      dup1\n      swap2\n      pop\n      pop\n      0x01\n      swap1\n      sub\n      swap1\n      0x00\n      mstore\n      keccak256(0x00, 0x20)\n      add\n      0x00\n      swap1\n      swap2\n      swap1\n      swap2\n      swap1\n      swap2\n      0x0100\n      exp\n      dup2\n      sload\n      dup2\n      0xffffffffffffffffffffffffffffffffffffffff\n      mul\n      not\n      and\n      swap1\n      dup4\n      0xffffffffffffffffffffffffffffffffffffffff\n      and\n      mul\n      or\n      swap1\n      sstore\n      pop\n        /* \"The aution/auction.sol\":163:262  {... */\n      pop\n        /* \"The aution/auction.sol\":132:262  function createAuction() public{... */\n      jump\t// out\n    tag_17:\n      dataSize(sub_0)\n      dup1\n      dataOffset(sub_0)\n      dup4\n      codecopy\n      add\n      swap1\n      jump\t// out\n        /* \"#utility.yul\":88:205   */\n    tag_23:\n        /* \"#utility.yul\":197:198   */\n      0x00\n        /* \"#utility.yul\":194:195   */\n      dup1\n        /* \"#utility.yul\":187:199   */\n      revert\n        /* \"#utility.yul\":334:411   */\n    tag_25:\n        /* \"#utility.yul\":371:378   */\n      0x00\n        /* \"#utility.yul\":400:405   */\n      dup2\n        /* \"#utility.yul\":389:405   */\n      swap1\n      pop\n        /* \"#utility.yul\":334:411   */\n      swap2\n      swap1\n      pop\n      jump\t// out\n        /* \"#utility.yul\":417:539   */\n    tag_26:\n        /* \"#utility.yul\":490:514   */\n      tag_42\n        /* \"#utility.yul\":508:513   */\n      dup2\n        /* \"#utility.yul\":490:514   */\n      tag_25\n      jump\t// in\n    tag_42:\n        /* \"#utility.yul\":483:488   */\n      dup2\n        /* \"#utility.yul\":480:515   */\n      eq\n        /* \"#utility.yul\":470:533   */\n      tag_43\n      jumpi\n        /* \"#utility.yul\":529:530   */\n      0x00\n        /* \"#utility.yul\":526:527   */\n      dup1\n        /* \"#utility.yul\":519:531   */\n      revert\n        /* \"#utility.yul\":470:533   */\n    tag_43:\n        /* \"#utility.yul\":417:539   */\n      pop\n      jump\t// out\n        /* \"#utility.yul\":545:684   */\n    tag_27:\n        /* \"#utility.yul\":591:596   */\n      0x00\n        /* \"#utility.yul\":629:635   */\n      dup2\n        /* \"#utility.yul\":616:636   */\n      calldataload\n        /* \"#utility.yul\":607:636   */\n      swap1\n      pop\n        /* \"#utility.yul\":645:678   */\n      tag_45\n        /* \"#utility.yul\":672:677   */\n      dup2\n        /* \"#utility.yul\":645:678   */\n      tag_26\n      jump\t// in\n    tag_45:\n        /* \"#utility.yul\":545:684   */\n      swap3\n      swap2\n      pop\n      pop\n      jump\t// out\n        /* \"#utility.yul\":690:1019   */\n    tag_7:\n        /* \"#utility.yul\":749:755   */\n      0x00\n        /* \"#utility.yul\":798:800   */\n      0x20\n        /* \"#utility.yul\":786:795   */\n      dup3\n        /* \"#utility.yul\":777:784   */\n      dup5\n        /* \"#utility.yul\":773:796   */\n      sub\n        /* \"#utility.yul\":769:801   */\n      slt\n        /* \"#utility.yul\":766:885   */\n      iszero\n      tag_47\n      jumpi\n        /* \"#utility.yul\":804:883   */\n      tag_48\n      tag_23\n      jump\t// in\n    tag_48:\n        /* \"#utility.yul\":766:885   */\n    tag_47:\n        /* \"#utility.yul\":924:925   */\n      0x00\n        /* \"#utility.yul\":949:1002   */\n      tag_49\n        /* \"#utility.yul\":994:1001   */\n      dup5\n        /* \"#utility.yul\":985:991   */\n      dup3\n        /* \"#utility.yul\":974:983   */\n      dup6\n        /* \"#utility.yul\":970:992   */\n      add\n        /* \"#utility.yul\":949:1002   */\n      tag_27\n      jump\t// in\n    tag_49:\n        /* \"#utility.yul\":939:1002   */\n      swap2\n      pop\n        /* \"#utility.yul\":895:1012   */\n      pop\n        /* \"#utility.yul\":690:1019   */\n      swap3\n      swap2\n      pop\n      pop\n      jump\t// out\n        /* \"#utility.yul\":1025:1151   */\n    tag_28:\n        /* \"#utility.yul\":1062:1069   */\n      0x00\n        /* \"#utility.yul\":1102:1144   */\n      0xffffffffffffffffffffffffffffffffffffffff\n        /* \"#utility.yul\":1095:1100   */\n      dup3\n        /* \"#utility.yul\":1091:1145   */\n      and\n        /* \"#utility.yul\":1080:1145   */\n      swap1\n      pop\n        /* \"#utility.yul\":1025:1151   */\n      swap2\n      swap1\n      pop\n      jump\t// out\n        /* \"#utility.yul\":1157:1217   */\n    tag_29:\n        /* \"#utility.yul\":1185:1188   */\n      0x00\n        /* \"#utility.yul\":1206:1211   */\n      dup2\n        /* \"#utility.yul\":1199:1211   */\n      swap1\n      pop\n        /* \"#utility.yul\":1157:1217   */\n      swap2\n      swap1\n      pop\n      jump\t// out\n        /* \"#utility.yul\":1223:1365   */\n    tag_30:\n        /* \"#utility.yul\":1273:1282   */\n      0x00\n        /* \"#utility.yul\":1306:1359   */\n      tag_53\n        /* \"#utility.yul\":1324:1358   */\n      tag_54\n        /* \"#utility.yul\":1333:1357   */\n      tag_55\n        /* \"#utility.yul\":1351:1356   */\n      dup5\n        /* \"#utility.yul\":1333:1357   */\n      tag_28\n      jump\t// in\n    tag_55:\n        /* \"#utility.yul\":1324:1358   */\n      tag_29\n      jump\t// in\n    tag_54:\n        /* \"#utility.yul\":1306:1359   */\n      tag_28\n      jump\t// in\n    tag_53:\n        /* \"#utility.yul\":1293:1359   */\n      swap1\n      pop\n        /* \"#utility.yul\":1223:1365   */\n      swap2\n      swap1\n      pop\n      jump\t// out\n        /* \"#utility.yul\":1371:1497   */\n    tag_31:\n        /* \"#utility.yul\":1421:1430   */\n      0x00\n        /* \"#utility.yul\":1454:1491   */\n      tag_57\n        /* \"#utility.yul\":1485:1490   */\n      dup3\n        /* \"#utility.yul\":1454:1491   */\n      tag_30\n      jump\t// in\n    tag_57:\n        /* \"#utility.yul\":1441:1491   */\n      swap1\n      pop\n        /* \"#utility.yul\":1371:1497   */\n      swap2\n      swap1\n      pop\n      jump\t// out\n        /* \"#utility.yul\":1503:1644   */\n    tag_32:\n        /* \"#utility.yul\":1568:1577   */\n      0x00\n        /* \"#utility.yul\":1601:1638   */\n      tag_59\n        /* \"#utility.yul\":1632:1637   */\n      dup3\n        /* \"#utility.yul\":1601:1638   */\n      tag_31\n      jump\t// in\n    tag_59:\n        /* \"#utility.yul\":1588:1638   */\n      swap1\n      pop\n        /* \"#utility.yul\":1503:1644   */\n      swap2\n      swap1\n      pop\n      jump\t// out\n        /* \"#utility.yul\":1650:1811   */\n    tag_33:\n        /* \"#utility.yul\":1752:1804   */\n      tag_61\n        /* \"#utility.yul\":1798:1803   */\n      dup2\n        /* \"#utility.yul\":1752:1804   */\n      tag_32\n      jump\t// in\n    tag_61:\n        /* \"#utility.yul\":1747:1750   */\n      dup3\n        /* \"#utility.yul\":1740:1805   */\n      mstore\n        /* \"#utility.yul\":1650:1811   */\n      pop\n      pop\n      jump\t// out\n        /* \"#utility.yul\":1817:2069   */\n    tag_10:\n        /* \"#utility.yul\":1925:1929   */\n      0x00\n        /* \"#utility.yul\":1963:1965   */\n      0x20\n        /* \"#utility.yul\":1952:1961   */\n      dup3\n        /* \"#utility.yul\":1948:1966   */\n      add\n        /* \"#utility.yul\":1940:1966   */\n      swap1\n      pop\n        /* \"#utility.yul\":1976:2062   */\n      tag_63\n        /* \"#utility.yul\":2059:2060   */\n      0x00\n        /* \"#utility.yul\":2048:2057   */\n      dup4\n        /* \"#utility.yul\":2044:2061   */\n      add\n        /* \"#utility.yul\":2035:2041   */\n      dup5\n        /* \"#utility.yul\":1976:2062   */\n      tag_33\n      jump\t// in\n    tag_63:\n        /* \"#utility.yul\":1817:2069   */\n      swap3\n      swap2\n      pop\n      pop\n      jump\t// out\n        /* \"#utility.yul\":2075:2171   */\n    tag_34:\n        /* \"#utility.yul\":2112:2119   */\n      0x00\n        /* \"#utility.yul\":2141:2165   */\n      tag_65\n        /* \"#utility.yul\":2159:2164   */\n      dup3\n        /* \"#utility.yul\":2141:2165   */\n      tag_28\n      jump\t// in\n    tag_65:\n        /* \"#utility.yul\":2130:2165   */\n      swap1\n      pop\n        /* \"#utility.yul\":2075:2171   */\n      swap2\n      swap1\n      pop\n      jump\t// out\n        /* \"#utility.yul\":2177:2295   */\n    tag_35:\n        /* \"#utility.yul\":2264:2288   */\n      tag_67\n        /* \"#utility.yul\":2282:2287   */\n      dup2\n        /* \"#utility.yul\":2264:2288   */\n      tag_34\n      jump\t// in\n    tag_67:\n        /* \"#utility.yul\":2259:2262   */\n      dup3\n        /* \"#utility.yul\":2252:2289   */\n      mstore\n        /* \"#utility.yul\":2177:2295   */\n      pop\n      pop\n      jump\t// out\n        /* \"#utility.yul\":2301:2523   */\n    tag_19:\n        /* \"#utility.yul\":2394:2398   */\n      0x00\n        /* \"#utility.yul\":2432:2434   */\n      0x20\n        /* \"#utility.yul\":2421:2430   */\n      dup3\n        /* \"#utility.yul\":2417:2435   */\n      add\n        /* \"#utility.yul\":2409:2435   */\n      swap1\n      pop\n        /* \"#utility.yul\":2445:2516   */\n      tag_69\n        /* \"#utility.yul\":2513:2514   */\n      0x00\n        /* \"#utility.yul\":2502:2511   */\n      dup4\n        /* \"#utility.yul\":2498:2515   */\n      add\n        /* \"#utility.yul\":2489:2495   */\n      dup5\n        /* \"#utility.yul\":2445:2516   */\n      tag_35\n      jump\t// in\n    tag_69:\n        /* \"#utility.yul\":2301:2523   */\n      swap3\n      swap2\n      pop\n      pop\n      jump\t// out\n    stop\n\n    sub_0: assembly {\n            /* \"The aution/auction.sol\":269:3279  contract Auction{... */\n          mstore(0x40, 0x80)\n            /* \"The aution/auction.sol\":651:880  constructor(address eoa){... */\n          callvalue\n          dup1\n          iszero\n          tag_1\n          jumpi\n          0x00\n          dup1\n          revert\n        tag_1:\n          pop\n          mload(0x40)\n          sub(codesize, bytecodeSize)\n          dup1\n          bytecodeSize\n          dup4\n          codecopy\n          dup2\n          dup2\n          add\n          0x40\n          mstore\n          dup2\n          add\n          swap1\n          tag_2\n          swap2\n          swap1\n          tag_3\n          jump\t// in\n        tag_2:\n            /* \"The aution/auction.sol\":700:703  eoa */\n          dup1\n            /* \"The aution/auction.sol\":686:691  owner */\n          0x00\n          dup1\n            /* \"The aution/auction.sol\":686:704  owner=payable(eoa) */\n          0x0100\n          exp\n          dup2\n          sload\n          dup2\n          0xffffffffffffffffffffffffffffffffffffffff\n          mul\n          not\n          and\n          swap1\n          dup4\n          0xffffffffffffffffffffffffffffffffffffffff\n          and\n          mul\n          or\n          swap1\n          sstore\n          pop\n            /* \"The aution/auction.sol\":728:741  State.Running */\n          0x01\n            /* \"The aution/auction.sol\":715:727  auctionState */\n          0x04\n          0x00\n            /* \"The aution/auction.sol\":715:741  auctionState=State.Running */\n          0x0100\n          exp\n          dup2\n          sload\n          dup2\n          0xff\n          mul\n          not\n          and\n          swap1\n          dup4\n          0x03\n          dup2\n          gt\n          iszero\n          tag_6\n          jumpi\n          tag_7\n          tag_8\n          jump\t// in\n        tag_7:\n        tag_6:\n          mul\n          or\n          swap1\n          sstore\n          pop\n            /* \"The aution/auction.sol\":763:775  block.number */\n          number\n            /* \"The aution/auction.sol\":752:762  startBlock */\n          0x01\n            /* \"The aution/auction.sol\":752:775  startBlock=block.number */\n          dup2\n          swap1\n          sstore\n          pop\n            /* \"The aution/auction.sol\":806:807  3 */\n          0x03\n            /* \"The aution/auction.sol\":795:805  startBlock */\n          sload(0x01)\n            /* \"The aution/auction.sol\":795:807  startBlock+3 */\n          tag_9\n          swap2\n          swap1\n          tag_10\n          jump\t// in\n        tag_9:\n            /* \"The aution/auction.sol\":786:794  endBlock */\n          0x02\n            /* \"The aution/auction.sol\":786:807  endBlock=startBlock+3 */\n          dup2\n          swap1\n          sstore\n          pop\n            /* \"The aution/auction.sol\":818:829  ipfsHash=\"\" */\n          mload(0x40)\n          dup1\n          0x20\n          add\n          0x40\n          mstore\n          dup1\n          0x00\n          dup2\n          mstore\n          pop\n            /* \"The aution/auction.sol\":818:826  ipfsHash */\n          0x03\n            /* \"The aution/auction.sol\":818:829  ipfsHash=\"\" */\n          swap1\n          dup2\n          tag_11\n          swap2\n          swap1\n          tag_12\n          jump\t// in\n        tag_11:\n          pop\n            /* \"The aution/auction.sol\":853:872  1000000000000000000 */\n          0x0de0b6b3a7640000\n            /* \"The aution/auction.sol\":840:852  bidIncrement */\n          0x08\n            /* \"The aution/auction.sol\":840:872  bidIncrement=1000000000000000000 */\n          dup2\n          swap1\n          sstore\n          pop\n            /* \"The aution/auction.sol\":651:880  constructor(address eoa){... */\n          pop\n            /* \"The aution/auction.sol\":269:3279  contract Auction{... */\n          jump(tag_13)\n            /* \"#utility.yul\":88:205   */\n        tag_15:\n            /* \"#utility.yul\":197:198   */\n          0x00\n            /* \"#utility.yul\":194:195   */\n          dup1\n            /* \"#utility.yul\":187:199   */\n          revert\n            /* \"#utility.yul\":334:460   */\n        tag_17:\n            /* \"#utility.yul\":371:378   */\n          0x00\n            /* \"#utility.yul\":411:453   */\n          0xffffffffffffffffffffffffffffffffffffffff\n            /* \"#utility.yul\":404:409   */\n          dup3\n            /* \"#utility.yul\":400:454   */\n          and\n            /* \"#utility.yul\":389:454   */\n          swap1\n          pop\n            /* \"#utility.yul\":334:460   */\n          swap2\n          swap1\n          pop\n          jump\t// out\n            /* \"#utility.yul\":466:562   */\n        tag_18:\n            /* \"#utility.yul\":503:510   */\n          0x00\n            /* \"#utility.yul\":532:556   */\n          tag_48\n            /* \"#utility.yul\":550:555   */\n          dup3\n            /* \"#utility.yul\":532:556   */\n          tag_17\n          jump\t// in\n        tag_48:\n            /* \"#utility.yul\":521:556   */\n          swap1\n          pop\n            /* \"#utility.yul\":466:562   */\n          swap2\n          swap1\n          pop\n          jump\t// out\n            /* \"#utility.yul\":568:690   */\n        tag_19:\n            /* \"#utility.yul\":641:665   */\n          tag_50\n            /* \"#utility.yul\":659:664   */\n          dup2\n            /* \"#utility.yul\":641:665   */\n          tag_18\n          jump\t// in\n        tag_50:\n            /* \"#utility.yul\":634:639   */\n          dup2\n            /* \"#utility.yul\":631:666   */\n          eq\n            /* \"#utility.yul\":621:684   */\n          tag_51\n          jumpi\n            /* \"#utility.yul\":680:681   */\n          0x00\n            /* \"#utility.yul\":677:678   */\n          dup1\n            /* \"#utility.yul\":670:682   */\n          revert\n            /* \"#utility.yul\":621:684   */\n        tag_51:\n            /* \"#utility.yul\":568:690   */\n          pop\n          jump\t// out\n            /* \"#utility.yul\":696:839   */\n        tag_20:\n            /* \"#utility.yul\":753:758   */\n          0x00\n            /* \"#utility.yul\":784:790   */\n          dup2\n            /* \"#utility.yul\":778:791   */\n          mload\n            /* \"#utility.yul\":769:791   */\n          swap1\n          pop\n            /* \"#utility.yul\":800:833   */\n          tag_53\n            /* \"#utility.yul\":827:832   */\n          dup2\n            /* \"#utility.yul\":800:833   */\n          tag_19\n          jump\t// in\n        tag_53:\n            /* \"#utility.yul\":696:839   */\n          swap3\n          swap2\n          pop\n          pop\n          jump\t// out\n            /* \"#utility.yul\":845:1196   */\n        tag_3:\n            /* \"#utility.yul\":915:921   */\n          0x00\n            /* \"#utility.yul\":964:966   */\n          0x20\n            /* \"#utility.yul\":952:961   */\n          dup3\n            /* \"#utility.yul\":943:950   */\n          dup5\n            /* \"#utility.yul\":939:962   */\n          sub\n            /* \"#utility.yul\":935:967   */\n          slt\n            /* \"#utility.yul\":932:1051   */\n          iszero\n          tag_55\n          jumpi\n            /* \"#utility.yul\":970:1049   */\n          tag_56\n          tag_15\n          jump\t// in\n        tag_56:\n            /* \"#utility.yul\":932:1051   */\n        tag_55:\n            /* \"#utility.yul\":1090:1091   */\n          0x00\n            /* \"#utility.yul\":1115:1179   */\n          tag_57\n            /* \"#utility.yul\":1171:1178   */\n          dup5\n            /* \"#utility.yul\":1162:1168   */\n          dup3\n            /* \"#utility.yul\":1151:1160   */\n          dup6\n            /* \"#utility.yul\":1147:1169   */\n          add\n            /* \"#utility.yul\":1115:1179   */\n          tag_20\n          jump\t// in\n        tag_57:\n            /* \"#utility.yul\":1105:1179   */\n          swap2\n          pop\n            /* \"#utility.yul\":1061:1189   */\n          pop\n            /* \"#utility.yul\":845:1196   */\n          swap3\n          swap2\n          pop\n          pop\n          jump\t// out\n            /* \"#utility.yul\":1202:1382   */\n        tag_8:\n            /* \"#utility.yul\":1250:1327   */\n          0x4e487b7100000000000000000000000000000000000000000000000000000000\n            /* \"#utility.yul\":1247:1248   */\n          0x00\n            /* \"#utility.yul\":1240:1328   */\n          mstore\n            /* \"#utility.yul\":1347:1351   */\n          0x21\n            /* \"#utility.yul\":1344:1345   */\n          0x04\n            /* \"#utility.yul\":1337:1352   */\n          mstore\n            /* \"#utility.yul\":1371:1375   */\n          0x24\n            /* \"#utility.yul\":1368:1369   */\n          0x00\n            /* \"#utility.yul\":1361:1376   */\n          revert\n            /* \"#utility.yul\":1388:1465   */\n        tag_21:\n            /* \"#utility.yul\":1425:1432   */\n          0x00\n            /* \"#utility.yul\":1454:1459   */\n          dup2\n            /* \"#utility.yul\":1443:1459   */\n          swap1\n          pop\n            /* \"#utility.yul\":1388:1465   */\n          swap2\n          swap1\n          pop\n          jump\t// out\n            /* \"#utility.yul\":1471:1651   */\n        tag_22:\n            /* \"#utility.yul\":1519:1596   */\n          0x4e487b7100000000000000000000000000000000000000000000000000000000\n            /* \"#utility.yul\":1516:1517   */\n          0x00\n            /* \"#utility.yul\":1509:1597   */\n          mstore\n            /* \"#utility.yul\":1616:1620   */\n          0x11\n            /* \"#utility.yul\":1613:1614   */\n          0x04\n            /* \"#utility.yul\":1606:1621   */\n          mstore\n            /* \"#utility.yul\":1640:1644   */\n          0x24\n            /* \"#utility.yul\":1637:1638   */\n          0x00\n            /* \"#utility.yul\":1630:1645   */\n          revert\n            /* \"#utility.yul\":1657:1848   */\n        tag_10:\n            /* \"#utility.yul\":1697:1700   */\n          0x00\n            /* \"#utility.yul\":1716:1736   */\n          tag_62\n            /* \"#utility.yul\":1734:1735   */\n          dup3\n            /* \"#utility.yul\":1716:1736   */\n          tag_21\n          jump\t// in\n        tag_62:\n            /* \"#utility.yul\":1711:1736   */\n          swap2\n          pop\n            /* \"#utility.yul\":1750:1770   */\n          tag_63\n            /* \"#utility.yul\":1768:1769   */\n          dup4\n            /* \"#utility.yul\":1750:1770   */\n          tag_21\n          jump\t// in\n        tag_63:\n            /* \"#utility.yul\":1745:1770   */\n          swap3\n          pop\n            /* \"#utility.yul\":1793:1794   */\n          dup3\n            /* \"#utility.yul\":1790:1791   */\n          dup3\n            /* \"#utility.yul\":1786:1795   */\n          add\n            /* \"#utility.yul\":1779:1795   */\n          swap1\n          pop\n            /* \"#utility.yul\":1814:1817   */\n          dup1\n            /* \"#utility.yul\":1811:1812   */\n          dup3\n            /* \"#utility.yul\":1808:1818   */\n          gt\n            /* \"#utility.yul\":1805:1841   */\n          iszero\n          tag_64\n          jumpi\n            /* \"#utility.yul\":1821:1839   */\n          tag_65\n          tag_22\n          jump\t// in\n        tag_65:\n            /* \"#utility.yul\":1805:1841   */\n        tag_64:\n            /* \"#utility.yul\":1657:1848   */\n          swap3\n          swap2\n          pop\n          pop\n          jump\t// out\n            /* \"#utility.yul\":1854:1953   */\n        tag_23:\n            /* \"#utility.yul\":1906:1912   */\n          0x00\n            /* \"#utility.yul\":1940:1945   */\n          dup2\n            /* \"#utility.yul\":1934:1946   */\n          mload\n            /* \"#utility.yul\":1924:1946   */\n          swap1\n          pop\n            /* \"#utility.yul\":1854:1953   */\n          swap2\n          swap1\n          pop\n          jump\t// out\n            /* \"#utility.yul\":1959:2139   */\n        tag_24:\n            /* \"#utility.yul\":2007:2084   */\n          0x4e487b7100000000000000000000000000000000000000000000000000000000\n            /* \"#utility.yul\":2004:2005   */\n          0x00\n            /* \"#utility.yul\":1997:2085   */\n          mstore\n            /* \"#utility.yul\":2104:2108   */\n          0x41\n            /* \"#utility.yul\":2101:2102   */\n          0x04\n            /* \"#utility.yul\":2094:2109   */\n          mstore\n            /* \"#utility.yul\":2128:2132   */\n          0x24\n            /* \"#utility.yul\":2125:2126   */\n          0x00\n            /* \"#utility.yul\":2118:2133   */\n          revert\n            /* \"#utility.yul\":2145:2325   */\n        tag_25:\n            /* \"#utility.yul\":2193:2270   */\n          0x4e487b7100000000000000000000000000000000000000000000000000000000\n            /* \"#utility.yul\":2190:2191   */\n          0x00\n            /* \"#utility.yul\":2183:2271   */\n          mstore\n            /* \"#utility.yul\":2290:2294   */\n          0x22\n            /* \"#utility.yul\":2287:2288   */\n          0x04\n            /* \"#utility.yul\":2280:2295   */\n          mstore\n            /* \"#utility.yul\":2314:2318   */\n          0x24\n            /* \"#utility.yul\":2311:2312   */\n          0x00\n            /* \"#utility.yul\":2304:2319   */\n          revert\n            /* \"#utility.yul\":2331:2651   */\n        tag_26:\n            /* \"#utility.yul\":2375:2381   */\n          0x00\n            /* \"#utility.yul\":2412:2413   */\n          0x02\n            /* \"#utility.yul\":2406:2410   */\n          dup3\n            /* \"#utility.yul\":2402:2414   */\n          div\n            /* \"#utility.yul\":2392:2414   */\n          swap1\n          pop\n            /* \"#utility.yul\":2459:2460   */\n          0x01\n            /* \"#utility.yul\":2453:2457   */\n          dup3\n            /* \"#utility.yul\":2449:2461   */\n          and\n            /* \"#utility.yul\":2480:2498   */\n          dup1\n            /* \"#utility.yul\":2470:2551   */\n          tag_70\n          jumpi\n            /* \"#utility.yul\":2536:2540   */\n          0x7f\n            /* \"#utility.yul\":2528:2534   */\n          dup3\n            /* \"#utility.yul\":2524:2541   */\n          and\n            /* \"#utility.yul\":2514:2541   */\n          swap2\n          pop\n            /* \"#utility.yul\":2470:2551   */\n        tag_70:\n            /* \"#utility.yul\":2598:2600   */\n          0x20\n            /* \"#utility.yul\":2590:2596   */\n          dup3\n            /* \"#utility.yul\":2587:2601   */\n          lt\n            /* \"#utility.yul\":2567:2585   */\n          dup2\n            /* \"#utility.yul\":2564:2602   */\n          sub\n            /* \"#utility.yul\":2561:2645   */\n          tag_71\n          jumpi\n            /* \"#utility.yul\":2617:2635   */\n          tag_72\n          tag_25\n          jump\t// in\n        tag_72:\n            /* \"#utility.yul\":2561:2645   */\n        tag_71:\n            /* \"#utility.yul\":2382:2651   */\n          pop\n            /* \"#utility.yul\":2331:2651   */\n          swap2\n          swap1\n          pop\n          jump\t// out\n            /* \"#utility.yul\":2657:2798   */\n        tag_27:\n            /* \"#utility.yul\":2706:2710   */\n          0x00\n            /* \"#utility.yul\":2729:2732   */\n          dup2\n            /* \"#utility.yul\":2721:2732   */\n          swap1\n          pop\n            /* \"#utility.yul\":2752:2755   */\n          dup2\n            /* \"#utility.yul\":2749:2750   */\n          0x00\n            /* \"#utility.yul\":2742:2756   */\n          mstore\n            /* \"#utility.yul\":2786:2790   */\n          0x20\n            /* \"#utility.yul\":2783:2784   */\n          0x00\n            /* \"#utility.yul\":2773:2791   */\n          keccak256\n            /* \"#utility.yul\":2765:2791   */\n          swap1\n          pop\n            /* \"#utility.yul\":2657:2798   */\n          swap2\n          swap1\n          pop\n          jump\t// out\n            /* \"#utility.yul\":2804:2897   */\n        tag_28:\n            /* \"#utility.yul\":2841:2847   */\n          0x00\n            /* \"#utility.yul\":2888:2890   */\n          0x20\n            /* \"#utility.yul\":2883:2885   */\n          0x1f\n            /* \"#utility.yul\":2876:2881   */\n          dup4\n            /* \"#utility.yul\":2872:2886   */\n          add\n            /* \"#utility.yul\":2868:2891   */\n          div\n            /* \"#utility.yul\":2858:2891   */\n          swap1\n          pop\n            /* \"#utility.yul\":2804:2897   */\n          swap2\n          swap1\n          pop\n          jump\t// out\n            /* \"#utility.yul\":2903:3010   */\n        tag_29:\n            /* \"#utility.yul\":2947:2955   */\n          0x00\n            /* \"#utility.yul\":2997:3002   */\n          dup3\n            /* \"#utility.yul\":2991:2995   */\n          dup3\n            /* \"#utility.yul\":2987:3003   */\n          shl\n            /* \"#utility.yul\":2966:3003   */\n          swap1\n          pop\n            /* \"#utility.yul\":2903:3010   */\n          swap3\n          swap2\n          pop\n          pop\n          jump\t// out\n            /* \"#utility.yul\":3016:3409   */\n        tag_30:\n            /* \"#utility.yul\":3085:3091   */\n          0x00\n            /* \"#utility.yul\":3135:3136   */\n          0x08\n            /* \"#utility.yul\":3123:3133   */\n          dup4\n            /* \"#utility.yul\":3119:3137   */\n          mul\n            /* \"#utility.yul\":3158:3255   */\n          tag_77\n            /* \"#utility.yul\":3188:3254   */\n          0xffffffffffffffffffffffffffffffffffffffffffffffffffffffffffffffff\n            /* \"#utility.yul\":3177:3186   */\n          dup3\n            /* \"#utility.yul\":3158:3255   */\n          tag_29\n          jump\t// in\n        tag_77:\n            /* \"#utility.yul\":3276:3315   */\n          tag_78\n            /* \"#utility.yul\":3306:3314   */\n          dup7\n            /* \"#utility.yul\":3295:3304   */\n          dup4\n            /* \"#utility.yul\":3276:3315   */\n          tag_29\n          jump\t// in\n        tag_78:\n            /* \"#utility.yul\":3264:3315   */\n          swap6\n          pop\n            /* \"#utility.yul\":3348:3352   */\n          dup1\n            /* \"#utility.yul\":3344:3353   */\n          not\n            /* \"#utility.yul\":3337:3342   */\n          dup5\n            /* \"#utility.yul\":3333:3354   */\n          and\n            /* \"#utility.yul\":3324:3354   */\n          swap4\n          pop\n            /* \"#utility.yul\":3397:3401   */\n          dup1\n            /* \"#utility.yul\":3387:3395   */\n          dup7\n            /* \"#utility.yul\":3383:3402   */\n          and\n            /* \"#utility.yul\":3376:3381   */\n          dup5\n            /* \"#utility.yul\":3373:3403   */\n          or\n            /* \"#utility.yul\":3363:3403   */\n          swap3\n          pop\n            /* \"#utility.yul\":3092:3409   */\n          pop\n          pop\n            /* \"#utility.yul\":3016:3409   */\n          swap4\n          swap3\n          pop\n          pop\n          pop\n          jump\t// out\n            /* \"#utility.yul\":3415:3475   */\n        tag_31:\n            /* \"#utility.yul\":3443:3446   */\n          0x00\n            /* \"#utility.yul\":3464:3469   */\n          dup2\n            /* \"#utility.yul\":3457:3469   */\n          swap1\n          pop\n            /* \"#utility.yul\":3415:3475   */\n          swap2\n          swap1\n          pop\n          jump\t// out\n            /* \"#utility.yul\":3481:3623   */\n        tag_32:\n            /* \"#utility.yul\":3531:3540   */\n          0x00\n            /* \"#utility.yul\":3564:3617   */\n          tag_81\n            /* \"#utility.yul\":3582:3616   */\n          tag_82\n            /* \"#utility.yul\":3591:3615   */\n          tag_83\n            /* \"#utility.yul\":3609:3614   */\n          dup5\n            /* \"#utility.yul\":3591:3615   */\n          tag_21\n          jump\t// in\n        tag_83:\n            /* \"#utility.yul\":3582:3616   */\n          tag_31\n          jump\t// in\n        tag_82:\n            /* \"#utility.yul\":3564:3617   */\n          tag_21\n          jump\t// in\n        tag_81:\n            /* \"#utility.yul\":3551:3617   */\n          swap1\n          pop\n            /* \"#utility.yul\":3481:3623   */\n          swap2\n          swap1\n          pop\n          jump\t// out\n            /* \"#utility.yul\":3629:3704   */\n        tag_33:\n            /* \"#utility.yul\":3672:3675   */\n          0x00\n            /* \"#utility.yul\":3693:3698   */\n          dup2\n            /* \"#utility.yul\":3686:3698   */\n          swap1\n          pop\n            /* \"#utility.yul\":3629:3704   */\n          swap2\n          swap1\n          pop\n          jump\t// out\n            /* \"#utility.yul\":3710:3979   */\n        tag_34:\n            /* \"#utility.yul\":3820:3859   */\n          tag_86\n            /* \"#utility.yul\":3851:3858   */\n          dup4\n            /* \"#utility.yul\":3820:3859   */\n          tag_32\n          jump\t// in\n        tag_86:\n            /* \"#utility.yul\":3881:3972   */\n          tag_87\n            /* \"#utility.yul\":3930:3971   */\n          tag_88\n            /* \"#utility.yul\":3954:3970   */\n          dup3\n            /* \"#utility.yul\":3930:3971   */\n          tag_33\n          jump\t// in\n        tag_88:\n            /* \"#utility.yul\":3922:3928   */\n          dup5\n            /* \"#utility.yul\":3915:3919   */\n          dup5\n            /* \"#utility.yul\":3909:3920   */\n          sload\n            /* \"#utility.yul\":3881:3972   */\n          tag_30\n          jump\t// in\n        tag_87:\n            /* \"#utility.yul\":3875:3879   */\n          dup3\n            /* \"#utility.yul\":3868:3973   */\n          sstore\n            /* \"#utility.yul\":3786:3979   */\n          pop\n            /* \"#utility.yul\":3710:3979   */\n          pop\n          pop\n          pop\n          jump\t// out\n            /* \"#utility.yul\":3985:4058   */\n        tag_35:\n            /* \"#utility.yul\":4030:4033   */\n          0x00\n            /* \"#utility.yul\":3985:4058   */\n          swap1\n          jump\t// out\n            /* \"#utility.yul\":4064:4253   */\n        tag_36:\n            /* \"#utility.yul\":4141:4173   */\n          tag_91\n          tag_35\n          jump\t// in\n        tag_91:\n            /* \"#utility.yul\":4182:4247   */\n          tag_92\n            /* \"#utility.yul\":4240:4246   */\n          dup2\n            /* \"#utility.yul\":4232:4238   */\n          dup5\n            /* \"#utility.yul\":4226:4230   */\n          dup5\n            /* \"#utility.yul\":4182:4247   */\n          tag_34\n          jump\t// in\n        tag_92:\n            /* \"#utility.yul\":4117:4253   */\n          pop\n            /* \"#utility.yul\":4064:4253   */\n          pop\n          pop\n          jump\t// out\n            /* \"#utility.yul\":4259:4445   */\n        tag_37:\n            /* \"#utility.yul\":4319:4439   */\n        tag_94:\n            /* \"#utility.yul\":4336:4339   */\n          dup2\n            /* \"#utility.yul\":4329:4334   */\n          dup2\n            /* \"#utility.yul\":4326:4340   */\n          lt\n            /* \"#utility.yul\":4319:4439   */\n          iszero\n          tag_96\n          jumpi\n            /* \"#utility.yul\":4390:4429   */\n          tag_97\n            /* \"#utility.yul\":4427:4428   */\n          0x00\n            /* \"#utility.yul\":4420:4425   */\n          dup3\n            /* \"#utility.yul\":4390:4429   */\n          tag_36\n          jump\t// in\n        tag_97:\n            /* \"#utility.yul\":4363:4364   */\n          0x01\n            /* \"#utility.yul\":4356:4361   */\n          dup2\n            /* \"#utility.yul\":4352:4365   */\n          add\n            /* \"#utility.yul\":4343:4365   */\n          swap1\n          pop\n            /* \"#utility.yul\":4319:4439   */\n          jump(tag_94)\n        tag_96:\n            /* \"#utility.yul\":4259:4445   */\n          pop\n          pop\n          jump\t// out\n            /* \"#utility.yul\":4451:4994   */\n        tag_38:\n            /* \"#utility.yul\":4552:4554   */\n          0x1f\n            /* \"#utility.yul\":4547:4550   */\n          dup3\n            /* \"#utility.yul\":4544:4555   */\n          gt\n            /* \"#utility.yul\":4541:4987   */\n          iszero\n          tag_99\n          jumpi\n            /* \"#utility.yul\":4586:4624   */\n          tag_100\n            /* \"#utility.yul\":4618:4623   */\n          dup2\n            /* \"#utility.yul\":4586:4624   */\n          tag_27\n          jump\t// in\n        tag_100:\n            /* \"#utility.yul\":4670:4699   */\n          tag_101\n            /* \"#utility.yul\":4688:4698   */\n          dup5\n            /* \"#utility.yul\":4670:4699   */\n          tag_28\n          jump\t// in\n        tag_101:\n            /* \"#utility.yul\":4660:4668   */\n          dup2\n            /* \"#utility.yul\":4656:4700   */\n          add\n            /* \"#utility.yul\":4853:4855   */\n          0x20\n            /* \"#utility.yul\":4841:4851   */\n          dup6\n            /* \"#utility.yul\":4838:4856   */\n          lt\n            /* \"#utility.yul\":4835:4884   */\n          iszero\n          tag_102\n          jumpi\n            /* \"#utility.yul\":4874:4882   */\n          dup2\n            /* \"#utility.yul\":4859:4882   */\n          swap1\n          pop\n            /* \"#utility.yul\":4835:4884   */\n        tag_102:\n            /* \"#utility.yul\":4897:4977   */\n          tag_103\n            /* \"#utility.yul\":4953:4975   */\n          tag_104\n            /* \"#utility.yul\":4971:4974   */\n          dup6\n            /* \"#utility.yul\":4953:4975   */\n          tag_28\n          jump\t// in\n        tag_104:\n            /* \"#utility.yul\":4943:4951   */\n          dup4\n            /* \"#utility.yul\":4939:4976   */\n          add\n            /* \"#utility.yul\":4926:4937   */\n          dup3\n            /* \"#utility.yul\":4897:4977   */\n          tag_37\n          jump\t// in\n        tag_103:\n            /* \"#utility.yul\":4556:4987   */\n          pop\n          pop\n            /* \"#utility.yul\":4541:4987   */\n        tag_99:\n            /* \"#utility.yul\":4451:4994   */\n          pop\n          pop\n          pop\n          jump\t// out\n            /* \"#utility.yul\":5000:5117   */\n        tag_39:\n            /* \"#utility.yul\":5054:5062   */\n          0x00\n            /* \"#utility.yul\":5104:5109   */\n          dup3\n            /* \"#utility.yul\":5098:5102   */\n          dup3\n            /* \"#utility.yul\":5094:5110   */\n          shr\n            /* \"#utility.yul\":5073:5110   */\n          swap1\n          pop\n            /* \"#utility.yul\":5000:5117   */\n          swap3\n          swap2\n          pop\n          pop\n          jump\t// out\n            /* \"#utility.yul\":5123:5292   */\n        tag_40:\n            /* \"#utility.yul\":5167:5173   */\n          0x00\n            /* \"#utility.yul\":5200:5251   */\n          tag_107\n            /* \"#utility.yul\":5248:5249   */\n          0x00\n            /* \"#utility.yul\":5244:5250   */\n          not\n            /* \"#utility.yul\":5236:5241   */\n          dup5\n            /* \"#utility.yul\":5233:5234   */\n          0x08\n            /* \"#utility.yul\":5229:5242   */\n          mul\n            /* \"#utility.yul\":5200:5251   */\n          tag_39\n          jump\t// in\n        tag_107:\n            /* \"#utility.yul\":5196:5252   */\n          not\n            /* \"#utility.yul\":5281:5285   */\n          dup1\n            /* \"#utility.yul\":5275:5279   */\n          dup4\n            /* \"#utility.yul\":5271:5286   */\n          and\n            /* \"#utility.yul\":5261:5286   */\n          swap2\n          pop\n            /* \"#utility.yul\":5174:5292   */\n          pop\n            /* \"#utility.yul\":5123:5292   */\n          swap3\n          swap2\n          pop\n          pop\n          jump\t// out\n            /* \"#utility.yul\":5297:5592   */\n        tag_41:\n            /* \"#utility.yul\":5373:5377   */\n          0x00\n            /* \"#utility.yul\":5519:5548   */\n          tag_109\n            /* \"#utility.yul\":5544:5547   */\n          dup4\n            /* \"#utility.yul\":5538:5542   */\n          dup4\n            /* \"#utility.yul\":5519:5548   */\n          tag_40\n          jump\t// in\n        tag_109:\n            /* \"#utility.yul\":5511:5548   */\n          swap2\n          pop\n            /* \"#utility.yul\":5581:5584   */\n          dup3\n            /* \"#utility.yul\":5578:5579   */\n          0x02\n            /* \"#utility.yul\":5574:5585   */\n          mul\n            /* \"#utility.yul\":5568:5572   */\n          dup3\n            /* \"#utility.yul\":5565:5586   */\n          or\n            /* \"#utility.yul\":5557:5586   */\n          swap1\n          pop\n            /* \"#utility.yul\":5297:5592   */\n          swap3\n          swap2\n          pop\n          pop\n          jump\t// out\n            /* \"#utility.yul\":5597:6992   */\n        tag_12:\n            /* \"#utility.yul\":5714:5751   */\n          tag_111\n            /* \"#utility.yul\":5747:5750   */\n          dup3\n            /* \"#utility.yul\":5714:5751   */\n          tag_23\n          jump\t// in\n        tag_111:\n            /* \"#utility.yul\":5816:5834   */\n          0xffffffffffffffff\n            /* \"#utility.yul\":5808:5814   */\n          dup2\n            /* \"#utility.yul\":5805:5835   */\n          gt\n            /* \"#utility.yul\":5802:5858   */\n          iszero\n          tag_112\n          jumpi\n            /* \"#utility.yul\":5838:5856   */\n          tag_113\n          tag_24\n          jump\t// in\n        tag_113:\n            /* \"#utility.yul\":5802:5858   */\n        tag_112:\n            /* \"#utility.yul\":5882:5920   */\n          tag_114\n            /* \"#utility.yul\":5914:5918   */\n          dup3\n            /* \"#utility.yul\":5908:5919   */\n          sload\n            /* \"#utility.yul\":5882:5920   */\n          tag_26\n          jump\t// in\n        tag_114:\n            /* \"#utility.yul\":5967:6034   */\n          tag_115\n            /* \"#utility.yul\":6027:6033   */\n          dup3\n            /* \"#utility.yul\":6019:6025   */\n          dup3\n            /* \"#utility.yul\":6013:6017   */\n          dup6\n            /* \"#utility.yul\":5967:6034   */\n          tag_38\n          jump\t// in\n        tag_115:\n            /* \"#utility.yul\":6061:6062   */\n          0x00\n            /* \"#utility.yul\":6085:6089   */\n          0x20\n            /* \"#utility.yul\":6072:6089   */\n          swap1\n          pop\n            /* \"#utility.yul\":6117:6119   */\n          0x1f\n            /* \"#utility.yul\":6109:6115   */\n          dup4\n            /* \"#utility.yul\":6106:6120   */\n          gt\n            /* \"#utility.yul\":6134:6135   */\n          0x01\n            /* \"#utility.yul\":6129:6747   */\n          dup2\n          eq\n          tag_117\n          jumpi\n            /* \"#utility.yul\":6791:6792   */\n          0x00\n            /* \"#utility.yul\":6808:6814   */\n          dup5\n            /* \"#utility.yul\":6805:6882   */\n          iszero\n          tag_118\n          jumpi\n            /* \"#utility.yul\":6857:6866   */\n          dup3\n            /* \"#utility.yul\":6852:6855   */\n          dup8\n            /* \"#utility.yul\":6848:6867   */\n          add\n            /* \"#utility.yul\":6842:6868   */\n          mload\n            /* \"#utility.yul\":6833:6868   */\n          swap1\n          pop\n            /* \"#utility.yul\":6805:6882   */\n        tag_118:\n            /* \"#utility.yul\":6908:6975   */\n          tag_119\n            /* \"#utility.yul\":6968:6974   */\n          dup6\n            /* \"#utility.yul\":6961:6966   */\n          dup3\n            /* \"#utility.yul\":6908:6975   */\n          tag_41\n          jump\t// in\n        tag_119:\n            /* \"#utility.yul\":6902:6906   */\n          dup7\n            /* \"#utility.yul\":6895:6976   */\n          sstore\n            /* \"#utility.yul\":6764:6986   */\n          pop\n            /* \"#utility.yul\":6099:6986   */\n          jump(tag_116)\n            /* \"#utility.yul\":6129:6747   */\n        tag_117:\n            /* \"#utility.yul\":6181:6185   */\n          0x1f\n            /* \"#utility.yul\":6177:6186   */\n          not\n            /* \"#utility.yul\":6169:6175   */\n          dup5\n            /* \"#utility.yul\":6165:6187   */\n          and\n            /* \"#utility.yul\":6215:6252   */\n          tag_120\n            /* \"#utility.yul\":6247:6251   */\n          dup7\n            /* \"#utility.yul\":6215:6252   */\n          tag_27\n          jump\t// in\n        tag_120:\n            /* \"#utility.yul\":6274:6275   */\n          0x00\n            /* \"#utility.yul\":6288:6496   */\n        tag_121:\n            /* \"#utility.yul\":6302:6309   */\n          dup3\n            /* \"#utility.yul\":6299:6300   */\n          dup2\n            /* \"#utility.yul\":6296:6310   */\n          lt\n            /* \"#utility.yul\":6288:6496   */\n          iszero\n          tag_123\n          jumpi\n            /* \"#utility.yul\":6381:6390   */\n          dup5\n            /* \"#utility.yul\":6376:6379   */\n          dup10\n            /* \"#utility.yul\":6372:6391   */\n          add\n            /* \"#utility.yul\":6366:6392   */\n          mload\n            /* \"#utility.yul\":6358:6364   */\n          dup3\n            /* \"#utility.yul\":6351:6393   */\n          sstore\n            /* \"#utility.yul\":6432:6433   */\n          0x01\n            /* \"#utility.yul\":6424:6430   */\n          dup3\n            /* \"#utility.yul\":6420:6434   */\n          add\n            /* \"#utility.yul\":6410:6434   */\n          swap2\n          pop\n            /* \"#utility.yul\":6479:6481   */\n          0x20\n            /* \"#utility.yul\":6468:6477   */\n          dup6\n            /* \"#utility.yul\":6464:6482   */\n          add\n            /* \"#utility.yul\":6451:6482   */\n          swap5\n          pop\n            /* \"#utility.yul\":6325:6329   */\n          0x20\n            /* \"#utility.yul\":6322:6323   */\n          dup2\n            /* \"#utility.yul\":6318:6330   */\n          add\n            /* \"#utility.yul\":6313:6330   */\n          swap1\n          pop\n            /* \"#utility.yul\":6288:6496   */\n          jump(tag_121)\n        tag_123:\n            /* \"#utility.yul\":6524:6530   */\n          dup7\n            /* \"#utility.yul\":6515:6522   */\n          dup4\n            /* \"#utility.yul\":6512:6531   */\n          lt\n            /* \"#utility.yul\":6509:6688   */\n          iszero\n          tag_124\n          jumpi\n            /* \"#utility.yul\":6582:6591   */\n          dup5\n            /* \"#utility.yul\":6577:6580   */\n          dup10\n            /* \"#utility.yul\":6573:6592   */\n          add\n            /* \"#utility.yul\":6567:6593   */\n          mload\n            /* \"#utility.yul\":6625:6673   */\n          tag_125\n            /* \"#utility.yul\":6667:6671   */\n          0x1f\n            /* \"#utility.yul\":6659:6665   */\n          dup10\n            /* \"#utility.yul\":6655:6672   */\n          and\n            /* \"#utility.yul\":6644:6653   */\n          dup3\n            /* \"#utility.yul\":6625:6673   */\n          tag_40\n          jump\t// in\n        tag_125:\n            /* \"#utility.yul\":6617:6623   */\n          dup4\n            /* \"#utility.yul\":6610:6674   */\n          sstore\n            /* \"#utility.yul\":6532:6688   */\n          pop\n            /* \"#utility.yul\":6509:6688   */\n        tag_124:\n            /* \"#utility.yul\":6734:6735   */\n          0x01\n            /* \"#utility.yul\":6730:6731   */\n          0x02\n            /* \"#utility.yul\":6722:6728   */\n          dup9\n            /* \"#utility.yul\":6718:6732   */\n          mul\n            /* \"#utility.yul\":6714:6736   */\n          add\n            /* \"#utility.yul\":6708:6712   */\n          dup9\n            /* \"#utility.yul\":6701:6737   */\n          sstore\n            /* \"#utility.yul\":6136:6747   */\n          pop\n          pop\n          pop\n            /* \"#utility.yul\":6099:6986   */\n        tag_116:\n          pop\n            /* \"#utility.yul\":5689:6992   */\n          pop\n          pop\n          pop\n            /* \"#utility.yul\":5597:6992   */\n          pop\n          pop\n          jump\t// out\n            /* \"The aution/auction.sol\":269:3279  contract Auction{... */\n        tag_13:\n          dataSize(sub_0)\n          dup1\n          dataOffset(sub_0)\n          0x00\n          codecopy\n          0x00\n          return\n        stop\n\n        sub_0: assembly {\n                /* \"The aution/auction.sol\":269:3279  contract Auction{... */\n              mstore(0x40, 0x80)\n              jumpi(tag_1, lt(calldatasize, 0x04))\n              shr(0xe0, calldataload(0x00))\n              dup1\n              0x8fa8b790\n              gt\n              tag_13\n              jumpi\n              dup1\n              0x8fa8b790\n              eq\n              tag_7\n              jumpi\n              dup1\n              0x91f90157\n              eq\n              tag_8\n              jumpi\n              dup1\n              0xc623674f\n              eq\n              tag_9\n              jumpi\n              dup1\n              0xecfc7ecc\n              eq\n              tag_10\n              jumpi\n              dup1\n              0xf5b56c56\n              eq\n              tag_11\n              jumpi\n              dup1\n              0xf77282ab\n              eq\n              tag_12\n              jumpi\n              jump(tag_1)\n            tag_13:\n              dup1\n              0x083c6323\n              eq\n              tag_2\n              jumpi\n              dup1\n              0x48cd4cb1\n              eq\n              tag_3\n              jumpi\n              dup1\n              0x62ea82db\n              eq\n              tag_4\n              jumpi\n              dup1\n              0x7fb45099\n              eq\n              tag_5\n              jumpi\n              dup1\n              0x8da5cb5b\n              eq\n              tag_6\n              jumpi\n            tag_1:\n              0x00\n              dup1\n              revert\n                /* \"The aution/auction.sol\":356:376  uint public endBlock */\n            tag_2:\n              callvalue\n              dup1\n              iszero\n              tag_14\n              jumpi\n              0x00\n              dup1\n              revert\n            tag_14:\n              pop\n              tag_15\n              tag_16\n              jump\t// in\n            tag_15:\n              mload(0x40)\n              tag_17\n              swap2\n              swap1\n              tag_18\n              jump\t// in\n            tag_17:\n              mload(0x40)\n              dup1\n              swap2\n              sub\n              swap1\n              return\n                /* \"The aution/auction.sol\":327:349  uint public startBlock */\n            tag_3:\n              callvalue\n              dup1\n              iszero\n              tag_19\n              jumpi\n              0x00\n              dup1\n              revert\n            tag_19:\n              pop\n              tag_20\n              tag_21\n              jump\t// in\n            tag_20:\n              mload(0x40)\n              tag_22\n              swap2\n              swap1\n              tag_18\n              jump\t// in\n            tag_22:\n              mload(0x40)\n              dup1\n              swap2\n              sub\n              swap1\n              return\n                /* \"The aution/auction.sol\":582:618  mapping(address => uint) public bids */\n            tag_4:\n              callvalue\n              dup1\n              iszero\n              tag_23\n              jumpi\n              0x00\n              dup1\n              revert\n            tag_23:\n              pop\n              tag_24\n              0x04\n              dup1\n              calldatasize\n              sub\n              dup2\n              add\n              swap1\n              tag_25\n              swap2\n              swap1\n              tag_26\n              jump\t// in\n            tag_25:\n              tag_27\n              jump\t// in\n            tag_24:\n              mload(0x40)\n              tag_28\n              swap2\n              swap1\n              tag_18\n              jump\t// in\n            tag_28:\n              mload(0x40)\n              dup1\n              swap2\n              sub\n              swap1\n              return\n                /* \"The aution/auction.sol\":465:490  State public auctionState */\n            tag_5:\n              callvalue\n              dup1\n              iszero\n              tag_29\n              jumpi\n              0x00\n              dup1\n              revert\n            tag_29:\n              pop\n              tag_30\n              tag_31\n              jump\t// in\n            tag_30:\n              mload(0x40)\n              tag_32\n              swap2\n              swap1\n              tag_33\n              jump\t// in\n            tag_32:\n              mload(0x40)\n              dup1\n              swap2\n              sub\n              swap1\n              return\n                /* \"The aution/auction.sol\":292:320  address payable public owner */\n            tag_6:\n              callvalue\n              dup1\n              iszero\n              tag_34\n              jumpi\n              0x00\n              dup1\n              revert\n            tag_34:\n              pop\n              tag_35\n              tag_36\n              jump\t// in\n            tag_35:\n              mload(0x40)\n              tag_37\n              swap2\n              swap1\n              tag_38\n              jump\t// in\n            tag_37:\n              mload(0x40)\n              dup1\n              swap2\n              sub\n              swap1\n              return\n                /* \"The aution/auction.sol\":1422:1509  function cancelAuction() public onlyOwner{... */\n            tag_7:\n              callvalue\n              dup1\n              iszero\n              tag_39\n              jumpi\n              0x00\n              dup1\n              revert\n            tag_39:\n              pop\n              tag_40\n              tag_41\n              jump\t// in\n            tag_40:\n              stop\n                /* \"The aution/auction.sol\":537:573  address payable public highestBidder */\n            tag_8:\n              callvalue\n              dup1\n              iszero\n              tag_42\n              jumpi\n              0x00\n              dup1\n              revert\n            tag_42:\n              pop\n              tag_43\n              tag_44\n              jump\t// in\n            tag_43:\n              mload(0x40)\n              tag_45\n              swap2\n              swap1\n              tag_38\n              jump\t// in\n            tag_45:\n              mload(0x40)\n              dup1\n              swap2\n              sub\n              swap1\n              return\n                /* \"The aution/auction.sol\":385:407  string public ipfsHash */\n            tag_9:\n              callvalue\n              dup1\n              iszero\n              tag_46\n              jumpi\n              0x00\n              dup1\n              revert\n            tag_46:\n              pop\n              tag_47\n              tag_48\n              jump\t// in\n            tag_47:\n              mload(0x40)\n              tag_49\n              swap2\n              swap1\n              tag_50\n              jump\t// in\n            tag_49:\n              mload(0x40)\n              dup1\n              swap2\n              sub\n              swap1\n              return\n                /* \"The aution/auction.sol\":1517:2122  function placeBid() public payable notOwner afterStart beforeEnd{... */\n            tag_10:\n              tag_51\n              tag_52\n              jump\t// in\n            tag_51:\n              stop\n                /* \"The aution/auction.sol\":499:528  uint public highestBindingBid */\n            tag_11:\n              callvalue\n              dup1\n              iszero\n              tag_53\n              jumpi\n              0x00\n              dup1\n              revert\n            tag_53:\n              pop\n              tag_54\n              tag_55\n              jump\t// in\n            tag_54:\n              mload(0x40)\n              tag_56\n              swap2\n              swap1\n              tag_18\n              jump\t// in\n            tag_56:\n              mload(0x40)\n              dup1\n              swap2\n              sub\n              swap1\n              return\n                /* \"The aution/auction.sol\":2130:3274  function finalizeAuction() public{... */\n            tag_12:\n              callvalue\n              dup1\n              iszero\n              tag_57\n              jumpi\n              0x00\n              dup1\n              revert\n            tag_57:\n              pop\n              tag_58\n              tag_59\n              jump\t// in\n            tag_58:\n              stop\n                /* \"The aution/auction.sol\":356:376  uint public endBlock */\n            tag_16:\n              sload(0x02)\n              dup2\n              jump\t// out\n                /* \"The aution/auction.sol\":327:349  uint public startBlock */\n            tag_21:\n              sload(0x01)\n              dup2\n              jump\t// out\n                /* \"The aution/auction.sol\":582:618  mapping(address => uint) public bids */\n            tag_27:\n              mstore(0x20, 0x07)\n              dup1\n              0x00\n              mstore\n              keccak256(0x00, 0x40)\n              0x00\n              swap2\n              pop\n              swap1\n              pop\n              sload\n              dup2\n              jump\t// out\n                /* \"The aution/auction.sol\":465:490  State public auctionState */\n            tag_31:\n              0x04\n              0x00\n              swap1\n              sload\n              swap1\n              0x0100\n              exp\n              swap1\n              div\n              0xff\n              and\n              dup2\n              jump\t// out\n                /* \"The aution/auction.sol\":292:320  address payable public owner */\n            tag_36:\n              0x00\n              dup1\n              sload\n              swap1\n              0x0100\n              exp\n              swap1\n              div\n              0xffffffffffffffffffffffffffffffffffffffff\n              and\n              dup2\n              jump\t// out\n                /* \"The aution/auction.sol\":1422:1509  function cancelAuction() public onlyOwner{... */\n            tag_41:\n                /* \"The aution/auction.sol\":1214:1219  owner */\n              0x00\n              dup1\n              sload\n              swap1\n              0x0100\n              exp\n              swap1\n              div\n              0xffffffffffffffffffffffffffffffffffffffff\n              and\n                /* \"The aution/auction.sol\":1200:1219  msg.sender == owner */\n              0xffffffffffffffffffffffffffffffffffffffff\n              and\n                /* \"The aution/auction.sol\":1200:1210  msg.sender */\n              caller\n                /* \"The aution/auction.sol\":1200:1219  msg.sender == owner */\n              0xffffffffffffffffffffffffffffffffffffffff\n              and\n              eq\n                /* \"The aution/auction.sol\":1192:1220  require(msg.sender == owner) */\n              tag_61\n              jumpi\n              0x00\n              dup1\n              revert\n            tag_61:\n                /* \"The aution/auction.sol\":1487:1501  State.Canceled */\n              0x03\n                /* \"The aution/auction.sol\":1474:1486  auctionState */\n              0x04\n              0x00\n                /* \"The aution/auction.sol\":1474:1501  auctionState=State.Canceled */\n              0x0100\n              exp\n              dup2\n              sload\n              dup2\n              0xff\n              mul\n              not\n              and\n              swap1\n              dup4\n              0x03\n              dup2\n              gt\n              iszero\n              tag_63\n              jumpi\n              tag_64\n              tag_65\n              jump\t// in\n            tag_64:\n            tag_63:\n              mul\n              or\n              swap1\n              sstore\n              pop\n                /* \"The aution/auction.sol\":1422:1509  function cancelAuction() public onlyOwner{... */\n              jump\t// out\n                /* \"The aution/auction.sol\":537:573  address payable public highestBidder */\n            tag_44:\n              0x06\n              0x00\n              swap1\n              sload\n              swap1\n              0x0100\n              exp\n              swap1\n              div\n              0xffffffffffffffffffffffffffffffffffffffff\n              and\n              dup2\n              jump\t// out\n                /* \"The aution/auction.sol\":385:407  string public ipfsHash */\n            tag_48:\n              0x03\n              dup1\n              sload\n              tag_66\n              swap1\n              tag_67\n              jump\t// in\n            tag_66:\n              dup1\n              0x1f\n              add\n              0x20\n              dup1\n              swap2\n              div\n              mul\n              0x20\n              add\n              mload(0x40)\n              swap1\n              dup2\n              add\n              0x40\n              mstore\n              dup1\n              swap3\n              swap2\n              swap1\n              dup2\n              dup2\n              mstore\n              0x20\n              add\n              dup3\n              dup1\n              sload\n              tag_68\n              swap1\n              tag_67\n              jump\t// in\n            tag_68:\n              dup1\n              iszero\n              tag_69\n              jumpi\n              dup1\n              0x1f\n              lt\n              tag_70\n              jumpi\n              0x0100\n              dup1\n              dup4\n              sload\n              div\n              mul\n              dup4\n              mstore\n              swap2\n              0x20\n              add\n              swap2\n              jump(tag_69)\n            tag_70:\n              dup3\n              add\n              swap2\n              swap1\n              0x00\n              mstore\n              keccak256(0x00, 0x20)\n              swap1\n            tag_71:\n              dup2\n              sload\n              dup2\n              mstore\n              swap1\n              0x01\n              add\n              swap1\n              0x20\n              add\n              dup1\n              dup4\n              gt\n              tag_71\n              jumpi\n              dup3\n              swap1\n              sub\n              0x1f\n              and\n              dup3\n              add\n              swap2\n            tag_69:\n              pop\n              pop\n              pop\n              pop\n              pop\n              dup2\n              jump\t// out\n                /* \"The aution/auction.sol\":1517:2122  function placeBid() public payable notOwner afterStart beforeEnd{... */\n            tag_52:\n                /* \"The aution/auction.sol\":940:945  owner */\n              0x00\n              dup1\n              sload\n              swap1\n              0x0100\n              exp\n              swap1\n              div\n              0xffffffffffffffffffffffffffffffffffffffff\n              and\n                /* \"The aution/auction.sol\":926:945  msg.sender != owner */\n              0xffffffffffffffffffffffffffffffffffffffff\n              and\n                /* \"The aution/auction.sol\":926:936  msg.sender */\n              caller\n                /* \"The aution/auction.sol\":926:945  msg.sender != owner */\n              0xffffffffffffffffffffffffffffffffffffffff\n              and\n              sub\n                /* \"The aution/auction.sol\":918:946  require(msg.sender != owner) */\n              tag_73\n              jumpi\n              0x00\n              dup1\n              revert\n            tag_73:\n                /* \"The aution/auction.sol\":1030:1040  startBlock */\n              sload(0x01)\n                /* \"The aution/auction.sol\":1014:1026  block.number */\n              number\n                /* \"The aution/auction.sol\":1014:1040  block.number >= startBlock */\n              lt\n              iszero\n                /* \"The aution/auction.sol\":1006:1041  require(block.number >= startBlock) */\n              tag_75\n              jumpi\n              0x00\n              dup1\n              revert\n            tag_75:\n                /* \"The aution/auction.sol\":1124:1132  endBlock */\n              sload(0x02)\n                /* \"The aution/auction.sol\":1108:1120  block.number */\n              number\n                /* \"The aution/auction.sol\":1108:1132  block.number <= endBlock */\n              gt\n              iszero\n                /* \"The aution/auction.sol\":1100:1133  require(block.number <= endBlock) */\n              tag_77\n              jumpi\n              0x00\n              dup1\n              revert\n            tag_77:\n                /* \"The aution/auction.sol\":1616:1629  State.Running */\n              0x01\n                /* \"The aution/auction.sol\":1600:1629  auctionState == State.Running */\n              0x03\n              dup2\n              gt\n              iszero\n              tag_79\n              jumpi\n              tag_80\n              tag_65\n              jump\t// in\n            tag_80:\n            tag_79:\n                /* \"The aution/auction.sol\":1600:1612  auctionState */\n              0x04\n              0x00\n              swap1\n              sload\n              swap1\n              0x0100\n              exp\n              swap1\n              div\n              0xff\n              and\n                /* \"The aution/auction.sol\":1600:1629  auctionState == State.Running */\n              0x03\n              dup2\n              gt\n              iszero\n              tag_81\n              jumpi\n              tag_82\n              tag_65\n              jump\t// in\n            tag_82:\n            tag_81:\n              eq\n                /* \"The aution/auction.sol\":1592:1630  require(auctionState == State.Running) */\n              tag_83\n              jumpi\n              0x00\n              dup1\n              revert\n            tag_83:\n                /* \"The aution/auction.sol\":1662:1665  100 */\n              0x64\n                /* \"The aution/auction.sol\":1649:1658  msg.value */\n              callvalue\n                /* \"The aution/auction.sol\":1649:1665  msg.value >= 100 */\n              lt\n              iszero\n                /* \"The aution/auction.sol\":1641:1666  require(msg.value >= 100) */\n              tag_84\n              jumpi\n              0x00\n              dup1\n              revert\n            tag_84:\n                /* \"The aution/auction.sol\":1679:1694  uint currentBid */\n              0x00\n                /* \"The aution/auction.sol\":1714:1723  msg.value */\n              callvalue\n                /* \"The aution/auction.sol\":1697:1701  bids */\n              0x07\n                /* \"The aution/auction.sol\":1697:1713  bids[msg.sender] */\n              0x00\n                /* \"The aution/auction.sol\":1702:1712  msg.sender */\n              caller\n                /* \"The aution/auction.sol\":1697:1713  bids[msg.sender] */\n              0xffffffffffffffffffffffffffffffffffffffff\n              and\n              0xffffffffffffffffffffffffffffffffffffffff\n              and\n              dup2\n              mstore\n              0x20\n              add\n              swap1\n              dup2\n              mstore\n              0x20\n              add\n              0x00\n              keccak256\n              sload\n                /* \"The aution/auction.sol\":1697:1723  bids[msg.sender]+msg.value */\n              tag_85\n              swap2\n              swap1\n              tag_86\n              jump\t// in\n            tag_85:\n                /* \"The aution/auction.sol\":1679:1723  uint currentBid = bids[msg.sender]+msg.value */\n              swap1\n              pop\n                /* \"The aution/auction.sol\":1755:1772  highestBindingBid */\n              sload(0x05)\n                /* \"The aution/auction.sol\":1742:1752  currentBid */\n              dup2\n                /* \"The aution/auction.sol\":1742:1772  currentBid > highestBindingBid */\n              gt\n                /* \"The aution/auction.sol\":1734:1773  require(currentBid > highestBindingBid) */\n              tag_87\n              jumpi\n              0x00\n              dup1\n              revert\n            tag_87:\n                /* \"The aution/auction.sol\":1803:1813  currentBid */\n              dup1\n                /* \"The aution/auction.sol\":1786:1790  bids */\n              0x07\n                /* \"The aution/auction.sol\":1786:1802  bids[msg.sender] */\n              0x00\n                /* \"The aution/auction.sol\":1791:1801  msg.sender */\n              caller\n                /* \"The aution/auction.sol\":1786:1802  bids[msg.sender] */\n              0xffffffffffffffffffffffffffffffffffffffff\n              and\n              0xffffffffffffffffffffffffffffffffffffffff\n              and\n              dup2\n              mstore\n              0x20\n              add\n              swap1\n              dup2\n              mstore\n              0x20\n              add\n              0x00\n              keccak256\n                /* \"The aution/auction.sol\":1786:1813  bids[msg.sender]=currentBid */\n              dup2\n              swap1\n              sstore\n              pop\n                /* \"The aution/auction.sol\":1843:1847  bids */\n              0x07\n                /* \"The aution/auction.sol\":1843:1862  bids[highestBidder] */\n              0x00\n                /* \"The aution/auction.sol\":1848:1861  highestBidder */\n              0x06\n              0x00\n              swap1\n              sload\n              swap1\n              0x0100\n              exp\n              swap1\n              div\n              0xffffffffffffffffffffffffffffffffffffffff\n              and\n                /* \"The aution/auction.sol\":1843:1862  bids[highestBidder] */\n              0xffffffffffffffffffffffffffffffffffffffff\n              and\n              0xffffffffffffffffffffffffffffffffffffffff\n              and\n              dup2\n              mstore\n              0x20\n              add\n              swap1\n              dup2\n              mstore\n              0x20\n              add\n              0x00\n              keccak256\n              sload\n                /* \"The aution/auction.sol\":1829:1839  currentBid */\n              dup2\n                /* \"The aution/auction.sol\":1829:1862  currentBid <= bids[highestBidder] */\n              gt\n                /* \"The aution/auction.sol\":1826:2113  if(currentBid <= bids[highestBidder]){... */\n              tag_88\n              jumpi\n                /* \"The aution/auction.sol\":1896:1944  min(currentBid+bidIncrement,bids[highestBidder]) */\n              tag_89\n                /* \"The aution/auction.sol\":1911:1923  bidIncrement */\n              sload(0x08)\n                /* \"The aution/auction.sol\":1900:1910  currentBid */\n              dup3\n                /* \"The aution/auction.sol\":1900:1923  currentBid+bidIncrement */\n              tag_90\n              swap2\n              swap1\n              tag_86\n              jump\t// in\n            tag_90:\n                /* \"The aution/auction.sol\":1924:1928  bids */\n              0x07\n                /* \"The aution/auction.sol\":1924:1943  bids[highestBidder] */\n              0x00\n                /* \"The aution/auction.sol\":1929:1942  highestBidder */\n              0x06\n              0x00\n              swap1\n              sload\n              swap1\n              0x0100\n              exp\n              swap1\n              div\n              0xffffffffffffffffffffffffffffffffffffffff\n              and\n                /* \"The aution/auction.sol\":1924:1943  bids[highestBidder] */\n              0xffffffffffffffffffffffffffffffffffffffff\n              and\n              0xffffffffffffffffffffffffffffffffffffffff\n              and\n              dup2\n              mstore\n              0x20\n              add\n              swap1\n              dup2\n              mstore\n              0x20\n              add\n              0x00\n              keccak256\n              sload\n                /* \"The aution/auction.sol\":1896:1899  min */\n              tag_91\n                /* \"The aution/auction.sol\":1896:1944  min(currentBid+bidIncrement,bids[highestBidder]) */\n              jump\t// in\n            tag_89:\n                /* \"The aution/auction.sol\":1878:1895  highestBindingBid */\n              0x05\n                /* \"The aution/auction.sol\":1878:1944  highestBindingBid=min(currentBid+bidIncrement,bids[highestBidder]) */\n              dup2\n              swap1\n              sstore\n              pop\n                /* \"The aution/auction.sol\":1826:2113  if(currentBid <= bids[highestBidder]){... */\n              jump(tag_92)\n            tag_88:\n                /* \"The aution/auction.sol\":2005:2053  min(currentBid,bids[highestBidder]+bidIncrement) */\n              tag_93\n                /* \"The aution/auction.sol\":2009:2019  currentBid */\n              dup2\n                /* \"The aution/auction.sol\":2040:2052  bidIncrement */\n              sload(0x08)\n                /* \"The aution/auction.sol\":2020:2024  bids */\n              0x07\n                /* \"The aution/auction.sol\":2020:2039  bids[highestBidder] */\n              0x00\n                /* \"The aution/auction.sol\":2025:2038  highestBidder */\n              0x06\n              0x00\n              swap1\n              sload\n              swap1\n              0x0100\n              exp\n              swap1\n              div\n              0xffffffffffffffffffffffffffffffffffffffff\n              and\n                /* \"The aution/auction.sol\":2020:2039  bids[highestBidder] */\n              0xffffffffffffffffffffffffffffffffffffffff\n              and\n              0xffffffffffffffffffffffffffffffffffffffff\n              and\n              dup2\n              mstore\n              0x20\n              add\n              swap1\n              dup2\n              mstore\n              0x20\n              add\n              0x00\n              keccak256\n              sload\n                /* \"The aution/auction.sol\":2020:2052  bids[highestBidder]+bidIncrement */\n              tag_94\n              swap2\n              swap1\n              tag_86\n              jump\t// in\n            tag_94:\n                /* \"The aution/auction.sol\":2005:2008  min */\n              tag_91\n                /* \"The aution/auction.sol\":2005:2053  min(currentBid,bids[highestBidder]+bidIncrement) */\n              jump\t// in\n            tag_93:\n                /* \"The aution/auction.sol\":1987:2004  highestBindingBid */\n              0x05\n                /* \"The aution/auction.sol\":1987:2053  highestBindingBid=min(currentBid,bids[highestBidder]+bidIncrement) */\n              dup2\n              swap1\n              sstore\n              pop\n                /* \"The aution/auction.sol\":2090:2100  msg.sender */\n              caller\n                /* \"The aution/auction.sol\":2068:2081  highestBidder */\n              0x06\n              0x00\n                /* \"The aution/auction.sol\":2068:2101  highestBidder=payable(msg.sender) */\n              0x0100\n              exp\n              dup2\n              sload\n              dup2\n              0xffffffffffffffffffffffffffffffffffffffff\n              mul\n              not\n              and\n              swap1\n              dup4\n              0xffffffffffffffffffffffffffffffffffffffff\n              and\n              mul\n              or\n              swap1\n              sstore\n              pop\n                /* \"The aution/auction.sol\":1826:2113  if(currentBid <= bids[highestBidder]){... */\n            tag_92:\n                /* \"The aution/auction.sol\":1581:2122  {... */\n              pop\n                /* \"The aution/auction.sol\":1517:2122  function placeBid() public payable notOwner afterStart beforeEnd{... */\n              jump\t// out\n                /* \"The aution/auction.sol\":499:528  uint public highestBindingBid */\n            tag_55:\n              sload(0x05)\n              dup2\n              jump\t// out\n                /* \"The aution/auction.sol\":2130:3274  function finalizeAuction() public{... */\n            tag_59:\n                /* \"The aution/auction.sol\":2198:2212  State.Canceled */\n              0x03\n                /* \"The aution/auction.sol\":2182:2212  auctionState == State.Canceled */\n              dup1\n              dup2\n              gt\n              iszero\n              tag_96\n              jumpi\n              tag_97\n              tag_65\n              jump\t// in\n            tag_97:\n            tag_96:\n                /* \"The aution/auction.sol\":2182:2194  auctionState */\n              0x04\n              0x00\n              swap1\n              sload\n              swap1\n              0x0100\n              exp\n              swap1\n              div\n              0xff\n              and\n                /* \"The aution/auction.sol\":2182:2212  auctionState == State.Canceled */\n              0x03\n              dup2\n              gt\n              iszero\n              tag_98\n              jumpi\n              tag_99\n              tag_65\n              jump\t// in\n            tag_99:\n            tag_98:\n              eq\n                /* \"The aution/auction.sol\":2182:2239  auctionState == State.Canceled || block.number > endBlock */\n              dup1\n              tag_100\n              jumpi\n              pop\n                /* \"The aution/auction.sol\":2231:2239  endBlock */\n              sload(0x02)\n                /* \"The aution/auction.sol\":2216:2228  block.number */\n              number\n                /* \"The aution/auction.sol\":2216:2239  block.number > endBlock */\n              gt\n                /* \"The aution/auction.sol\":2182:2239  auctionState == State.Canceled || block.number > endBlock */\n            tag_100:\n                /* \"The aution/auction.sol\":2174:2240  require(auctionState == State.Canceled || block.number > endBlock) */\n              tag_101\n              jumpi\n              0x00\n              dup1\n              revert\n            tag_101:\n                /* \"The aution/auction.sol\":2273:2278  owner */\n              0x00\n              dup1\n              sload\n              swap1\n              0x0100\n              exp\n              swap1\n              div\n              0xffffffffffffffffffffffffffffffffffffffff\n              and\n                /* \"The aution/auction.sol\":2259:2278  msg.sender == owner */\n              0xffffffffffffffffffffffffffffffffffffffff\n              and\n                /* \"The aution/auction.sol\":2259:2269  msg.sender */\n              caller\n                /* \"The aution/auction.sol\":2259:2278  msg.sender == owner */\n              0xffffffffffffffffffffffffffffffffffffffff\n              and\n              eq\n                /* \"The aution/auction.sol\":2259:2302  msg.sender == owner || bids[msg.sender] > 0 */\n              dup1\n              tag_102\n              jumpi\n              pop\n                /* \"The aution/auction.sol\":2301:2302  0 */\n              0x00\n                /* \"The aution/auction.sol\":2282:2286  bids */\n              0x07\n                /* \"The aution/auction.sol\":2282:2298  bids[msg.sender] */\n              0x00\n                /* \"The aution/auction.sol\":2287:2297  msg.sender */\n              caller\n                /* \"The aution/auction.sol\":2282:2298  bids[msg.sender] */\n              0xffffffffffffffffffffffffffffffffffffffff\n              and\n              0xffffffffffffffffffffffffffffffffffffffff\n              and\n              dup2\n              mstore\n              0x20\n              add\n              swap1\n              dup2\n              mstore\n              0x20\n              add\n              0x00\n              keccak256\n              sload\n                /* \"The aution/auction.sol\":2282:2302  bids[msg.sender] > 0 */\n              gt\n                /* \"The aution/auction.sol\":2259:2302  msg.sender == owner || bids[msg.sender] > 0 */\n            tag_102:\n                /* \"The aution/auction.sol\":2251:2303  require(msg.sender == owner || bids[msg.sender] > 0) */\n              tag_103\n              jumpi\n              0x00\n              dup1\n              revert\n            tag_103:\n                /* \"The aution/auction.sol\":2314:2339  address payable recipient */\n              0x00\n                /* \"The aution/auction.sol\":2350:2360  uint value */\n              dup1\n                /* \"The aution/auction.sol\":2393:2407  State.Canceled */\n              0x03\n                /* \"The aution/auction.sol\":2377:2407  auctionState == State.Canceled */\n              dup1\n              dup2\n              gt\n              iszero\n              tag_104\n              jumpi\n              tag_105\n              tag_65\n              jump\t// in\n            tag_105:\n            tag_104:\n                /* \"The aution/auction.sol\":2377:2389  auctionState */\n              0x04\n              0x00\n              swap1\n              sload\n              swap1\n              0x0100\n              exp\n              swap1\n              div\n              0xff\n              and\n                /* \"The aution/auction.sol\":2377:2407  auctionState == State.Canceled */\n              0x03\n              dup2\n              gt\n              iszero\n              tag_106\n              jumpi\n              tag_107\n              tag_65\n              jump\t// in\n            tag_107:\n            tag_106:\n              sub\n                /* \"The aution/auction.sol\":2373:3154  if (auctionState == State.Canceled){//auction was canceled... */\n              tag_108\n              jumpi\n                /* \"The aution/auction.sol\":2463:2473  msg.sender */\n              caller\n                /* \"The aution/auction.sol\":2445:2474  recipient=payable(msg.sender) */\n              swap2\n              pop\n                /* \"The aution/auction.sol\":2495:2499  bids */\n              0x07\n                /* \"The aution/auction.sol\":2495:2511  bids[msg.sender] */\n              0x00\n                /* \"The aution/auction.sol\":2500:2510  msg.sender */\n              caller\n                /* \"The aution/auction.sol\":2495:2511  bids[msg.sender] */\n              0xffffffffffffffffffffffffffffffffffffffff\n              and\n              0xffffffffffffffffffffffffffffffffffffffff\n              and\n              dup2\n              mstore\n              0x20\n              add\n              swap1\n              dup2\n              mstore\n              0x20\n              add\n              0x00\n              keccak256\n              sload\n                /* \"The aution/auction.sol\":2489:2511  value=bids[msg.sender] */\n              swap1\n              pop\n                /* \"The aution/auction.sol\":2373:3154  if (auctionState == State.Canceled){//auction was canceled... */\n              jump(tag_109)\n            tag_108:\n                /* \"The aution/auction.sol\":2601:2606  owner */\n              0x00\n              dup1\n              sload\n              swap1\n              0x0100\n              exp\n              swap1\n              div\n              0xffffffffffffffffffffffffffffffffffffffff\n              and\n                /* \"The aution/auction.sol\":2587:2606  msg.sender == owner */\n              0xffffffffffffffffffffffffffffffffffffffff\n              and\n                /* \"The aution/auction.sol\":2587:2597  msg.sender */\n              caller\n                /* \"The aution/auction.sol\":2587:2606  msg.sender == owner */\n              0xffffffffffffffffffffffffffffffffffffffff\n              and\n              sub\n                /* \"The aution/auction.sol\":2584:3143  if(msg.sender == owner){ //this is the owner... */\n              tag_110\n              jumpi\n                /* \"The aution/auction.sol\":2656:2661  owner */\n              0x00\n              dup1\n              sload\n              swap1\n              0x0100\n              exp\n              swap1\n              div\n              0xffffffffffffffffffffffffffffffffffffffff\n              and\n                /* \"The aution/auction.sol\":2646:2661  recipient=owner */\n              swap2\n              pop\n                /* \"The aution/auction.sol\":2686:2703  highestBindingBid */\n              sload(0x05)\n                /* \"The aution/auction.sol\":2680:2703  value=highestBindingBid */\n              swap1\n              pop\n                /* \"The aution/auction.sol\":2584:3143  if(msg.sender == owner){ //this is the owner... */\n              jump(tag_111)\n            tag_110:\n                /* \"The aution/auction.sol\":2792:2805  highestBidder */\n              0x06\n              0x00\n              swap1\n              sload\n              swap1\n              0x0100\n              exp\n              swap1\n              div\n              0xffffffffffffffffffffffffffffffffffffffff\n              and\n                /* \"The aution/auction.sol\":2780:2805  msg.sender==highestBidder */\n              0xffffffffffffffffffffffffffffffffffffffff\n              and\n                /* \"The aution/auction.sol\":2780:2790  msg.sender */\n              caller\n                /* \"The aution/auction.sol\":2780:2805  msg.sender==highestBidder */\n              0xffffffffffffffffffffffffffffffffffffffff\n              and\n              sub\n                /* \"The aution/auction.sol\":2777:3128  if(msg.sender==highestBidder){... */\n              tag_112\n              jumpi\n                /* \"The aution/auction.sol\":2839:2852  highestBidder */\n              0x06\n              0x00\n              swap1\n              sload\n              swap1\n              0x0100\n              exp\n              swap1\n              div\n              0xffffffffffffffffffffffffffffffffffffffff\n              and\n                /* \"The aution/auction.sol\":2829:2852  recipient=highestBidder */\n              swap2\n              pop\n                /* \"The aution/auction.sol\":2901:2918  highestBindingBid */\n              sload(0x05)\n                /* \"The aution/auction.sol\":2881:2885  bids */\n              0x07\n                /* \"The aution/auction.sol\":2881:2900  bids[highestBidder] */\n              0x00\n                /* \"The aution/auction.sol\":2886:2899  highestBidder */\n              0x06\n              0x00\n              swap1\n              sload\n              swap1\n              0x0100\n              exp\n              swap1\n              div\n              0xffffffffffffffffffffffffffffffffffffffff\n              and\n                /* \"The aution/auction.sol\":2881:2900  bids[highestBidder] */\n              0xffffffffffffffffffffffffffffffffffffffff\n              and\n              0xffffffffffffffffffffffffffffffffffffffff\n              and\n              dup2\n              mstore\n              0x20\n              add\n              swap1\n              dup2\n              mstore\n              0x20\n              add\n              0x00\n              keccak256\n              sload\n                /* \"The aution/auction.sol\":2881:2918  bids[highestBidder]-highestBindingBid */\n              tag_113\n              swap2\n              swap1\n              tag_114\n              jump\t// in\n            tag_113:\n                /* \"The aution/auction.sol\":2875:2918  value=bids[highestBidder]-highestBindingBid */\n              swap1\n              pop\n                /* \"The aution/auction.sol\":2777:3128  if(msg.sender==highestBidder){... */\n              jump(tag_115)\n            tag_112:\n                /* \"The aution/auction.sol\":3052:3062  msg.sender */\n              caller\n                /* \"The aution/auction.sol\":3034:3063  recipient=payable(msg.sender) */\n              swap2\n              pop\n                /* \"The aution/auction.sol\":3092:3096  bids */\n              0x07\n                /* \"The aution/auction.sol\":3092:3108  bids[msg.sender] */\n              0x00\n                /* \"The aution/auction.sol\":3097:3107  msg.sender */\n              caller\n                /* \"The aution/auction.sol\":3092:3108  bids[msg.sender] */\n              0xffffffffffffffffffffffffffffffffffffffff\n              and\n              0xffffffffffffffffffffffffffffffffffffffff\n              and\n              dup2\n              mstore\n              0x20\n              add\n              swap1\n              dup2\n              mstore\n              0x20\n              add\n              0x00\n              keccak256\n              sload\n                /* \"The aution/auction.sol\":3086:3108  value=bids[msg.sender] */\n              swap1\n              pop\n                /* \"The aution/auction.sol\":2777:3128  if(msg.sender==highestBidder){... */\n            tag_115:\n                /* \"The aution/auction.sol\":2584:3143  if(msg.sender == owner){ //this is the owner... */\n            tag_111:\n                /* \"The aution/auction.sol\":2373:3154  if (auctionState == State.Canceled){//auction was canceled... */\n            tag_109:\n                /* \"The aution/auction.sol\":3231:3232  0 */\n              0x00\n                /* \"The aution/auction.sol\":3215:3219  bids */\n              0x07\n                /* \"The aution/auction.sol\":3215:3230  bids[recipient] */\n              0x00\n                /* \"The aution/auction.sol\":3220:3229  recipient */\n              dup5\n                /* \"The aution/auction.sol\":3215:3230  bids[recipient] */\n              0xffffffffffffffffffffffffffffffffffffffff\n              and\n              0xffffffffffffffffffffffffffffffffffffffff\n              and\n              dup2\n              mstore\n              0x20\n              add\n              swap1\n              dup2\n              mstore\n              0x20\n              add\n              0x00\n              keccak256\n                /* \"The aution/auction.sol\":3215:3232  bids[recipient]=0 */\n              dup2\n              swap1\n              sstore\n              pop\n                /* \"The aution/auction.sol\":3241:3250  recipient */\n              dup2\n                /* \"The aution/auction.sol\":3241:3259  recipient.transfer */\n              0xffffffffffffffffffffffffffffffffffffffff\n              and\n                /* \"The aution/auction.sol\":3241:3266  recipient.transfer(value) */\n              0x08fc\n                /* \"The aution/auction.sol\":3260:3265  value */\n              dup3\n                /* \"The aution/auction.sol\":3241:3266  recipient.transfer(value) */\n              swap1\n              dup2\n              iszero\n              mul\n              swap1\n              mload(0x40)\n              0x00\n              mload(0x40)\n              dup1\n              dup4\n              sub\n              dup2\n              dup6\n              dup9\n              dup9\n              call\n              swap4\n              pop\n              pop\n              pop\n              pop\n              iszero\n              dup1\n              iszero\n              tag_117\n              jumpi\n              returndatasize\n              0x00\n              dup1\n              returndatacopy\n              revert(0x00, returndatasize)\n            tag_117:\n              pop\n                /* \"The aution/auction.sol\":2163:3274  {... */\n              pop\n              pop\n                /* \"The aution/auction.sol\":2130:3274  function finalizeAuction() public{... */\n              jump\t// out\n                /* \"The aution/auction.sol\":1248:1414  function min(uint a,uint b) pure internal returns(uint){... */\n            tag_91:\n                /* \"The aution/auction.sol\":1298:1302  uint */\n              0x00\n                /* \"The aution/auction.sol\":1321:1322  b */\n              dup2\n                /* \"The aution/auction.sol\":1318:1319  a */\n              dup4\n                /* \"The aution/auction.sol\":1318:1322  a<=b */\n              gt\n                /* \"The aution/auction.sol\":1314:1407  if (a<=b){... */\n              tag_119\n              jumpi\n                /* \"The aution/auction.sol\":1345:1346  a */\n              dup3\n                /* \"The aution/auction.sol\":1338:1346  return a */\n              swap1\n              pop\n              jump(tag_118)\n                /* \"The aution/auction.sol\":1314:1407  if (a<=b){... */\n            tag_119:\n                /* \"The aution/auction.sol\":1394:1395  b */\n              dup2\n                /* \"The aution/auction.sol\":1387:1395  return b */\n              swap1\n              pop\n                /* \"The aution/auction.sol\":1248:1414  function min(uint a,uint b) pure internal returns(uint){... */\n            tag_118:\n              swap3\n              swap2\n              pop\n              pop\n              jump\t// out\n                /* \"#utility.yul\":7:84   */\n            tag_121:\n                /* \"#utility.yul\":44:51   */\n              0x00\n                /* \"#utility.yul\":73:78   */\n              dup2\n                /* \"#utility.yul\":62:78   */\n              swap1\n              pop\n                /* \"#utility.yul\":7:84   */\n              swap2\n              swap1\n              pop\n              jump\t// out\n                /* \"#utility.yul\":90:208   */\n            tag_122:\n                /* \"#utility.yul\":177:201   */\n              tag_146\n                /* \"#utility.yul\":195:200   */\n              dup2\n                /* \"#utility.yul\":177:201   */\n              tag_121\n              jump\t// in\n            tag_146:\n                /* \"#utility.yul\":172:175   */\n              dup3\n                /* \"#utility.yul\":165:202   */\n              mstore\n                /* \"#utility.yul\":90:208   */\n              pop\n              pop\n              jump\t// out\n                /* \"#utility.yul\":214:436   */\n            tag_18:\n                /* \"#utility.yul\":307:311   */\n              0x00\n                /* \"#utility.yul\":345:347   */\n              0x20\n                /* \"#utility.yul\":334:343   */\n              dup3\n                /* \"#utility.yul\":330:348   */\n              add\n                /* \"#utility.yul\":322:348   */\n              swap1\n              pop\n                /* \"#utility.yul\":358:429   */\n              tag_148\n                /* \"#utility.yul\":426:427   */\n              0x00\n                /* \"#utility.yul\":415:424   */\n              dup4\n                /* \"#utility.yul\":411:428   */\n              add\n                /* \"#utility.yul\":402:408   */\n              dup5\n                /* \"#utility.yul\":358:429   */\n              tag_122\n              jump\t// in\n            tag_148:\n                /* \"#utility.yul\":214:436   */\n              swap3\n              swap2\n              pop\n              pop\n              jump\t// out\n                /* \"#utility.yul\":523:640   */\n            tag_124:\n                /* \"#utility.yul\":632:633   */\n              0x00\n                /* \"#utility.yul\":629:630   */\n              dup1\n                /* \"#utility.yul\":622:634   */\n              revert\n                /* \"#utility.yul\":769:895   */\n            tag_126:\n                /* \"#utility.yul\":806:813   */\n              0x00\n                /* \"#utility.yul\":846:888   */\n              0xffffffffffffffffffffffffffffffffffffffff\n                /* \"#utility.yul\":839:844   */\n              dup3\n                /* \"#utility.yul\":835:889   */\n              and\n                /* \"#utility.yul\":824:889   */\n              swap1\n              pop\n                /* \"#utility.yul\":769:895   */\n              swap2\n              swap1\n              pop\n              jump\t// out\n                /* \"#utility.yul\":901:997   */\n            tag_127:\n                /* \"#utility.yul\":938:945   */\n              0x00\n                /* \"#utility.yul\":967:991   */\n              tag_154\n                /* \"#utility.yul\":985:990   */\n              dup3\n                /* \"#utility.yul\":967:991   */\n              tag_126\n              jump\t// in\n            tag_154:\n                /* \"#utility.yul\":956:991   */\n              swap1\n              pop\n                /* \"#utility.yul\":901:997   */\n              swap2\n              swap1\n              pop\n              jump\t// out\n                /* \"#utility.yul\":1003:1125   */\n            tag_128:\n                /* \"#utility.yul\":1076:1100   */\n              tag_156\n                /* \"#utility.yul\":1094:1099   */\n              dup2\n                /* \"#utility.yul\":1076:1100   */\n              tag_127\n              jump\t// in\n            tag_156:\n                /* \"#utility.yul\":1069:1074   */\n              dup2\n                /* \"#utility.yul\":1066:1101   */\n              eq\n                /* \"#utility.yul\":1056:1119   */\n              tag_157\n              jumpi\n                /* \"#utility.yul\":1115:1116   */\n              0x00\n                /* \"#utility.yul\":1112:1113   */\n              dup1\n                /* \"#utility.yul\":1105:1117   */\n              revert\n                /* \"#utility.yul\":1056:1119   */\n            tag_157:\n                /* \"#utility.yul\":1003:1125   */\n              pop\n              jump\t// out\n                /* \"#utility.yul\":1131:1270   */\n            tag_129:\n                /* \"#utility.yul\":1177:1182   */\n              0x00\n                /* \"#utility.yul\":1215:1221   */\n              dup2\n                /* \"#utility.yul\":1202:1222   */\n              calldataload\n                /* \"#utility.yul\":1193:1222   */\n              swap1\n              pop\n                /* \"#utility.yul\":1231:1264   */\n              tag_159\n                /* \"#utility.yul\":1258:1263   */\n              dup2\n                /* \"#utility.yul\":1231:1264   */\n              tag_128\n              jump\t// in\n            tag_159:\n                /* \"#utility.yul\":1131:1270   */\n              swap3\n              swap2\n              pop\n              pop\n              jump\t// out\n                /* \"#utility.yul\":1276:1605   */\n            tag_26:\n                /* \"#utility.yul\":1335:1341   */\n              0x00\n                /* \"#utility.yul\":1384:1386   */\n              0x20\n                /* \"#utility.yul\":1372:1381   */\n              dup3\n                /* \"#utility.yul\":1363:1370   */\n              dup5\n                /* \"#utility.yul\":1359:1382   */\n              sub\n                /* \"#utility.yul\":1355:1387   */\n              slt\n                /* \"#utility.yul\":1352:1471   */\n              iszero\n              tag_161\n              jumpi\n                /* \"#utility.yul\":1390:1469   */\n              tag_162\n              tag_124\n              jump\t// in\n            tag_162:\n                /* \"#utility.yul\":1352:1471   */\n            tag_161:\n                /* \"#utility.yul\":1510:1511   */\n              0x00\n                /* \"#utility.yul\":1535:1588   */\n              tag_163\n                /* \"#utility.yul\":1580:1587   */\n              dup5\n                /* \"#utility.yul\":1571:1577   */\n              dup3\n                /* \"#utility.yul\":1560:1569   */\n              dup6\n                /* \"#utility.yul\":1556:1578   */\n              add\n                /* \"#utility.yul\":1535:1588   */\n              tag_129\n              jump\t// in\n            tag_163:\n                /* \"#utility.yul\":1525:1588   */\n              swap2\n              pop\n                /* \"#utility.yul\":1481:1598   */\n              pop\n                /* \"#utility.yul\":1276:1605   */\n              swap3\n              swap2\n              pop\n              pop\n              jump\t// out\n                /* \"#utility.yul\":1611:1791   */\n            tag_65:\n                /* \"#utility.yul\":1659:1736   */\n              0x4e487b7100000000000000000000000000000000000000000000000000000000\n                /* \"#utility.yul\":1656:1657   */\n              0x00\n                /* \"#utility.yul\":1649:1737   */\n              mstore\n                /* \"#utility.yul\":1756:1760   */\n              0x21\n                /* \"#utility.yul\":1753:1754   */\n              0x04\n                /* \"#utility.yul\":1746:1761   */\n              mstore\n                /* \"#utility.yul\":1780:1784   */\n              0x24\n                /* \"#utility.yul\":1777:1778   */\n              0x00\n                /* \"#utility.yul\":1770:1785   */\n              revert\n                /* \"#utility.yul\":1797:1910   */\n            tag_130:\n                /* \"#utility.yul\":1878:1879   */\n              0x04\n                /* \"#utility.yul\":1871:1876   */\n              dup2\n                /* \"#utility.yul\":1868:1880   */\n              lt\n                /* \"#utility.yul\":1858:1904   */\n              tag_166\n              jumpi\n                /* \"#utility.yul\":1884:1902   */\n              tag_167\n              tag_65\n              jump\t// in\n            tag_167:\n                /* \"#utility.yul\":1858:1904   */\n            tag_166:\n                /* \"#utility.yul\":1797:1910   */\n              pop\n              jump\t// out\n                /* \"#utility.yul\":1916:2043   */\n            tag_131:\n                /* \"#utility.yul\":1961:1968   */\n              0x00\n                /* \"#utility.yul\":1990:1995   */\n              dup2\n                /* \"#utility.yul\":1979:1995   */\n              swap1\n              pop\n                /* \"#utility.yul\":1996:2037   */\n              tag_169\n                /* \"#utility.yul\":2031:2036   */\n              dup3\n                /* \"#utility.yul\":1996:2037   */\n              tag_130\n              jump\t// in\n            tag_169:\n                /* \"#utility.yul\":1916:2043   */\n              swap2\n              swap1\n              pop\n              jump\t// out\n                /* \"#utility.yul\":2049:2176   */\n            tag_132:\n                /* \"#utility.yul\":2105:2114   */\n              0x00\n                /* \"#utility.yul\":2138:2170   */\n              tag_171\n                /* \"#utility.yul\":2164:2169   */\n              dup3\n                /* \"#utility.yul\":2138:2170   */\n              tag_131\n              jump\t// in\n            tag_171:\n                /* \"#utility.yul\":2125:2170   */\n              swap1\n              pop\n                /* \"#utility.yul\":2049:2176   */\n              swap2\n              swap1\n              pop\n              jump\t// out\n                /* \"#utility.yul\":2182:2325   */\n            tag_133:\n                /* \"#utility.yul\":2275:2318   */\n              tag_173\n                /* \"#utility.yul\":2312:2317   */\n              dup2\n                /* \"#utility.yul\":2275:2318   */\n              tag_132\n              jump\t// in\n            tag_173:\n                /* \"#utility.yul\":2270:2273   */\n              dup3\n                /* \"#utility.yul\":2263:2319   */\n              mstore\n                /* \"#utility.yul\":2182:2325   */\n              pop\n              pop\n              jump\t// out\n                /* \"#utility.yul\":2331:2565   */\n            tag_33:\n                /* \"#utility.yul\":2430:2434   */\n              0x00\n                /* \"#utility.yul\":2468:2470   */\n              0x20\n                /* \"#utility.yul\":2457:2466   */\n              dup3\n                /* \"#utility.yul\":2453:2471   */\n              add\n                /* \"#utility.yul\":2445:2471   */\n              swap1\n              pop\n                /* \"#utility.yul\":2481:2558   */\n              tag_175\n                /* \"#utility.yul\":2555:2556   */\n              0x00\n                /* \"#utility.yul\":2544:2553   */\n              dup4\n                /* \"#utility.yul\":2540:2557   */\n              add\n                /* \"#utility.yul\":2531:2537   */\n              dup5\n                /* \"#utility.yul\":2481:2558   */\n              tag_133\n              jump\t// in\n            tag_175:\n                /* \"#utility.yul\":2331:2565   */\n              swap3\n              swap2\n              pop\n              pop\n              jump\t// out\n                /* \"#utility.yul\":2571:2675   */\n            tag_134:\n                /* \"#utility.yul\":2616:2623   */\n              0x00\n                /* \"#utility.yul\":2645:2669   */\n              tag_177\n                /* \"#utility.yul\":2663:2668   */\n              dup3\n                /* \"#utility.yul\":2645:2669   */\n              tag_126\n              jump\t// in\n            tag_177:\n                /* \"#utility.yul\":2634:2669   */\n              swap1\n              pop\n                /* \"#utility.yul\":2571:2675   */\n              swap2\n              swap1\n              pop\n              jump\t// out\n                /* \"#utility.yul\":2681:2823   */\n            tag_135:\n                /* \"#utility.yul\":2784:2816   */\n              tag_179\n                /* \"#utility.yul\":2810:2815   */\n              dup2\n                /* \"#utility.yul\":2784:2816   */\n              tag_134\n              jump\t// in\n            tag_179:\n                /* \"#utility.yul\":2779:2782   */\n              dup3\n                /* \"#utility.yul\":2772:2817   */\n              mstore\n                /* \"#utility.yul\":2681:2823   */\n              pop\n              pop\n              jump\t// out\n                /* \"#utility.yul\":2829:3083   */\n            tag_38:\n                /* \"#utility.yul\":2938:2942   */\n              0x00\n                /* \"#utility.yul\":2976:2978   */\n              0x20\n                /* \"#utility.yul\":2965:2974   */\n              dup3\n                /* \"#utility.yul\":2961:2979   */\n              add\n                /* \"#utility.yul\":2953:2979   */\n              swap1\n              pop\n                /* \"#utility.yul\":2989:3076   */\n              tag_181\n                /* \"#utility.yul\":3073:3074   */\n              0x00\n                /* \"#utility.yul\":3062:3071   */\n              dup4\n                /* \"#utility.yul\":3058:3075   */\n              add\n                /* \"#utility.yul\":3049:3055   */\n              dup5\n                /* \"#utility.yul\":2989:3076   */\n              tag_135\n              jump\t// in\n            tag_181:\n                /* \"#utility.yul\":2829:3083   */\n              swap3\n              swap2\n              pop\n              pop\n              jump\t// out\n                /* \"#utility.yul\":3089:3188   */\n            tag_136:\n                /* \"#utility.yul\":3141:3147   */\n              0x00\n                /* \"#utility.yul\":3175:3180   */\n              dup2\n                /* \"#utility.yul\":3169:3181   */\n              mload\n                /* \"#utility.yul\":3159:3181   */\n              swap1\n              pop\n                /* \"#utility.yul\":3089:3188   */\n              swap2\n              swap1\n              pop\n              jump\t// out\n                /* \"#utility.yul\":3194:3363   */\n            tag_137:\n                /* \"#utility.yul\":3278:3289   */\n              0x00\n                /* \"#utility.yul\":3312:3318   */\n              dup3\n                /* \"#utility.yul\":3307:3310   */\n              dup3\n                /* \"#utility.yul\":3300:3319   */\n              mstore\n                /* \"#utility.yul\":3352:3356   */\n              0x20\n                /* \"#utility.yul\":3347:3350   */\n              dup3\n                /* \"#utility.yul\":3343:3357   */\n              add\n                /* \"#utility.yul\":3328:3357   */\n              swap1\n              pop\n                /* \"#utility.yul\":3194:3363   */\n              swap3\n              swap2\n              pop\n              pop\n              jump\t// out\n                /* \"#utility.yul\":3369:3615   */\n            tag_138:\n                /* \"#utility.yul\":3450:3451   */\n              0x00\n                /* \"#utility.yul\":3460:3573   */\n            tag_185:\n                /* \"#utility.yul\":3474:3480   */\n              dup4\n                /* \"#utility.yul\":3471:3472   */\n              dup2\n                /* \"#utility.yul\":3468:3481   */\n              lt\n                /* \"#utility.yul\":3460:3573   */\n              iszero\n              tag_187\n              jumpi\n                /* \"#utility.yul\":3559:3560   */\n              dup1\n                /* \"#utility.yul\":3554:3557   */\n              dup3\n                /* \"#utility.yul\":3550:3561   */\n              add\n                /* \"#utility.yul\":3544:3562   */\n              mload\n                /* \"#utility.yul\":3540:3541   */\n              dup2\n                /* \"#utility.yul\":3535:3538   */\n              dup5\n                /* \"#utility.yul\":3531:3542   */\n              add\n                /* \"#utility.yul\":3524:3563   */\n              mstore\n                /* \"#utility.yul\":3496:3498   */\n              0x20\n                /* \"#utility.yul\":3493:3494   */\n              dup2\n                /* \"#utility.yul\":3489:3499   */\n              add\n                /* \"#utility.yul\":3484:3499   */\n              swap1\n              pop\n                /* \"#utility.yul\":3460:3573   */\n              jump(tag_185)\n            tag_187:\n                /* \"#utility.yul\":3607:3608   */\n              0x00\n                /* \"#utility.yul\":3598:3604   */\n              dup5\n                /* \"#utility.yul\":3593:3596   */\n              dup5\n                /* \"#utility.yul\":3589:3605   */\n              add\n                /* \"#utility.yul\":3582:3609   */\n              mstore\n                /* \"#utility.yul\":3431:3615   */\n              pop\n                /* \"#utility.yul\":3369:3615   */\n              pop\n              pop\n              pop\n              jump\t// out\n                /* \"#utility.yul\":3621:3723   */\n            tag_139:\n                /* \"#utility.yul\":3662:3668   */\n              0x00\n                /* \"#utility.yul\":3713:3715   */\n              0x1f\n                /* \"#utility.yul\":3709:3716   */\n              not\n                /* \"#utility.yul\":3704:3706   */\n              0x1f\n                /* \"#utility.yul\":3697:3702   */\n              dup4\n                /* \"#utility.yul\":3693:3707   */\n              add\n                /* \"#utility.yul\":3689:3717   */\n              and\n                /* \"#utility.yul\":3679:3717   */\n              swap1\n              pop\n                /* \"#utility.yul\":3621:3723   */\n              swap2\n              swap1\n              pop\n              jump\t// out\n                /* \"#utility.yul\":3729:4106   */\n            tag_140:\n                /* \"#utility.yul\":3817:3820   */\n              0x00\n                /* \"#utility.yul\":3845:3884   */\n              tag_190\n                /* \"#utility.yul\":3878:3883   */\n              dup3\n                /* \"#utility.yul\":3845:3884   */\n              tag_136\n              jump\t// in\n            tag_190:\n                /* \"#utility.yul\":3900:3971   */\n              tag_191\n                /* \"#utility.yul\":3964:3970   */\n              dup2\n                /* \"#utility.yul\":3959:3962   */\n              dup6\n                /* \"#utility.yul\":3900:3971   */\n              tag_137\n              jump\t// in\n            tag_191:\n                /* \"#utility.yul\":3893:3971   */\n              swap4\n              pop\n                /* \"#utility.yul\":3980:4045   */\n              tag_192\n                /* \"#utility.yul\":4038:4044   */\n              dup2\n                /* \"#utility.yul\":4033:4036   */\n              dup6\n                /* \"#utility.yul\":4026:4030   */\n              0x20\n                /* \"#utility.yul\":4019:4024   */\n              dup7\n                /* \"#utility.yul\":4015:4031   */\n              add\n                /* \"#utility.yul\":3980:4045   */\n              tag_138\n              jump\t// in\n            tag_192:\n                /* \"#utility.yul\":4070:4099   */\n              tag_193\n                /* \"#utility.yul\":4092:4098   */\n              dup2\n                /* \"#utility.yul\":4070:4099   */\n              tag_139\n              jump\t// in\n            tag_193:\n                /* \"#utility.yul\":4065:4068   */\n              dup5\n                /* \"#utility.yul\":4061:4100   */\n              add\n                /* \"#utility.yul\":4054:4100   */\n              swap2\n              pop\n                /* \"#utility.yul\":3821:4106   */\n              pop\n                /* \"#utility.yul\":3729:4106   */\n              swap3\n              swap2\n              pop\n              pop\n              jump\t// out\n                /* \"#utility.yul\":4112:4425   */\n            tag_50:\n                /* \"#utility.yul\":4225:4229   */\n              0x00\n                /* \"#utility.yul\":4263:4265   */\n              0x20\n                /* \"#utility.yul\":4252:4261   */\n              dup3\n                /* \"#utility.yul\":4248:4266   */\n              add\n                /* \"#utility.yul\":4240:4266   */\n              swap1\n              pop\n                /* \"#utility.yul\":4312:4321   */\n              dup2\n                /* \"#utility.yul\":4306:4310   */\n              dup2\n                /* \"#utility.yul\":4302:4322   */\n              sub\n                /* \"#utility.yul\":4298:4299   */\n              0x00\n                /* \"#utility.yul\":4287:4296   */\n              dup4\n                /* \"#utility.yul\":4283:4300   */\n              add\n                /* \"#utility.yul\":4276:4323   */\n              mstore\n                /* \"#utility.yul\":4340:4418   */\n              tag_195\n                /* \"#utility.yul\":4413:4417   */\n              dup2\n                /* \"#utility.yul\":4404:4410   */\n              dup5\n                /* \"#utility.yul\":4340:4418   */\n              tag_140\n              jump\t// in\n            tag_195:\n                /* \"#utility.yul\":4332:4418   */\n              swap1\n              pop\n                /* \"#utility.yul\":4112:4425   */\n              swap3\n              swap2\n              pop\n              pop\n              jump\t// out\n                /* \"#utility.yul\":4431:4611   */\n            tag_141:\n                /* \"#utility.yul\":4479:4556   */\n              0x4e487b7100000000000000000000000000000000000000000000000000000000\n                /* \"#utility.yul\":4476:4477   */\n              0x00\n                /* \"#utility.yul\":4469:4557   */\n              mstore\n                /* \"#utility.yul\":4576:4580   */\n              0x22\n                /* \"#utility.yul\":4573:4574   */\n              0x04\n                /* \"#utility.yul\":4566:4581   */\n              mstore\n                /* \"#utility.yul\":4600:4604   */\n              0x24\n                /* \"#utility.yul\":4597:4598   */\n              0x00\n                /* \"#utility.yul\":4590:4605   */\n              revert\n                /* \"#utility.yul\":4617:4937   */\n            tag_67:\n                /* \"#utility.yul\":4661:4667   */\n              0x00\n                /* \"#utility.yul\":4698:4699   */\n              0x02\n                /* \"#utility.yul\":4692:4696   */\n              dup3\n                /* \"#utility.yul\":4688:4700   */\n              div\n                /* \"#utility.yul\":4678:4700   */\n              swap1\n              pop\n                /* \"#utility.yul\":4745:4746   */\n              0x01\n                /* \"#utility.yul\":4739:4743   */\n              dup3\n                /* \"#utility.yul\":4735:4747   */\n              and\n                /* \"#utility.yul\":4766:4784   */\n              dup1\n                /* \"#utility.yul\":4756:4837   */\n              tag_198\n              jumpi\n                /* \"#utility.yul\":4822:4826   */\n              0x7f\n                /* \"#utility.yul\":4814:4820   */\n              dup3\n                /* \"#utility.yul\":4810:4827   */\n              and\n                /* \"#utility.yul\":4800:4827   */\n              swap2\n              pop\n                /* \"#utility.yul\":4756:4837   */\n            tag_198:\n                /* \"#utility.yul\":4884:4886   */\n              0x20\n                /* \"#utility.yul\":4876:4882   */\n              dup3\n                /* \"#utility.yul\":4873:4887   */\n              lt\n                /* \"#utility.yul\":4853:4871   */\n              dup2\n                /* \"#utility.yul\":4850:4888   */\n              sub\n                /* \"#utility.yul\":4847:4931   */\n              tag_199\n              jumpi\n                /* \"#utility.yul\":4903:4921   */\n              tag_200\n              tag_141\n              jump\t// in\n            tag_200:\n                /* \"#utility.yul\":4847:4931   */\n            tag_199:\n                /* \"#utility.yul\":4668:4937   */\n              pop\n                /* \"#utility.yul\":4617:4937   */\n              swap2\n              swap1\n              pop\n              jump\t// out\n                /* \"#utility.yul\":4943:5123   */\n            tag_142:\n                /* \"#utility.yul\":4991:5068   */\n              0x4e487b7100000000000000000000000000000000000000000000000000000000\n                /* \"#utility.yul\":4988:4989   */\n              0x00\n                /* \"#utility.yul\":4981:5069   */\n              mstore\n                /* \"#utility.yul\":5088:5092   */\n              0x11\n                /* \"#utility.yul\":5085:5086   */\n              0x04\n                /* \"#utility.yul\":5078:5093   */\n              mstore\n                /* \"#utility.yul\":5112:5116   */\n              0x24\n                /* \"#utility.yul\":5109:5110   */\n              0x00\n                /* \"#utility.yul\":5102:5117   */\n              revert\n                /* \"#utility.yul\":5129:5320   */\n            tag_86:\n                /* \"#utility.yul\":5169:5172   */\n              0x00\n                /* \"#utility.yul\":5188:5208   */\n              tag_203\n                /* \"#utility.yul\":5206:5207   */\n              dup3\n                /* \"#utility.yul\":5188:5208   */\n              tag_121\n              jump\t// in\n            tag_203:\n                /* \"#utility.yul\":5183:5208   */\n              swap2\n              pop\n                /* \"#utility.yul\":5222:5242   */\n              tag_204\n                /* \"#utility.yul\":5240:5241   */\n              dup4\n                /* \"#utility.yul\":5222:5242   */\n              tag_121\n              jump\t// in\n            tag_204:\n                /* \"#utility.yul\":5217:5242   */\n              swap3\n              pop\n                /* \"#utility.yul\":5265:5266   */\n              dup3\n                /* \"#utility.yul\":5262:5263   */\n              dup3\n                /* \"#utility.yul\":5258:5267   */\n              add\n                /* \"#utility.yul\":5251:5267   */\n              swap1\n              pop\n                /* \"#utility.yul\":5286:5289   */\n              dup1\n                /* \"#utility.yul\":5283:5284   */\n              dup3\n                /* \"#utility.yul\":5280:5290   */\n              gt\n                /* \"#utility.yul\":5277:5313   */\n              iszero\n              tag_205\n              jumpi\n                /* \"#utility.yul\":5293:5311   */\n              tag_206\n              tag_142\n              jump\t// in\n            tag_206:\n                /* \"#utility.yul\":5277:5313   */\n            tag_205:\n                /* \"#utility.yul\":5129:5320   */\n              swap3\n              swap2\n              pop\n              pop\n              jump\t// out\n                /* \"#utility.yul\":5326:5520   */\n            tag_114:\n                /* \"#utility.yul\":5366:5370   */\n              0x00\n                /* \"#utility.yul\":5386:5406   */\n              tag_208\n                /* \"#utility.yul\":5404:5405   */\n              dup3\n                /* \"#utility.yul\":5386:5406   */\n              tag_121\n              jump\t// in\n            tag_208:\n                /* \"#utility.yul\":5381:5406   */\n              swap2\n              pop\n                /* \"#utility.yul\":5420:5440   */\n              tag_209\n                /* \"#utility.yul\":5438:5439   */\n              dup4\n                /* \"#utility.yul\":5420:5440   */\n              tag_121\n              jump\t// in\n            tag_209:\n                /* \"#utility.yul\":5415:5440   */\n              swap3\n              pop\n                /* \"#utility.yul\":5464:5465   */\n              dup3\n                /* \"#utility.yul\":5461:5462   */\n              dup3\n                /* \"#utility.yul\":5457:5466   */\n              sub\n                /* \"#utility.yul\":5449:5466   */\n              swap1\n              pop\n                /* \"#utility.yul\":5488:5489   */\n              dup2\n                /* \"#utility.yul\":5482:5486   */\n              dup2\n                /* \"#utility.yul\":5479:5490   */\n              gt\n                /* \"#utility.yul\":5476:5513   */\n              iszero\n              tag_210\n              jumpi\n                /* \"#utility.yul\":5493:5511   */\n              tag_211\n              tag_142\n              jump\t// in\n            tag_211:\n                /* \"#utility.yul\":5476:5513   */\n            tag_210:\n                /* \"#utility.yul\":5326:5520   */\n              swap3\n              swap2\n              pop\n              pop\n              jump\t// out\n\n            auxdata: 0xa26469706673582212208c98ddc391dd56c621e2c754dcf6bfeb8db232656b8dfdb1d6b71abc2a59b44a64736f6c63430008120033\n        }\n    }\n\n    auxdata: 0xa264697066735822122055201b4dc4b9b293c84d5e90992d519e57e28eaa92cea1f6e4f5c460d7dd04b864736f6c63430008120033\n}\n",
				"bytecode": {
					"linkReferences": {},
					"object": "608060405234801561001057600080fd5b506116dc806100206000396000f3fe60806040523480156200001157600080fd5b50600436106200003a5760003560e01c8063571a26a0146200003f578063f58114471462000075575b600080fd5b6200005d6004803603810190620000579190620001b2565b62000081565b6040516200006c91906200026f565b60405180910390f35b6200007f620000c1565b005b600081815481106200009257600080fd5b906000526020600020016000915054906101000a900473ffffffffffffffffffffffffffffffffffffffff1681565b600033604051620000d29062000164565b620000de9190620002b1565b604051809103906000f080158015620000fb573d6000803e3d6000fd5b5090506000819080600181540180825580915050600190039060005260206000200160009091909190916101000a81548173ffffffffffffffffffffffffffffffffffffffff021916908373ffffffffffffffffffffffffffffffffffffffff16021790555050565b6113d880620002cf83390190565b600080fd5b6000819050919050565b6200018c8162000177565b81146200019857600080fd5b50565b600081359050620001ac8162000181565b92915050565b600060208284031215620001cb57620001ca62000172565b5b6000620001db848285016200019b565b91505092915050565b600073ffffffffffffffffffffffffffffffffffffffff82169050919050565b6000819050919050565b60006200022f620002296200022384620001e4565b62000204565b620001e4565b9050919050565b600062000243826200020e565b9050919050565b6000620002578262000236565b9050919050565b62000269816200024a565b82525050565b60006020820190506200028660008301846200025e565b92915050565b60006200029982620001e4565b9050919050565b620002ab816200028c565b82525050565b6000602082019050620002c86000830184620002a0565b9291505056fe60806040523480156200001157600080fd5b50604051620013d8380380620013d8833981810160405281019062000037919062000164565b806000806101000a81548173ffffffffffffffffffffffffffffffffffffffff021916908373ffffffffffffffffffffffffffffffffffffffff1602179055506001600460006101000a81548160ff02191690836003811115620000a0576200009f62000196565b5b0217905550436001819055506003600154620000bd9190620001fe565b6002819055506040518060200160405280600081525060039081620000e39190620004a9565b50670de0b6b3a76400006008819055505062000590565b600080fd5b600073ffffffffffffffffffffffffffffffffffffffff82169050919050565b60006200012c82620000ff565b9050919050565b6200013e816200011f565b81146200014a57600080fd5b50565b6000815190506200015e8162000133565b92915050565b6000602082840312156200017d576200017c620000fa565b5b60006200018d848285016200014d565b91505092915050565b7f4e487b7100000000000000000000000000000000000000000000000000000000600052602160045260246000fd5b6000819050919050565b7f4e487b7100000000000000000000000000000000000000000000000000000000600052601160045260246000fd5b60006200020b82620001c5565b91506200021883620001c5565b9250828201905080821115620002335762000232620001cf565b5b92915050565b600081519050919050565b7f4e487b7100000000000000000000000000000000000000000000000000000000600052604160045260246000fd5b7f4e487b7100000000000000000000000000000000000000000000000000000000600052602260045260246000fd5b60006002820490506001821680620002bb57607f821691505b602082108103620002d157620002d062000273565b5b50919050565b60008190508160005260206000209050919050565b60006020601f8301049050919050565b600082821b905092915050565b6000600883026200033b7fffffffffffffffffffffffffffffffffffffffffffffffffffffffffffffffff82620002fc565b620003478683620002fc565b95508019841693508086168417925050509392505050565b6000819050919050565b60006200038a620003846200037e84620001c5565b6200035f565b620001c5565b9050919050565b6000819050919050565b620003a68362000369565b620003be620003b58262000391565b84845462000309565b825550505050565b600090565b620003d5620003c6565b620003e28184846200039b565b505050565b5b818110156200040a57620003fe600082620003cb565b600181019050620003e8565b5050565b601f82111562000459576200042381620002d7565b6200042e84620002ec565b810160208510156200043e578190505b620004566200044d85620002ec565b830182620003e7565b50505b505050565b600082821c905092915050565b60006200047e600019846008026200045e565b1980831691505092915050565b60006200049983836200046b565b9150826002028217905092915050565b620004b48262000239565b67ffffffffffffffff811115620004d057620004cf62000244565b5b620004dc8254620002a2565b620004e98282856200040e565b600060209050601f8311600181146200052157600084156200050c578287015190505b6200051885826200048b565b86555062000588565b601f1984166200053186620002d7565b60005b828110156200055b5784890151825560018201915060208501945060208101905062000534565b868310156200057b578489015162000577601f8916826200046b565b8355505b6001600288020188555050505b505050505050565b610e3880620005a06000396000f3fe60806040526004361061009c5760003560e01c80638fa8b790116100645780638fa8b7901461018a57806391f90157146101a1578063c623674f146101cc578063ecfc7ecc146101f7578063f5b56c5614610201578063f77282ab1461022c5761009c565b8063083c6323146100a157806348cd4cb1146100cc57806362ea82db146100f75780637fb45099146101345780638da5cb5b1461015f575b600080fd5b3480156100ad57600080fd5b506100b6610243565b6040516100c39190610ae0565b60405180910390f35b3480156100d857600080fd5b506100e1610249565b6040516100ee9190610ae0565b60405180910390f35b34801561010357600080fd5b5061011e60048036038101906101199190610b5e565b61024f565b60405161012b9190610ae0565b60405180910390f35b34801561014057600080fd5b50610149610267565b6040516101569190610c02565b60405180910390f35b34801561016b57600080fd5b5061017461027a565b6040516101819190610c3e565b60405180910390f35b34801561019657600080fd5b5061019f61029e565b005b3480156101ad57600080fd5b506101b6610323565b6040516101c39190610c3e565b60405180910390f35b3480156101d857600080fd5b506101e1610349565b6040516101ee9190610ce9565b60405180910390f35b6101ff6103d7565b005b34801561020d57600080fd5b506102166106ea565b6040516102239190610ae0565b60405180910390f35b34801561023857600080fd5b506102416106f0565b005b60025481565b60015481565b60076020528060005260406000206000915090505481565b600460009054906101000a900460ff1681565b60008054906101000a900473ffffffffffffffffffffffffffffffffffffffff1681565b60008054906101000a900473ffffffffffffffffffffffffffffffffffffffff1673ffffffffffffffffffffffffffffffffffffffff163373ffffffffffffffffffffffffffffffffffffffff16146102f657600080fd5b6003600460006101000a81548160ff0219169083600381111561031c5761031b610b8b565b5b0217905550565b600660009054906101000a900473ffffffffffffffffffffffffffffffffffffffff1681565b6003805461035690610d3a565b80601f016020809104026020016040519081016040528092919081815260200182805461038290610d3a565b80156103cf5780601f106103a4576101008083540402835291602001916103cf565b820191906000526020600020905b8154815290600101906020018083116103b257829003601f168201915b505050505081565b60008054906101000a900473ffffffffffffffffffffffffffffffffffffffff1673ffffffffffffffffffffffffffffffffffffffff163373ffffffffffffffffffffffffffffffffffffffff160361042f57600080fd5b60015443101561043e57600080fd5b60025443111561044d57600080fd5b6001600381111561046157610460610b8b565b5b600460009054906101000a900460ff16600381111561048357610482610b8b565b5b1461048d57600080fd5b606434101561049b57600080fd5b600034600760003373ffffffffffffffffffffffffffffffffffffffff1673ffffffffffffffffffffffffffffffffffffffff168152602001908152602001600020546104e89190610d9a565b905060055481116104f857600080fd5b80600760003373ffffffffffffffffffffffffffffffffffffffff1673ffffffffffffffffffffffffffffffffffffffff1681526020019081526020016000208190555060076000600660009054906101000a900473ffffffffffffffffffffffffffffffffffffffff1673ffffffffffffffffffffffffffffffffffffffff1673ffffffffffffffffffffffffffffffffffffffff1681526020019081526020016000205481116106275761061c600854826105b59190610d9a565b60076000600660009054906101000a900473ffffffffffffffffffffffffffffffffffffffff1673ffffffffffffffffffffffffffffffffffffffff1673ffffffffffffffffffffffffffffffffffffffff16815260200190815260200160002054610aac565b6005819055506106e7565b61069f8160085460076000600660009054906101000a900473ffffffffffffffffffffffffffffffffffffffff1673ffffffffffffffffffffffffffffffffffffffff1673ffffffffffffffffffffffffffffffffffffffff1681526020019081526020016000205461069a9190610d9a565b610aac565b60058190555033600660006101000a81548173ffffffffffffffffffffffffffffffffffffffff021916908373ffffffffffffffffffffffffffffffffffffffff1602179055505b50565b60055481565b60038081111561070357610702610b8b565b5b600460009054906101000a900460ff16600381111561072557610724610b8b565b5b1480610732575060025443115b61073b57600080fd5b60008054906101000a900473ffffffffffffffffffffffffffffffffffffffff1673ffffffffffffffffffffffffffffffffffffffff163373ffffffffffffffffffffffffffffffffffffffff1614806107d457506000600760003373ffffffffffffffffffffffffffffffffffffffff1673ffffffffffffffffffffffffffffffffffffffff16815260200190815260200160002054115b6107dd57600080fd5b6000806003808111156107f3576107f2610b8b565b5b600460009054906101000a900460ff16600381111561081557610814610b8b565b5b0361086457339150600760003373ffffffffffffffffffffffffffffffffffffffff1673ffffffffffffffffffffffffffffffffffffffff168152602001908152602001600020549050610a1c565b60008054906101000a900473ffffffffffffffffffffffffffffffffffffffff1673ffffffffffffffffffffffffffffffffffffffff163373ffffffffffffffffffffffffffffffffffffffff16036108e45760008054906101000a900473ffffffffffffffffffffffffffffffffffffffff1691506005549050610a1b565b600660009054906101000a900473ffffffffffffffffffffffffffffffffffffffff1673ffffffffffffffffffffffffffffffffffffffff163373ffffffffffffffffffffffffffffffffffffffff16036109d457600660009054906101000a900473ffffffffffffffffffffffffffffffffffffffff16915060055460076000600660009054906101000a900473ffffffffffffffffffffffffffffffffffffffff1673ffffffffffffffffffffffffffffffffffffffff1673ffffffffffffffffffffffffffffffffffffffff168152602001908152602001600020546109cd9190610dce565b9050610a1a565b339150600760003373ffffffffffffffffffffffffffffffffffffffff1673ffffffffffffffffffffffffffffffffffffffff1681526020019081526020016000205490505b5b5b6000600760008473ffffffffffffffffffffffffffffffffffffffff1673ffffffffffffffffffffffffffffffffffffffff168152602001908152602001600020819055508173ffffffffffffffffffffffffffffffffffffffff166108fc829081150290604051600060405180830381858888f19350505050158015610aa7573d6000803e3d6000fd5b505050565b6000818311610abd57829050610ac1565b8190505b92915050565b6000819050919050565b610ada81610ac7565b82525050565b6000602082019050610af56000830184610ad1565b92915050565b600080fd5b600073ffffffffffffffffffffffffffffffffffffffff82169050919050565b6000610b2b82610b00565b9050919050565b610b3b81610b20565b8114610b4657600080fd5b50565b600081359050610b5881610b32565b92915050565b600060208284031215610b7457610b73610afb565b5b6000610b8284828501610b49565b91505092915050565b7f4e487b7100000000000000000000000000000000000000000000000000000000600052602160045260246000fd5b60048110610bcb57610bca610b8b565b5b50565b6000819050610bdc82610bba565b919050565b6000610bec82610bce565b9050919050565b610bfc81610be1565b82525050565b6000602082019050610c176000830184610bf3565b92915050565b6000610c2882610b00565b9050919050565b610c3881610c1d565b82525050565b6000602082019050610c536000830184610c2f565b92915050565b600081519050919050565b600082825260208201905092915050565b60005b83811015610c93578082015181840152602081019050610c78565b60008484015250505050565b6000601f19601f8301169050919050565b6000610cbb82610c59565b610cc58185610c64565b9350610cd5818560208601610c75565b610cde81610c9f565b840191505092915050565b60006020820190508181036000830152610d038184610cb0565b905092915050565b7f4e487b7100000000000000000000000000000000000000000000000000000000600052602260045260246000fd5b60006002820490506001821680610d5257607f821691505b602082108103610d6557610d64610d0b565b5b50919050565b7f4e487b7100000000000000000000000000000000000000000000000000000000600052601160045260246000fd5b6000610da582610ac7565b9150610db083610ac7565b9250828201905080821115610dc857610dc7610d6b565b5b92915050565b6000610dd982610ac7565b9150610de483610ac7565b9250828203905081811115610dfc57610dfb610d6b565b5b9291505056fea26469706673582212208c98ddc391dd56c621e2c754dcf6bfeb8db232656b8dfdb1d6b71abc2a59b44a64736f6c63430008120033a264697066735822122055201b4dc4b9b293c84d5e90992d519e57e28eaa92cea1f6e4f5c460d7dd04b864736f6c63430008120033",
					"opcodes": "PUSH1 0x80 PUSH1 0x40 MSTORE CALLVALUE DUP1 ISZERO PUSH2 0x10 JUMPI PUSH1 0x0 DUP1 REVERT JUMPDEST POP PUSH2 0x16DC DUP1 PUSH2 0x20 PUSH1 0x0 CODECOPY PUSH1 0x0 RETURN INVALID PUSH1 0x80 PUSH1 0x40 MSTORE CALLVALUE DUP1 ISZERO PUSH3 0x11 JUMPI PUSH1 0x0 DUP1 REVERT JUMPDEST POP PUSH1 0x4 CALLDATASIZE LT PUSH3 0x3A JUMPI PUSH1 0x0 CALLDATALOAD PUSH1 0xE0 SHR DUP1 PUSH4 0x571A26A0 EQ PUSH3 0x3F JUMPI DUP1 PUSH4 0xF5811447 EQ PUSH3 0x75 JUMPI JUMPDEST PUSH1 0x0 DUP1 REVERT JUMPDEST PUSH3 0x5D PUSH1 0x4 DUP1 CALLDATASIZE SUB DUP2 ADD SWAP1 PUSH3 0x57 SWAP2 SWAP1 PUSH3 0x1B2 JUMP JUMPDEST PUSH3 0x81 JUMP JUMPDEST PUSH1 0x40 MLOAD PUSH3 0x6C SWAP2 SWAP1 PUSH3 0x26F JUMP JUMPDEST PUSH1 0x40 MLOAD DUP1 SWAP2 SUB SWAP1 RETURN JUMPDEST PUSH3 0x7F PUSH3 0xC1 JUMP JUMPDEST STOP JUMPDEST PUSH1 0x0 DUP2 DUP2 SLOAD DUP2 LT PUSH3 0x92 JUMPI PUSH1 0x0 DUP1 REVERT JUMPDEST SWAP1 PUSH1 0x0 MSTORE PUSH1 0x20 PUSH1 0x0 KECCAK256 ADD PUSH1 0x0 SWAP2 POP SLOAD SWAP1 PUSH2 0x100 EXP SWAP1 DIV PUSH20 0xFFFFFFFFFFFFFFFFFFFFFFFFFFFFFFFFFFFFFFFF AND DUP2 JUMP JUMPDEST PUSH1 0x0 CALLER PUSH1 0x40 MLOAD PUSH3 0xD2 SWAP1 PUSH3 0x164 JUMP JUMPDEST PUSH3 0xDE SWAP2 SWAP1 PUSH3 0x2B1 JUMP JUMPDEST PUSH1 0x40 MLOAD DUP1 SWAP2 SUB SWAP1 PUSH1 0x0 CREATE DUP1 ISZERO DUP1 ISZERO PUSH3 0xFB JUMPI RETURNDATASIZE PUSH1 0x0 DUP1 RETURNDATACOPY RETURNDATASIZE PUSH1 0x0 REVERT JUMPDEST POP SWAP1 POP PUSH1 0x0 DUP2 SWAP1 DUP1 PUSH1 0x1 DUP2 SLOAD ADD DUP1 DUP3 SSTORE DUP1 SWAP2 POP POP PUSH1 0x1 SWAP1 SUB SWAP1 PUSH1 0x0 MSTORE PUSH1 0x20 PUSH1 0x0 KECCAK256 ADD PUSH1 0x0 SWAP1 SWAP2 SWAP1 SWAP2 SWAP1 SWAP2 PUSH2 0x100 EXP DUP2 SLOAD DUP2 PUSH20 0xFFFFFFFFFFFFFFFFFFFFFFFFFFFFFFFFFFFFFFFF MUL NOT AND SWAP1 DUP4 PUSH20 0xFFFFFFFFFFFFFFFFFFFFFFFFFFFFFFFFFFFFFFFF AND MUL OR SWAP1 SSTORE POP POP JUMP JUMPDEST PUSH2 0x13D8 DUP1 PUSH3 0x2CF DUP4 CODECOPY ADD SWAP1 JUMP JUMPDEST PUSH1 0x0 DUP1 REVERT JUMPDEST PUSH1 0x0 DUP2 SWAP1 POP SWAP2 SWAP1 POP JUMP JUMPDEST PUSH3 0x18C DUP2 PUSH3 0x177 JUMP JUMPDEST DUP2 EQ PUSH3 0x198 JUMPI PUSH1 0x0 DUP1 REVERT JUMPDEST POP JUMP JUMPDEST PUSH1 0x0 DUP2 CALLDATALOAD SWAP1 POP PUSH3 0x1AC DUP2 PUSH3 0x181 JUMP JUMPDEST SWAP3 SWAP2 POP POP JUMP JUMPDEST PUSH1 0x0 PUSH1 0x20 DUP3 DUP5 SUB SLT ISZERO PUSH3 0x1CB JUMPI PUSH3 0x1CA PUSH3 0x172 JUMP JUMPDEST JUMPDEST PUSH1 0x0 PUSH3 0x1DB DUP5 DUP3 DUP6 ADD PUSH3 0x19B JUMP JUMPDEST SWAP2 POP POP SWAP3 SWAP2 POP POP JUMP JUMPDEST PUSH1 0x0 PUSH20 0xFFFFFFFFFFFFFFFFFFFFFFFFFFFFFFFFFFFFFFFF DUP3 AND SWAP1 POP SWAP2 SWAP1 POP JUMP JUMPDEST PUSH1 0x0 DUP2 SWAP1 POP SWAP2 SWAP1 POP JUMP JUMPDEST PUSH1 0x0 PUSH3 0x22F PUSH3 0x229 PUSH3 0x223 DUP5 PUSH3 0x1E4 JUMP JUMPDEST PUSH3 0x204 JUMP JUMPDEST PUSH3 0x1E4 JUMP JUMPDEST SWAP1 POP SWAP2 SWAP1 POP JUMP JUMPDEST PUSH1 0x0 PUSH3 0x243 DUP3 PUSH3 0x20E JUMP JUMPDEST SWAP1 POP SWAP2 SWAP1 POP JUMP JUMPDEST PUSH1 0x0 PUSH3 0x257 DUP3 PUSH3 0x236 JUMP JUMPDEST SWAP1 POP SWAP2 SWAP1 POP JUMP JUMPDEST PUSH3 0x269 DUP2 PUSH3 0x24A JUMP JUMPDEST DUP3 MSTORE POP POP JUMP JUMPDEST PUSH1 0x0 PUSH1 0x20 DUP3 ADD SWAP1 POP PUSH3 0x286 PUSH1 0x0 DUP4 ADD DUP5 PUSH3 0x25E JUMP JUMPDEST SWAP3 SWAP2 POP POP JUMP JUMPDEST PUSH1 0x0 PUSH3 0x299 DUP3 PUSH3 0x1E4 JUMP JUMPDEST SWAP1 POP SWAP2 SWAP1 POP JUMP JUMPDEST PUSH3 0x2AB DUP2 PUSH3 0x28C JUMP JUMPDEST DUP3 MSTORE POP POP JUMP JUMPDEST PUSH1 0x0 PUSH1 0x20 DUP3 ADD SWAP1 POP PUSH3 0x2C8 PUSH1 0x0 DUP4 ADD DUP5 PUSH3 0x2A0 JUMP JUMPDEST SWAP3 SWAP2 POP POP JUMP INVALID PUSH1 0x80 PUSH1 0x40 MSTORE CALLVALUE DUP1 ISZERO PUSH3 0x11 JUMPI PUSH1 0x0 DUP1 REVERT JUMPDEST POP PUSH1 0x40 MLOAD PUSH3 0x13D8 CODESIZE SUB DUP1 PUSH3 0x13D8 DUP4 CODECOPY DUP2 DUP2 ADD PUSH1 0x40 MSTORE DUP2 ADD SWAP1 PUSH3 0x37 SWAP2 SWAP1 PUSH3 0x164 JUMP JUMPDEST DUP1 PUSH1 0x0 DUP1 PUSH2 0x100 EXP DUP2 SLOAD DUP2 PUSH20 0xFFFFFFFFFFFFFFFFFFFFFFFFFFFFFFFFFFFFFFFF MUL NOT AND SWAP1 DUP4 PUSH20 0xFFFFFFFFFFFFFFFFFFFFFFFFFFFFFFFFFFFFFFFF AND MUL OR SWAP1 SSTORE POP PUSH1 0x1 PUSH1 0x4 PUSH1 0x0 PUSH2 0x100 EXP DUP2 SLOAD DUP2 PUSH1 0xFF MUL NOT AND SWAP1 DUP4 PUSH1 0x3 DUP2 GT ISZERO PUSH3 0xA0 JUMPI PUSH3 0x9F PUSH3 0x196 JUMP JUMPDEST JUMPDEST MUL OR SWAP1 SSTORE POP NUMBER PUSH1 0x1 DUP2 SWAP1 SSTORE POP PUSH1 0x3 PUSH1 0x1 SLOAD PUSH3 0xBD SWAP2 SWAP1 PUSH3 0x1FE JUMP JUMPDEST PUSH1 0x2 DUP2 SWAP1 SSTORE POP PUSH1 0x40 MLOAD DUP1 PUSH1 0x20 ADD PUSH1 0x40 MSTORE DUP1 PUSH1 0x0 DUP2 MSTORE POP PUSH1 0x3 SWAP1 DUP2 PUSH3 0xE3 SWAP2 SWAP1 PUSH3 0x4A9 JUMP JUMPDEST POP PUSH8 0xDE0B6B3A7640000 PUSH1 0x8 DUP2 SWAP1 SSTORE POP POP PUSH3 0x590 JUMP JUMPDEST PUSH1 0x0 DUP1 REVERT JUMPDEST PUSH1 0x0 PUSH20 0xFFFFFFFFFFFFFFFFFFFFFFFFFFFFFFFFFFFFFFFF DUP3 AND SWAP1 POP SWAP2 SWAP1 POP JUMP JUMPDEST PUSH1 0x0 PUSH3 0x12C DUP3 PUSH3 0xFF JUMP JUMPDEST SWAP1 POP SWAP2 SWAP1 POP JUMP JUMPDEST PUSH3 0x13E DUP2 PUSH3 0x11F JUMP JUMPDEST DUP2 EQ PUSH3 0x14A JUMPI PUSH1 0x0 DUP1 REVERT JUMPDEST POP JUMP JUMPDEST PUSH1 0x0 DUP2 MLOAD SWAP1 POP PUSH3 0x15E DUP2 PUSH3 0x133 JUMP JUMPDEST SWAP3 SWAP2 POP POP JUMP JUMPDEST PUSH1 0x0 PUSH1 0x20 DUP3 DUP5 SUB SLT ISZERO PUSH3 0x17D JUMPI PUSH3 0x17C PUSH3 0xFA JUMP JUMPDEST JUMPDEST PUSH1 0x0 PUSH3 0x18D DUP5 DUP3 DUP6 ADD PUSH3 0x14D JUMP JUMPDEST SWAP2 POP POP SWAP3 SWAP2 POP POP JUMP JUMPDEST PUSH32 0x4E487B7100000000000000000000000000000000000000000000000000000000 PUSH1 0x0 MSTORE PUSH1 0x21 PUSH1 0x4 MSTORE PUSH1 0x24 PUSH1 0x0 REVERT JUMPDEST PUSH1 0x0 DUP2 SWAP1 POP SWAP2 SWAP1 POP JUMP JUMPDEST PUSH32 0x4E487B7100000000000000000000000000000000000000000000000000000000 PUSH1 0x0 MSTORE PUSH1 0x11 PUSH1 0x4 MSTORE PUSH1 0x24 PUSH1 0x0 REVERT JUMPDEST PUSH1 0x0 PUSH3 0x20B DUP3 PUSH3 0x1C5 JUMP JUMPDEST SWAP2 POP PUSH3 0x218 DUP4 PUSH3 0x1C5 JUMP JUMPDEST SWAP3 POP DUP3 DUP3 ADD SWAP1 POP DUP1 DUP3 GT ISZERO PUSH3 0x233 JUMPI PUSH3 0x232 PUSH3 0x1CF JUMP JUMPDEST JUMPDEST SWAP3 SWAP2 POP POP JUMP JUMPDEST PUSH1 0x0 DUP2 MLOAD SWAP1 POP SWAP2 SWAP1 POP JUMP JUMPDEST PUSH32 0x4E487B7100000000000000000000000000000000000000000000000000000000 PUSH1 0x0 MSTORE PUSH1 0x41 PUSH1 0x4 MSTORE PUSH1 0x24 PUSH1 0x0 REVERT JUMPDEST PUSH32 0x4E487B7100000000000000000000000000000000000000000000000000000000 PUSH1 0x0 MSTORE PUSH1 0x22 PUSH1 0x4 MSTORE PUSH1 0x24 PUSH1 0x0 REVERT JUMPDEST PUSH1 0x0 PUSH1 0x2 DUP3 DIV SWAP1 POP PUSH1 0x1 DUP3 AND DUP1 PUSH3 0x2BB JUMPI PUSH1 0x7F DUP3 AND SWAP2 POP JUMPDEST PUSH1 0x20 DUP3 LT DUP2 SUB PUSH3 0x2D1 JUMPI PUSH3 0x2D0 PUSH3 0x273 JUMP JUMPDEST JUMPDEST POP SWAP2 SWAP1 POP JUMP JUMPDEST PUSH1 0x0 DUP2 SWAP1 POP DUP2 PUSH1 0x0 MSTORE PUSH1 0x20 PUSH1 0x0 KECCAK256 SWAP1 POP SWAP2 SWAP1 POP JUMP JUMPDEST PUSH1 0x0 PUSH1 0x20 PUSH1 0x1F DUP4 ADD DIV SWAP1 POP SWAP2 SWAP1 POP JUMP JUMPDEST PUSH1 0x0 DUP3 DUP3 SHL SWAP1 POP SWAP3 SWAP2 POP POP JUMP JUMPDEST PUSH1 0x0 PUSH1 0x8 DUP4 MUL PUSH3 0x33B PUSH32 0xFFFFFFFFFFFFFFFFFFFFFFFFFFFFFFFFFFFFFFFFFFFFFFFFFFFFFFFFFFFFFFFF DUP3 PUSH3 0x2FC JUMP JUMPDEST PUSH3 0x347 DUP7 DUP4 PUSH3 0x2FC JUMP JUMPDEST SWAP6 POP DUP1 NOT DUP5 AND SWAP4 POP DUP1 DUP7 AND DUP5 OR SWAP3 POP POP POP SWAP4 SWAP3 POP POP POP JUMP JUMPDEST PUSH1 0x0 DUP2 SWAP1 POP SWAP2 SWAP1 POP JUMP JUMPDEST PUSH1 0x0 PUSH3 0x38A PUSH3 0x384 PUSH3 0x37E DUP5 PUSH3 0x1C5 JUMP JUMPDEST PUSH3 0x35F JUMP JUMPDEST PUSH3 0x1C5 JUMP JUMPDEST SWAP1 POP SWAP2 SWAP1 POP JUMP JUMPDEST PUSH1 0x0 DUP2 SWAP1 POP SWAP2 SWAP1 POP JUMP JUMPDEST PUSH3 0x3A6 DUP4 PUSH3 0x369 JUMP JUMPDEST PUSH3 0x3BE PUSH3 0x3B5 DUP3 PUSH3 0x391 JUMP JUMPDEST DUP5 DUP5 SLOAD PUSH3 0x309 JUMP JUMPDEST DUP3 SSTORE POP POP POP POP JUMP JUMPDEST PUSH1 0x0 SWAP1 JUMP JUMPDEST PUSH3 0x3D5 PUSH3 0x3C6 JUMP JUMPDEST PUSH3 0x3E2 DUP2 DUP5 DUP5 PUSH3 0x39B JUMP JUMPDEST POP POP POP JUMP JUMPDEST JUMPDEST DUP2 DUP2 LT ISZERO PUSH3 0x40A JUMPI PUSH3 0x3FE PUSH1 0x0 DUP3 PUSH3 0x3CB JUMP JUMPDEST PUSH1 0x1 DUP2 ADD SWAP1 POP PUSH3 0x3E8 JUMP JUMPDEST POP POP JUMP JUMPDEST PUSH1 0x1F DUP3 GT ISZERO PUSH3 0x459 JUMPI PUSH3 0x423 DUP2 PUSH3 0x2D7 JUMP JUMPDEST PUSH3 0x42E DUP5 PUSH3 0x2EC JUMP JUMPDEST DUP2 ADD PUSH1 0x20 DUP6 LT ISZERO PUSH3 0x43E JUMPI DUP2 SWAP1 POP JUMPDEST PUSH3 0x456 PUSH3 0x44D DUP6 PUSH3 0x2EC JUMP JUMPDEST DUP4 ADD DUP3 PUSH3 0x3E7 JUMP JUMPDEST POP POP JUMPDEST POP POP POP JUMP JUMPDEST PUSH1 0x0 DUP3 DUP3 SHR SWAP1 POP SWAP3 SWAP2 POP POP JUMP JUMPDEST PUSH1 0x0 PUSH3 0x47E PUSH1 0x0 NOT DUP5 PUSH1 0x8 MUL PUSH3 0x45E JUMP JUMPDEST NOT DUP1 DUP4 AND SWAP2 POP POP SWAP3 SWAP2 POP POP JUMP JUMPDEST PUSH1 0x0 PUSH3 0x499 DUP4 DUP4 PUSH3 0x46B JUMP JUMPDEST SWAP2 POP DUP3 PUSH1 0x2 MUL DUP3 OR SWAP1 POP SWAP3 SWAP2 POP POP JUMP JUMPDEST PUSH3 0x4B4 DUP3 PUSH3 0x239 JUMP JUMPDEST PUSH8 0xFFFFFFFFFFFFFFFF DUP2 GT ISZERO PUSH3 0x4D0 JUMPI PUSH3 0x4CF PUSH3 0x244 JUMP JUMPDEST JUMPDEST PUSH3 0x4DC DUP3 SLOAD PUSH3 0x2A2 JUMP JUMPDEST PUSH3 0x4E9 DUP3 DUP3 DUP6 PUSH3 0x40E JUMP JUMPDEST PUSH1 0x0 PUSH1 0x20 SWAP1 POP PUSH1 0x1F DUP4 GT PUSH1 0x1 DUP2 EQ PUSH3 0x521 JUMPI PUSH1 0x0 DUP5 ISZERO PUSH3 0x50C JUMPI DUP3 DUP8 ADD MLOAD SWAP1 POP JUMPDEST PUSH3 0x518 DUP6 DUP3 PUSH3 0x48B JUMP JUMPDEST DUP7 SSTORE POP PUSH3 0x588 JUMP JUMPDEST PUSH1 0x1F NOT DUP5 AND PUSH3 0x531 DUP7 PUSH3 0x2D7 JUMP JUMPDEST PUSH1 0x0 JUMPDEST DUP3 DUP2 LT ISZERO PUSH3 0x55B JUMPI DUP5 DUP10 ADD MLOAD DUP3 SSTORE PUSH1 0x1 DUP3 ADD SWAP2 POP PUSH1 0x20 DUP6 ADD SWAP5 POP PUSH1 0x20 DUP2 ADD SWAP1 POP PUSH3 0x534 JUMP JUMPDEST DUP7 DUP4 LT ISZERO PUSH3 0x57B JUMPI DUP5 DUP10 ADD MLOAD PUSH3 0x577 PUSH1 0x1F DUP10 AND DUP3 PUSH3 0x46B JUMP JUMPDEST DUP4 SSTORE POP JUMPDEST PUSH1 0x1 PUSH1 0x2 DUP9 MUL ADD DUP9 SSTORE POP POP POP JUMPDEST POP POP POP POP POP POP JUMP JUMPDEST PUSH2 0xE38 DUP1 PUSH3 0x5A0 PUSH1 0x0 CODECOPY PUSH1 0x0 RETURN INVALID PUSH1 0x80 PUSH1 0x40 MSTORE PUSH1 0x4 CALLDATASIZE LT PUSH2 0x9C JUMPI PUSH1 0x0 CALLDATALOAD PUSH1 0xE0 SHR DUP1 PUSH4 0x8FA8B790 GT PUSH2 0x64 JUMPI DUP1 PUSH4 0x8FA8B790 EQ PUSH2 0x18A JUMPI DUP1 PUSH4 0x91F90157 EQ PUSH2 0x1A1 JUMPI DUP1 PUSH4 0xC623674F EQ PUSH2 0x1CC JUMPI DUP1 PUSH4 0xECFC7ECC EQ PUSH2 0x1F7 JUMPI DUP1 PUSH4 0xF5B56C56 EQ PUSH2 0x201 JUMPI DUP1 PUSH4 0xF77282AB EQ PUSH2 0x22C JUMPI PUSH2 0x9C JUMP JUMPDEST DUP1 PUSH4 0x83C6323 EQ PUSH2 0xA1 JUMPI DUP1 PUSH4 0x48CD4CB1 EQ PUSH2 0xCC JUMPI DUP1 PUSH4 0x62EA82DB EQ PUSH2 0xF7 JUMPI DUP1 PUSH4 0x7FB45099 EQ PUSH2 0x134 JUMPI DUP1 PUSH4 0x8DA5CB5B EQ PUSH2 0x15F JUMPI JUMPDEST PUSH1 0x0 DUP1 REVERT JUMPDEST CALLVALUE DUP1 ISZERO PUSH2 0xAD JUMPI PUSH1 0x0 DUP1 REVERT JUMPDEST POP PUSH2 0xB6 PUSH2 0x243 JUMP JUMPDEST PUSH1 0x40 MLOAD PUSH2 0xC3 SWAP2 SWAP1 PUSH2 0xAE0 JUMP JUMPDEST PUSH1 0x40 MLOAD DUP1 SWAP2 SUB SWAP1 RETURN JUMPDEST CALLVALUE DUP1 ISZERO PUSH2 0xD8 JUMPI PUSH1 0x0 DUP1 REVERT JUMPDEST POP PUSH2 0xE1 PUSH2 0x249 JUMP JUMPDEST PUSH1 0x40 MLOAD PUSH2 0xEE SWAP2 SWAP1 PUSH2 0xAE0 JUMP JUMPDEST PUSH1 0x40 MLOAD DUP1 SWAP2 SUB SWAP1 RETURN JUMPDEST CALLVALUE DUP1 ISZERO PUSH2 0x103 JUMPI PUSH1 0x0 DUP1 REVERT JUMPDEST POP PUSH2 0x11E PUSH1 0x4 DUP1 CALLDATASIZE SUB DUP2 ADD SWAP1 PUSH2 0x119 SWAP2 SWAP1 PUSH2 0xB5E JUMP JUMPDEST PUSH2 0x24F JUMP JUMPDEST PUSH1 0x40 MLOAD PUSH2 0x12B SWAP2 SWAP1 PUSH2 0xAE0 JUMP JUMPDEST PUSH1 0x40 MLOAD DUP1 SWAP2 SUB SWAP1 RETURN JUMPDEST CALLVALUE DUP1 ISZERO PUSH2 0x140 JUMPI PUSH1 0x0 DUP1 REVERT JUMPDEST POP PUSH2 0x149 PUSH2 0x267 JUMP JUMPDEST PUSH1 0x40 MLOAD PUSH2 0x156 SWAP2 SWAP1 PUSH2 0xC02 JUMP JUMPDEST PUSH1 0x40 MLOAD DUP1 SWAP2 SUB SWAP1 RETURN JUMPDEST CALLVALUE DUP1 ISZERO PUSH2 0x16B JUMPI PUSH1 0x0 DUP1 REVERT JUMPDEST POP PUSH2 0x174 PUSH2 0x27A JUMP JUMPDEST PUSH1 0x40 MLOAD PUSH2 0x181 SWAP2 SWAP1 PUSH2 0xC3E JUMP JUMPDEST PUSH1 0x40 MLOAD DUP1 SWAP2 SUB SWAP1 RETURN JUMPDEST CALLVALUE DUP1 ISZERO PUSH2 0x196 JUMPI PUSH1 0x0 DUP1 REVERT JUMPDEST POP PUSH2 0x19F PUSH2 0x29E JUMP JUMPDEST STOP JUMPDEST CALLVALUE DUP1 ISZERO PUSH2 0x1AD JUMPI PUSH1 0x0 DUP1 REVERT JUMPDEST POP PUSH2 0x1B6 PUSH2 0x323 JUMP JUMPDEST PUSH1 0x40 MLOAD PUSH2 0x1C3 SWAP2 SWAP1 PUSH2 0xC3E JUMP JUMPDEST PUSH1 0x40 MLOAD DUP1 SWAP2 SUB SWAP1 RETURN JUMPDEST CALLVALUE DUP1 ISZERO PUSH2 0x1D8 JUMPI PUSH1 0x0 DUP1 REVERT JUMPDEST POP PUSH2 0x1E1 PUSH2 0x349 JUMP JUMPDEST PUSH1 0x40 MLOAD PUSH2 0x1EE SWAP2 SWAP1 PUSH2 0xCE9 JUMP JUMPDEST PUSH1 0x40 MLOAD DUP1 SWAP2 SUB SWAP1 RETURN JUMPDEST PUSH2 0x1FF PUSH2 0x3D7 JUMP JUMPDEST STOP JUMPDEST CALLVALUE DUP1 ISZERO PUSH2 0x20D JUMPI PUSH1 0x0 DUP1 REVERT JUMPDEST POP PUSH2 0x216 PUSH2 0x6EA JUMP JUMPDEST PUSH1 0x40 MLOAD PUSH2 0x223 SWAP2 SWAP1 PUSH2 0xAE0 JUMP JUMPDEST PUSH1 0x40 MLOAD DUP1 SWAP2 SUB SWAP1 RETURN JUMPDEST CALLVALUE DUP1 ISZERO PUSH2 0x238 JUMPI PUSH1 0x0 DUP1 REVERT JUMPDEST POP PUSH2 0x241 PUSH2 0x6F0 JUMP JUMPDEST STOP JUMPDEST PUSH1 0x2 SLOAD DUP2 JUMP JUMPDEST PUSH1 0x1 SLOAD DUP2 JUMP JUMPDEST PUSH1 0x7 PUSH1 0x20 MSTORE DUP1 PUSH1 0x0 MSTORE PUSH1 0x40 PUSH1 0x0 KECCAK256 PUSH1 0x0 SWAP2 POP SWAP1 POP SLOAD DUP2 JUMP JUMPDEST PUSH1 0x4 PUSH1 0x0 SWAP1 SLOAD SWAP1 PUSH2 0x100 EXP SWAP1 DIV PUSH1 0xFF AND DUP2 JUMP JUMPDEST PUSH1 0x0 DUP1 SLOAD SWAP1 PUSH2 0x100 EXP SWAP1 DIV PUSH20 0xFFFFFFFFFFFFFFFFFFFFFFFFFFFFFFFFFFFFFFFF AND DUP2 JUMP JUMPDEST PUSH1 0x0 DUP1 SLOAD SWAP1 PUSH2 0x100 EXP SWAP1 DIV PUSH20 0xFFFFFFFFFFFFFFFFFFFFFFFFFFFFFFFFFFFFFFFF AND PUSH20 0xFFFFFFFFFFFFFFFFFFFFFFFFFFFFFFFFFFFFFFFF AND CALLER PUSH20 0xFFFFFFFFFFFFFFFFFFFFFFFFFFFFFFFFFFFFFFFF AND EQ PUSH2 0x2F6 JUMPI PUSH1 0x0 DUP1 REVERT JUMPDEST PUSH1 0x3 PUSH1 0x4 PUSH1 0x0 PUSH2 0x100 EXP DUP2 SLOAD DUP2 PUSH1 0xFF MUL NOT AND SWAP1 DUP4 PUSH1 0x3 DUP2 GT ISZERO PUSH2 0x31C JUMPI PUSH2 0x31B PUSH2 0xB8B JUMP JUMPDEST JUMPDEST MUL OR SWAP1 SSTORE POP JUMP JUMPDEST PUSH1 0x6 PUSH1 0x0 SWAP1 SLOAD SWAP1 PUSH2 0x100 EXP SWAP1 DIV PUSH20 0xFFFFFFFFFFFFFFFFFFFFFFFFFFFFFFFFFFFFFFFF AND DUP2 JUMP JUMPDEST PUSH1 0x3 DUP1 SLOAD PUSH2 0x356 SWAP1 PUSH2 0xD3A JUMP JUMPDEST DUP1 PUSH1 0x1F ADD PUSH1 0x20 DUP1 SWAP2 DIV MUL PUSH1 0x20 ADD PUSH1 0x40 MLOAD SWAP1 DUP2 ADD PUSH1 0x40 MSTORE DUP1 SWAP3 SWAP2 SWAP1 DUP2 DUP2 MSTORE PUSH1 0x20 ADD DUP3 DUP1 SLOAD PUSH2 0x382 SWAP1 PUSH2 0xD3A JUMP JUMPDEST DUP1 ISZERO PUSH2 0x3CF JUMPI DUP1 PUSH1 0x1F LT PUSH2 0x3A4 JUMPI PUSH2 0x100 DUP1 DUP4 SLOAD DIV MUL DUP4 MSTORE SWAP2 PUSH1 0x20 ADD SWAP2 PUSH2 0x3CF JUMP JUMPDEST DUP3 ADD SWAP2 SWAP1 PUSH1 0x0 MSTORE PUSH1 0x20 PUSH1 0x0 KECCAK256 SWAP1 JUMPDEST DUP2 SLOAD DUP2 MSTORE SWAP1 PUSH1 0x1 ADD SWAP1 PUSH1 0x20 ADD DUP1 DUP4 GT PUSH2 0x3B2 JUMPI DUP3 SWAP1 SUB PUSH1 0x1F AND DUP3 ADD SWAP2 JUMPDEST POP POP POP POP POP DUP2 JUMP JUMPDEST PUSH1 0x0 DUP1 SLOAD SWAP1 PUSH2 0x100 EXP SWAP1 DIV PUSH20 0xFFFFFFFFFFFFFFFFFFFFFFFFFFFFFFFFFFFFFFFF AND PUSH20 0xFFFFFFFFFFFFFFFFFFFFFFFFFFFFFFFFFFFFFFFF AND CALLER PUSH20 0xFFFFFFFFFFFFFFFFFFFFFFFFFFFFFFFFFFFFFFFF AND SUB PUSH2 0x42F JUMPI PUSH1 0x0 DUP1 REVERT JUMPDEST PUSH1 0x1 SLOAD NUMBER LT ISZERO PUSH2 0x43E JUMPI PUSH1 0x0 DUP1 REVERT JUMPDEST PUSH1 0x2 SLOAD NUMBER GT ISZERO PUSH2 0x44D JUMPI PUSH1 0x0 DUP1 REVERT JUMPDEST PUSH1 0x1 PUSH1 0x3 DUP2 GT ISZERO PUSH2 0x461 JUMPI PUSH2 0x460 PUSH2 0xB8B JUMP JUMPDEST JUMPDEST PUSH1 0x4 PUSH1 0x0 SWAP1 SLOAD SWAP1 PUSH2 0x100 EXP SWAP1 DIV PUSH1 0xFF AND PUSH1 0x3 DUP2 GT ISZERO PUSH2 0x483 JUMPI PUSH2 0x482 PUSH2 0xB8B JUMP JUMPDEST JUMPDEST EQ PUSH2 0x48D JUMPI PUSH1 0x0 DUP1 REVERT JUMPDEST PUSH1 0x64 CALLVALUE LT ISZERO PUSH2 0x49B JUMPI PUSH1 0x0 DUP1 REVERT JUMPDEST PUSH1 0x0 CALLVALUE PUSH1 0x7 PUSH1 0x0 CALLER PUSH20 0xFFFFFFFFFFFFFFFFFFFFFFFFFFFFFFFFFFFFFFFF AND PUSH20 0xFFFFFFFFFFFFFFFFFFFFFFFFFFFFFFFFFFFFFFFF AND DUP2 MSTORE PUSH1 0x20 ADD SWAP1 DUP2 MSTORE PUSH1 0x20 ADD PUSH1 0x0 KECCAK256 SLOAD PUSH2 0x4E8 SWAP2 SWAP1 PUSH2 0xD9A JUMP JUMPDEST SWAP1 POP PUSH1 0x5 SLOAD DUP2 GT PUSH2 0x4F8 JUMPI PUSH1 0x0 DUP1 REVERT JUMPDEST DUP1 PUSH1 0x7 PUSH1 0x0 CALLER PUSH20 0xFFFFFFFFFFFFFFFFFFFFFFFFFFFFFFFFFFFFFFFF AND PUSH20 0xFFFFFFFFFFFFFFFFFFFFFFFFFFFFFFFFFFFFFFFF AND DUP2 MSTORE PUSH1 0x20 ADD SWAP1 DUP2 MSTORE PUSH1 0x20 ADD PUSH1 0x0 KECCAK256 DUP2 SWAP1 SSTORE POP PUSH1 0x7 PUSH1 0x0 PUSH1 0x6 PUSH1 0x0 SWAP1 SLOAD SWAP1 PUSH2 0x100 EXP SWAP1 DIV PUSH20 0xFFFFFFFFFFFFFFFFFFFFFFFFFFFFFFFFFFFFFFFF AND PUSH20 0xFFFFFFFFFFFFFFFFFFFFFFFFFFFFFFFFFFFFFFFF AND PUSH20 0xFFFFFFFFFFFFFFFFFFFFFFFFFFFFFFFFFFFFFFFF AND DUP2 MSTORE PUSH1 0x20 ADD SWAP1 DUP2 MSTORE PUSH1 0x20 ADD PUSH1 0x0 KECCAK256 SLOAD DUP2 GT PUSH2 0x627 JUMPI PUSH2 0x61C PUSH1 0x8 SLOAD DUP3 PUSH2 0x5B5 SWAP2 SWAP1 PUSH2 0xD9A JUMP JUMPDEST PUSH1 0x7 PUSH1 0x0 PUSH1 0x6 PUSH1 0x0 SWAP1 SLOAD SWAP1 PUSH2 0x100 EXP SWAP1 DIV PUSH20 0xFFFFFFFFFFFFFFFFFFFFFFFFFFFFFFFFFFFFFFFF AND PUSH20 0xFFFFFFFFFFFFFFFFFFFFFFFFFFFFFFFFFFFFFFFF AND PUSH20 0xFFFFFFFFFFFFFFFFFFFFFFFFFFFFFFFFFFFFFFFF AND DUP2 MSTORE PUSH1 0x20 ADD SWAP1 DUP2 MSTORE PUSH1 0x20 ADD PUSH1 0x0 KECCAK256 SLOAD PUSH2 0xAAC JUMP JUMPDEST PUSH1 0x5 DUP2 SWAP1 SSTORE POP PUSH2 0x6E7 JUMP JUMPDEST PUSH2 0x69F DUP2 PUSH1 0x8 SLOAD PUSH1 0x7 PUSH1 0x0 PUSH1 0x6 PUSH1 0x0 SWAP1 SLOAD SWAP1 PUSH2 0x100 EXP SWAP1 DIV PUSH20 0xFFFFFFFFFFFFFFFFFFFFFFFFFFFFFFFFFFFFFFFF AND PUSH20 0xFFFFFFFFFFFFFFFFFFFFFFFFFFFFFFFFFFFFFFFF AND PUSH20 0xFFFFFFFFFFFFFFFFFFFFFFFFFFFFFFFFFFFFFFFF AND DUP2 MSTORE PUSH1 0x20 ADD SWAP1 DUP2 MSTORE PUSH1 0x20 ADD PUSH1 0x0 KECCAK256 SLOAD PUSH2 0x69A SWAP2 SWAP1 PUSH2 0xD9A JUMP JUMPDEST PUSH2 0xAAC JUMP JUMPDEST PUSH1 0x5 DUP2 SWAP1 SSTORE POP CALLER PUSH1 0x6 PUSH1 0x0 PUSH2 0x100 EXP DUP2 SLOAD DUP2 PUSH20 0xFFFFFFFFFFFFFFFFFFFFFFFFFFFFFFFFFFFFFFFF MUL NOT AND SWAP1 DUP4 PUSH20 0xFFFFFFFFFFFFFFFFFFFFFFFFFFFFFFFFFFFFFFFF AND MUL OR SWAP1 SSTORE POP JUMPDEST POP JUMP JUMPDEST PUSH1 0x5 SLOAD DUP2 JUMP JUMPDEST PUSH1 0x3 DUP1 DUP2 GT ISZERO PUSH2 0x703 JUMPI PUSH2 0x702 PUSH2 0xB8B JUMP JUMPDEST JUMPDEST PUSH1 0x4 PUSH1 0x0 SWAP1 SLOAD SWAP1 PUSH2 0x100 EXP SWAP1 DIV PUSH1 0xFF AND PUSH1 0x3 DUP2 GT ISZERO PUSH2 0x725 JUMPI PUSH2 0x724 PUSH2 0xB8B JUMP JUMPDEST JUMPDEST EQ DUP1 PUSH2 0x732 JUMPI POP PUSH1 0x2 SLOAD NUMBER GT JUMPDEST PUSH2 0x73B JUMPI PUSH1 0x0 DUP1 REVERT JUMPDEST PUSH1 0x0 DUP1 SLOAD SWAP1 PUSH2 0x100 EXP SWAP1 DIV PUSH20 0xFFFFFFFFFFFFFFFFFFFFFFFFFFFFFFFFFFFFFFFF AND PUSH20 0xFFFFFFFFFFFFFFFFFFFFFFFFFFFFFFFFFFFFFFFF AND CALLER PUSH20 0xFFFFFFFFFFFFFFFFFFFFFFFFFFFFFFFFFFFFFFFF AND EQ DUP1 PUSH2 0x7D4 JUMPI POP PUSH1 0x0 PUSH1 0x7 PUSH1 0x0 CALLER PUSH20 0xFFFFFFFFFFFFFFFFFFFFFFFFFFFFFFFFFFFFFFFF AND PUSH20 0xFFFFFFFFFFFFFFFFFFFFFFFFFFFFFFFFFFFFFFFF AND DUP2 MSTORE PUSH1 0x20 ADD SWAP1 DUP2 MSTORE PUSH1 0x20 ADD PUSH1 0x0 KECCAK256 SLOAD GT JUMPDEST PUSH2 0x7DD JUMPI PUSH1 0x0 DUP1 REVERT JUMPDEST PUSH1 0x0 DUP1 PUSH1 0x3 DUP1 DUP2 GT ISZERO PUSH2 0x7F3 JUMPI PUSH2 0x7F2 PUSH2 0xB8B JUMP JUMPDEST JUMPDEST PUSH1 0x4 PUSH1 0x0 SWAP1 SLOAD SWAP1 PUSH2 0x100 EXP SWAP1 DIV PUSH1 0xFF AND PUSH1 0x3 DUP2 GT ISZERO PUSH2 0x815 JUMPI PUSH2 0x814 PUSH2 0xB8B JUMP JUMPDEST JUMPDEST SUB PUSH2 0x864 JUMPI CALLER SWAP2 POP PUSH1 0x7 PUSH1 0x0 CALLER PUSH20 0xFFFFFFFFFFFFFFFFFFFFFFFFFFFFFFFFFFFFFFFF AND PUSH20 0xFFFFFFFFFFFFFFFFFFFFFFFFFFFFFFFFFFFFFFFF AND DUP2 MSTORE PUSH1 0x20 ADD SWAP1 DUP2 MSTORE PUSH1 0x20 ADD PUSH1 0x0 KECCAK256 SLOAD SWAP1 POP PUSH2 0xA1C JUMP JUMPDEST PUSH1 0x0 DUP1 SLOAD SWAP1 PUSH2 0x100 EXP SWAP1 DIV PUSH20 0xFFFFFFFFFFFFFFFFFFFFFFFFFFFFFFFFFFFFFFFF AND PUSH20 0xFFFFFFFFFFFFFFFFFFFFFFFFFFFFFFFFFFFFFFFF AND CALLER PUSH20 0xFFFFFFFFFFFFFFFFFFFFFFFFFFFFFFFFFFFFFFFF AND SUB PUSH2 0x8E4 JUMPI PUSH1 0x0 DUP1 SLOAD SWAP1 PUSH2 0x100 EXP SWAP1 DIV PUSH20 0xFFFFFFFFFFFFFFFFFFFFFFFFFFFFFFFFFFFFFFFF AND SWAP2 POP PUSH1 0x5 SLOAD SWAP1 POP PUSH2 0xA1B JUMP JUMPDEST PUSH1 0x6 PUSH1 0x0 SWAP1 SLOAD SWAP1 PUSH2 0x100 EXP SWAP1 DIV PUSH20 0xFFFFFFFFFFFFFFFFFFFFFFFFFFFFFFFFFFFFFFFF AND PUSH20 0xFFFFFFFFFFFFFFFFFFFFFFFFFFFFFFFFFFFFFFFF AND CALLER PUSH20 0xFFFFFFFFFFFFFFFFFFFFFFFFFFFFFFFFFFFFFFFF AND SUB PUSH2 0x9D4 JUMPI PUSH1 0x6 PUSH1 0x0 SWAP1 SLOAD SWAP1 PUSH2 0x100 EXP SWAP1 DIV PUSH20 0xFFFFFFFFFFFFFFFFFFFFFFFFFFFFFFFFFFFFFFFF AND SWAP2 POP PUSH1 0x5 SLOAD PUSH1 0x7 PUSH1 0x0 PUSH1 0x6 PUSH1 0x0 SWAP1 SLOAD SWAP1 PUSH2 0x100 EXP SWAP1 DIV PUSH20 0xFFFFFFFFFFFFFFFFFFFFFFFFFFFFFFFFFFFFFFFF AND PUSH20 0xFFFFFFFFFFFFFFFFFFFFFFFFFFFFFFFFFFFFFFFF AND PUSH20 0xFFFFFFFFFFFFFFFFFFFFFFFFFFFFFFFFFFFFFFFF AND DUP2 MSTORE PUSH1 0x20 ADD SWAP1 DUP2 MSTORE PUSH1 0x20 ADD PUSH1 0x0 KECCAK256 SLOAD PUSH2 0x9CD SWAP2 SWAP1 PUSH2 0xDCE JUMP JUMPDEST SWAP1 POP PUSH2 0xA1A JUMP JUMPDEST CALLER SWAP2 POP PUSH1 0x7 PUSH1 0x0 CALLER PUSH20 0xFFFFFFFFFFFFFFFFFFFFFFFFFFFFFFFFFFFFFFFF AND PUSH20 0xFFFFFFFFFFFFFFFFFFFFFFFFFFFFFFFFFFFFFFFF AND DUP2 MSTORE PUSH1 0x20 ADD SWAP1 DUP2 MSTORE PUSH1 0x20 ADD PUSH1 0x0 KECCAK256 SLOAD SWAP1 POP JUMPDEST JUMPDEST JUMPDEST PUSH1 0x0 PUSH1 0x7 PUSH1 0x0 DUP5 PUSH20 0xFFFFFFFFFFFFFFFFFFFFFFFFFFFFFFFFFFFFFFFF AND PUSH20 0xFFFFFFFFFFFFFFFFFFFFFFFFFFFFFFFFFFFFFFFF AND DUP2 MSTORE PUSH1 0x20 ADD SWAP1 DUP2 MSTORE PUSH1 0x20 ADD PUSH1 0x0 KECCAK256 DUP2 SWAP1 SSTORE POP DUP2 PUSH20 0xFFFFFFFFFFFFFFFFFFFFFFFFFFFFFFFFFFFFFFFF AND PUSH2 0x8FC DUP3 SWAP1 DUP2 ISZERO MUL SWAP1 PUSH1 0x40 MLOAD PUSH1 0x0 PUSH1 0x40 MLOAD DUP1 DUP4 SUB DUP2 DUP6 DUP9 DUP9 CALL SWAP4 POP POP POP POP ISZERO DUP1 ISZERO PUSH2 0xAA7 JUMPI RETURNDATASIZE PUSH1 0x0 DUP1 RETURNDATACOPY RETURNDATASIZE PUSH1 0x0 REVERT JUMPDEST POP POP POP JUMP JUMPDEST PUSH1 0x0 DUP2 DUP4 GT PUSH2 0xABD JUMPI DUP3 SWAP1 POP PUSH2 0xAC1 JUMP JUMPDEST DUP2 SWAP1 POP JUMPDEST SWAP3 SWAP2 POP POP JUMP JUMPDEST PUSH1 0x0 DUP2 SWAP1 POP SWAP2 SWAP1 POP JUMP JUMPDEST PUSH2 0xADA DUP2 PUSH2 0xAC7 JUMP JUMPDEST DUP3 MSTORE POP POP JUMP JUMPDEST PUSH1 0x0 PUSH1 0x20 DUP3 ADD SWAP1 POP PUSH2 0xAF5 PUSH1 0x0 DUP4 ADD DUP5 PUSH2 0xAD1 JUMP JUMPDEST SWAP3 SWAP2 POP POP JUMP JUMPDEST PUSH1 0x0 DUP1 REVERT JUMPDEST PUSH1 0x0 PUSH20 0xFFFFFFFFFFFFFFFFFFFFFFFFFFFFFFFFFFFFFFFF DUP3 AND SWAP1 POP SWAP2 SWAP1 POP JUMP JUMPDEST PUSH1 0x0 PUSH2 0xB2B DUP3 PUSH2 0xB00 JUMP JUMPDEST SWAP1 POP SWAP2 SWAP1 POP JUMP JUMPDEST PUSH2 0xB3B DUP2 PUSH2 0xB20 JUMP JUMPDEST DUP2 EQ PUSH2 0xB46 JUMPI PUSH1 0x0 DUP1 REVERT JUMPDEST POP JUMP JUMPDEST PUSH1 0x0 DUP2 CALLDATALOAD SWAP1 POP PUSH2 0xB58 DUP2 PUSH2 0xB32 JUMP JUMPDEST SWAP3 SWAP2 POP POP JUMP JUMPDEST PUSH1 0x0 PUSH1 0x20 DUP3 DUP5 SUB SLT ISZERO PUSH2 0xB74 JUMPI PUSH2 0xB73 PUSH2 0xAFB JUMP JUMPDEST JUMPDEST PUSH1 0x0 PUSH2 0xB82 DUP5 DUP3 DUP6 ADD PUSH2 0xB49 JUMP JUMPDEST SWAP2 POP POP SWAP3 SWAP2 POP POP JUMP JUMPDEST PUSH32 0x4E487B7100000000000000000000000000000000000000000000000000000000 PUSH1 0x0 MSTORE PUSH1 0x21 PUSH1 0x4 MSTORE PUSH1 0x24 PUSH1 0x0 REVERT JUMPDEST PUSH1 0x4 DUP2 LT PUSH2 0xBCB JUMPI PUSH2 0xBCA PUSH2 0xB8B JUMP JUMPDEST JUMPDEST POP JUMP JUMPDEST PUSH1 0x0 DUP2 SWAP1 POP PUSH2 0xBDC DUP3 PUSH2 0xBBA JUMP JUMPDEST SWAP2 SWAP1 POP JUMP JUMPDEST PUSH1 0x0 PUSH2 0xBEC DUP3 PUSH2 0xBCE JUMP JUMPDEST SWAP1 POP SWAP2 SWAP1 POP JUMP JUMPDEST PUSH2 0xBFC DUP2 PUSH2 0xBE1 JUMP JUMPDEST DUP3 MSTORE POP POP JUMP JUMPDEST PUSH1 0x0 PUSH1 0x20 DUP3 ADD SWAP1 POP PUSH2 0xC17 PUSH1 0x0 DUP4 ADD DUP5 PUSH2 0xBF3 JUMP JUMPDEST SWAP3 SWAP2 POP POP JUMP JUMPDEST PUSH1 0x0 PUSH2 0xC28 DUP3 PUSH2 0xB00 JUMP JUMPDEST SWAP1 POP SWAP2 SWAP1 POP JUMP JUMPDEST PUSH2 0xC38 DUP2 PUSH2 0xC1D JUMP JUMPDEST DUP3 MSTORE POP POP JUMP JUMPDEST PUSH1 0x0 PUSH1 0x20 DUP3 ADD SWAP1 POP PUSH2 0xC53 PUSH1 0x0 DUP4 ADD DUP5 PUSH2 0xC2F JUMP JUMPDEST SWAP3 SWAP2 POP POP JUMP JUMPDEST PUSH1 0x0 DUP2 MLOAD SWAP1 POP SWAP2 SWAP1 POP JUMP JUMPDEST PUSH1 0x0 DUP3 DUP3 MSTORE PUSH1 0x20 DUP3 ADD SWAP1 POP SWAP3 SWAP2 POP POP JUMP JUMPDEST PUSH1 0x0 JUMPDEST DUP4 DUP2 LT ISZERO PUSH2 0xC93 JUMPI DUP1 DUP3 ADD MLOAD DUP2 DUP5 ADD MSTORE PUSH1 0x20 DUP2 ADD SWAP1 POP PUSH2 0xC78 JUMP JUMPDEST PUSH1 0x0 DUP5 DUP5 ADD MSTORE POP POP POP POP JUMP JUMPDEST PUSH1 0x0 PUSH1 0x1F NOT PUSH1 0x1F DUP4 ADD AND SWAP1 POP SWAP2 SWAP1 POP JUMP JUMPDEST PUSH1 0x0 PUSH2 0xCBB DUP3 PUSH2 0xC59 JUMP JUMPDEST PUSH2 0xCC5 DUP2 DUP6 PUSH2 0xC64 JUMP JUMPDEST SWAP4 POP PUSH2 0xCD5 DUP2 DUP6 PUSH1 0x20 DUP7 ADD PUSH2 0xC75 JUMP JUMPDEST PUSH2 0xCDE DUP2 PUSH2 0xC9F JUMP JUMPDEST DUP5 ADD SWAP2 POP POP SWAP3 SWAP2 POP POP JUMP JUMPDEST PUSH1 0x0 PUSH1 0x20 DUP3 ADD SWAP1 POP DUP2 DUP2 SUB PUSH1 0x0 DUP4 ADD MSTORE PUSH2 0xD03 DUP2 DUP5 PUSH2 0xCB0 JUMP JUMPDEST SWAP1 POP SWAP3 SWAP2 POP POP JUMP JUMPDEST PUSH32 0x4E487B7100000000000000000000000000000000000000000000000000000000 PUSH1 0x0 MSTORE PUSH1 0x22 PUSH1 0x4 MSTORE PUSH1 0x24 PUSH1 0x0 REVERT JUMPDEST PUSH1 0x0 PUSH1 0x2 DUP3 DIV SWAP1 POP PUSH1 0x1 DUP3 AND DUP1 PUSH2 0xD52 JUMPI PUSH1 0x7F DUP3 AND SWAP2 POP JUMPDEST PUSH1 0x20 DUP3 LT DUP2 SUB PUSH2 0xD65 JUMPI PUSH2 0xD64 PUSH2 0xD0B JUMP JUMPDEST JUMPDEST POP SWAP2 SWAP1 POP JUMP JUMPDEST PUSH32 0x4E487B7100000000000000000000000000000000000000000000000000000000 PUSH1 0x0 MSTORE PUSH1 0x11 PUSH1 0x4 MSTORE PUSH1 0x24 PUSH1 0x0 REVERT JUMPDEST PUSH1 0x0 PUSH2 0xDA5 DUP3 PUSH2 0xAC7 JUMP JUMPDEST SWAP2 POP PUSH2 0xDB0 DUP4 PUSH2 0xAC7 JUMP JUMPDEST SWAP3 POP DUP3 DUP3 ADD SWAP1 POP DUP1 DUP3 GT ISZERO PUSH2 0xDC8 JUMPI PUSH2 0xDC7 PUSH2 0xD6B JUMP JUMPDEST JUMPDEST SWAP3 SWAP2 POP POP JUMP JUMPDEST PUSH1 0x0 PUSH2 0xDD9 DUP3 PUSH2 0xAC7 JUMP JUMPDEST SWAP2 POP PUSH2 0xDE4 DUP4 PUSH2 0xAC7 JUMP JUMPDEST SWAP3 POP DUP3 DUP3 SUB SWAP1 POP DUP2 DUP2 GT ISZERO PUSH2 0xDFC JUMPI PUSH2 0xDFB PUSH2 0xD6B JUMP JUMPDEST JUMPDEST SWAP3 SWAP2 POP POP JUMP INVALID LOG2 PUSH5 0x6970667358 0x22 SLT KECCAK256 DUP13 SWAP9 0xDD 0xC3 SWAP2 0xDD JUMP 0xC6 0x21 0xE2 0xC7 SLOAD 0xDC 0xF6 0xBF 0xEB DUP14 0xB2 ORIGIN PUSH6 0x6B8DFDB1D6B7 BYTE 0xBC 0x2A MSIZE 0xB4 0x4A PUSH5 0x736F6C6343 STOP ADDMOD SLT STOP CALLER LOG2 PUSH5 0x6970667358 0x22 SLT KECCAK256 SSTORE KECCAK256 SHL 0x4D 0xC4 0xB9 0xB2 SWAP4 0xC8 0x4D 0x5E SWAP1 SWAP10 0x2D MLOAD SWAP15 JUMPI 0xE2 DUP15 0xAA SWAP3 0xCE LOG1 0xF6 0xE4 CREATE2 0xC4 PUSH1 0xD7 0xDD DIV 0xB8 PUSH5 0x736F6C6343 STOP ADDMOD SLT STOP CALLER "
				},
				"gasEstimates": {
					"creation": {
						"codeDepositCost": "1170400",
						"executionCost": "1214",
						"totalCost": "1171614"
					},
					"external": {
						"auctions(uint256)": "infinite",
						"createAuction()": "infinite"
					}
				},
				"methodIdentifiers": {
					"auctions(uint256)": "571a26a0",
					"createAuction()": "f5811447"
				}
			},
			"storageLayout": {
				"storage": [
					{
						"astId": 5,
						"contract": "The aution/auction.sol:AuctionCreator",
						"label": "auctions",
						"offset": 0,
						"slot": "0",
						"type": "t_array(t_contract(Auction)369)dyn_storage"
					}
				],
				"types": {
					"t_array(t_contract(Auction)369)dyn_storage": {
						"base": "t_contract(Auction)369",
						"encoding": "dynamic_array",
						"label": "contract Auction[]",
						"numberOfBytes": "32"
					},
					"t_contract(Auction)369": {
						"encoding": "inplace",
						"label": "contract Auction",
						"numberOfBytes": "20"
					}
				}
			},
			"userdoc": {
				"kind": "user",
				"methods": {},
				"version": 1
			}
		}
	}
}