{
	"Solidity 2023 Udemy Course/variables.sol": {
		"B": {
			"abi": [
				{
					"inputs": [],
					"name": "f2",
					"outputs": [
						{
							"internalType": "int256",
							"name": "",
							"type": "int256"
						}
					],
					"stateMutability": "view",
					"type": "function"
				},
				{
					"inputs": [],
					"name": "f4",
					"outputs": [
						{
							"internalType": "int256",
							"name": "",
							"type": "int256"
						}
					],
					"stateMutability": "view",
					"type": "function"
				},
				{
					"inputs": [],
					"name": "get_y",
					"outputs": [
						{
							"internalType": "int256",
							"name": "",
							"type": "int256"
						}
					],
					"stateMutability": "view",
					"type": "function"
				},
				{
					"inputs": [],
					"name": "x",
					"outputs": [
						{
							"internalType": "int256",
							"name": "",
							"type": "int256"
						}
					],
					"stateMutability": "view",
					"type": "function"
				},
				{
					"inputs": [],
					"name": "xx",
					"outputs": [
						{
							"internalType": "int256",
							"name": "",
							"type": "int256"
						}
					],
					"stateMutability": "view",
					"type": "function"
				}
			],
			"devdoc": {
				"kind": "dev",
				"methods": {},
				"version": 1
			},
			"evm": {
				"assembly": "    /* \"Solidity 2023 Udemy Course/variables.sol\":545:589  contract B is A{... */\n  mstore(0x40, 0x80)\n    /* \"Solidity 2023 Udemy Course/variables.sol\":129:131  10 */\n  0x0a\n    /* \"Solidity 2023 Udemy Course/variables.sol\":116:131  int public x=10 */\n  0x00\n  sstore\n    /* \"Solidity 2023 Udemy Course/variables.sol\":144:146  20 */\n  0x14\n    /* \"Solidity 2023 Udemy Course/variables.sol\":138:146  int y=20 */\n  0x01\n  sstore\n    /* \"Solidity 2023 Udemy Course/variables.sol\":581:585  f3() */\n  tag_1\n    /* \"Solidity 2023 Udemy Course/variables.sol\":581:583  f3 */\n  shl(0x20, tag_2)\n    /* \"Solidity 2023 Udemy Course/variables.sol\":581:585  f3() */\n  0x20\n  shr\n  jump\t// in\ntag_1:\n    /* \"Solidity 2023 Udemy Course/variables.sol\":567:585  int public xx=f3() */\n  0x02\n  sstore\n    /* \"Solidity 2023 Udemy Course/variables.sol\":545:589  contract B is A{... */\n  callvalue\n  dup1\n  iszero\n  tag_3\n  jumpi\n  0x00\n  dup1\n  revert\ntag_3:\n  pop\n  jump(tag_4)\n    /* \"Solidity 2023 Udemy Course/variables.sol\":398:465  function f3() internal view returns(int){... */\ntag_2:\n    /* \"Solidity 2023 Udemy Course/variables.sol\":434:437  int */\n  0x00\n    /* \"Solidity 2023 Udemy Course/variables.sol\":456:457  x */\n  dup1\n  sload\n    /* \"Solidity 2023 Udemy Course/variables.sol\":449:457  return x */\n  swap1\n  pop\n    /* \"Solidity 2023 Udemy Course/variables.sol\":398:465  function f3() internal view returns(int){... */\n  swap1\n  jump\t// out\n    /* \"Solidity 2023 Udemy Course/variables.sol\":545:589  contract B is A{... */\ntag_4:\n  dataSize(sub_0)\n  dup1\n  dataOffset(sub_0)\n  0x00\n  codecopy\n  0x00\n  return\nstop\n\nsub_0: assembly {\n        /* \"Solidity 2023 Udemy Course/variables.sol\":545:589  contract B is A{... */\n      mstore(0x40, 0x80)\n      callvalue\n      dup1\n      iszero\n      tag_1\n      jumpi\n      0x00\n      dup1\n      revert\n    tag_1:\n      pop\n      jumpi(tag_2, lt(calldatasize, 0x04))\n      shr(0xe0, calldataload(0x00))\n      dup1\n      0x0c55699c\n      eq\n      tag_3\n      jumpi\n      dup1\n      0x28d69c6d\n      eq\n      tag_4\n      jumpi\n      dup1\n      0x9942ec6f\n      eq\n      tag_5\n      jumpi\n      dup1\n      0xc3f90202\n      eq\n      tag_6\n      jumpi\n      dup1\n      0xece57b04\n      eq\n      tag_7\n      jumpi\n    tag_2:\n      0x00\n      dup1\n      revert\n        /* \"Solidity 2023 Udemy Course/variables.sol\":116:131  int public x=10 */\n    tag_3:\n      tag_8\n      tag_9\n      jump\t// in\n    tag_8:\n      mload(0x40)\n      tag_10\n      swap2\n      swap1\n      tag_11\n      jump\t// in\n    tag_10:\n      mload(0x40)\n      dup1\n      swap2\n      sub\n      swap1\n      return\n        /* \"Solidity 2023 Udemy Course/variables.sol\":155:223  function get_y() public view returns(int){... */\n    tag_4:\n      tag_12\n      tag_13\n      jump\t// in\n    tag_12:\n      mload(0x40)\n      tag_14\n      swap2\n      swap1\n      tag_11\n      jump\t// in\n    tag_14:\n      mload(0x40)\n      dup1\n      swap2\n      sub\n      swap1\n      return\n        /* \"Solidity 2023 Udemy Course/variables.sol\":306:392  function f2() public view returns(int){... */\n    tag_5:\n      tag_15\n      tag_16\n      jump\t// in\n    tag_15:\n      mload(0x40)\n      tag_17\n      swap2\n      swap1\n      tag_11\n      jump\t// in\n    tag_17:\n      mload(0x40)\n      dup1\n      swap2\n      sub\n      swap1\n      return\n        /* \"Solidity 2023 Udemy Course/variables.sol\":471:538  function f4() external view returns(int){... */\n    tag_6:\n      tag_18\n      tag_19\n      jump\t// in\n    tag_18:\n      mload(0x40)\n      tag_20\n      swap2\n      swap1\n      tag_11\n      jump\t// in\n    tag_20:\n      mload(0x40)\n      dup1\n      swap2\n      sub\n      swap1\n      return\n        /* \"Solidity 2023 Udemy Course/variables.sol\":567:585  int public xx=f3() */\n    tag_7:\n      tag_21\n      tag_22\n      jump\t// in\n    tag_21:\n      mload(0x40)\n      tag_23\n      swap2\n      swap1\n      tag_11\n      jump\t// in\n    tag_23:\n      mload(0x40)\n      dup1\n      swap2\n      sub\n      swap1\n      return\n        /* \"Solidity 2023 Udemy Course/variables.sol\":116:131  int public x=10 */\n    tag_9:\n      sload(0x00)\n      dup2\n      jump\t// out\n        /* \"Solidity 2023 Udemy Course/variables.sol\":155:223  function get_y() public view returns(int){... */\n    tag_13:\n        /* \"Solidity 2023 Udemy Course/variables.sol\":192:195  int */\n      0x00\n        /* \"Solidity 2023 Udemy Course/variables.sol\":214:215  y */\n      sload(0x01)\n        /* \"Solidity 2023 Udemy Course/variables.sol\":207:215  return y */\n      swap1\n      pop\n        /* \"Solidity 2023 Udemy Course/variables.sol\":155:223  function get_y() public view returns(int){... */\n      swap1\n      jump\t// out\n        /* \"Solidity 2023 Udemy Course/variables.sol\":306:392  function f2() public view returns(int){... */\n    tag_16:\n        /* \"Solidity 2023 Udemy Course/variables.sol\":340:343  int */\n      0x00\n        /* \"Solidity 2023 Udemy Course/variables.sol\":351:356  int a */\n      dup1\n        /* \"Solidity 2023 Udemy Course/variables.sol\":365:369  f1() */\n      tag_26\n        /* \"Solidity 2023 Udemy Course/variables.sol\":365:367  f1 */\n      tag_27\n        /* \"Solidity 2023 Udemy Course/variables.sol\":365:369  f1() */\n      jump\t// in\n    tag_26:\n        /* \"Solidity 2023 Udemy Course/variables.sol\":363:369  a=f1() */\n      swap1\n      pop\n        /* \"Solidity 2023 Udemy Course/variables.sol\":383:384  a */\n      dup1\n        /* \"Solidity 2023 Udemy Course/variables.sol\":376:384  return a */\n      swap2\n      pop\n      pop\n        /* \"Solidity 2023 Udemy Course/variables.sol\":306:392  function f2() public view returns(int){... */\n      swap1\n      jump\t// out\n        /* \"Solidity 2023 Udemy Course/variables.sol\":471:538  function f4() external view returns(int){... */\n    tag_19:\n        /* \"Solidity 2023 Udemy Course/variables.sol\":507:510  int */\n      0x00\n        /* \"Solidity 2023 Udemy Course/variables.sol\":529:530  x */\n      dup1\n      sload\n        /* \"Solidity 2023 Udemy Course/variables.sol\":522:530  return x */\n      swap1\n      pop\n        /* \"Solidity 2023 Udemy Course/variables.sol\":471:538  function f4() external view returns(int){... */\n      swap1\n      jump\t// out\n        /* \"Solidity 2023 Udemy Course/variables.sol\":567:585  int public xx=f3() */\n    tag_22:\n      sload(0x02)\n      dup2\n      jump\t// out\n        /* \"Solidity 2023 Udemy Course/variables.sol\":231:298  function f1() private  view returns(int){... */\n    tag_27:\n        /* \"Solidity 2023 Udemy Course/variables.sol\":267:270  int */\n      0x00\n        /* \"Solidity 2023 Udemy Course/variables.sol\":289:290  x */\n      dup1\n      sload\n        /* \"Solidity 2023 Udemy Course/variables.sol\":282:290  return x */\n      swap1\n      pop\n        /* \"Solidity 2023 Udemy Course/variables.sol\":231:298  function f1() private  view returns(int){... */\n      swap1\n      jump\t// out\n        /* \"#utility.yul\":7:83   */\n    tag_30:\n        /* \"#utility.yul\":43:50   */\n      0x00\n        /* \"#utility.yul\":72:77   */\n      dup2\n        /* \"#utility.yul\":61:77   */\n      swap1\n      pop\n        /* \"#utility.yul\":7:83   */\n      swap2\n      swap1\n      pop\n      jump\t// out\n        /* \"#utility.yul\":89:204   */\n    tag_31:\n        /* \"#utility.yul\":174:197   */\n      tag_35\n        /* \"#utility.yul\":191:196   */\n      dup2\n        /* \"#utility.yul\":174:197   */\n      tag_30\n      jump\t// in\n    tag_35:\n        /* \"#utility.yul\":169:172   */\n      dup3\n        /* \"#utility.yul\":162:198   */\n      mstore\n        /* \"#utility.yul\":89:204   */\n      pop\n      pop\n      jump\t// out\n        /* \"#utility.yul\":210:428   */\n    tag_11:\n        /* \"#utility.yul\":301:305   */\n      0x00\n        /* \"#utility.yul\":339:341   */\n      0x20\n        /* \"#utility.yul\":328:337   */\n      dup3\n        /* \"#utility.yul\":324:342   */\n      add\n        /* \"#utility.yul\":316:342   */\n      swap1\n      pop\n        /* \"#utility.yul\":352:421   */\n      tag_37\n        /* \"#utility.yul\":418:419   */\n      0x00\n        /* \"#utility.yul\":407:416   */\n      dup4\n        /* \"#utility.yul\":403:420   */\n      add\n        /* \"#utility.yul\":394:400   */\n      dup5\n        /* \"#utility.yul\":352:421   */\n      tag_31\n      jump\t// in\n    tag_37:\n        /* \"#utility.yul\":210:428   */\n      swap3\n      swap2\n      pop\n      pop\n      jump\t// out\n\n    auxdata: 0xa2646970667358221220b314117ce90e3f4fc4d9d8ba512198f02bacdcb697203c0f55a2b54171c3753464736f6c63430008120033\n}\n",
				"bytecode": {
					"linkReferences": {},
					"object": "6080604052600a600055601460015561001c61003160201b60201c565b60025534801561002b57600080fd5b5061003a565b60008054905090565b610198806100496000396000f3fe608060405234801561001057600080fd5b50600436106100575760003560e01c80630c55699c1461005c57806328d69c6d1461007a5780639942ec6f14610098578063c3f90202146100b6578063ece57b04146100d4575b600080fd5b6100646100f2565b6040516100719190610147565b60405180910390f35b6100826100f8565b60405161008f9190610147565b60405180910390f35b6100a0610102565b6040516100ad9190610147565b60405180910390f35b6100be610116565b6040516100cb9190610147565b60405180910390f35b6100dc61011f565b6040516100e99190610147565b60405180910390f35b60005481565b6000600154905090565b60008061010d610125565b90508091505090565b60008054905090565b60025481565b60008054905090565b6000819050919050565b6101418161012e565b82525050565b600060208201905061015c6000830184610138565b9291505056fea2646970667358221220b314117ce90e3f4fc4d9d8ba512198f02bacdcb697203c0f55a2b54171c3753464736f6c63430008120033",
					"opcodes": "PUSH1 0x80 PUSH1 0x40 MSTORE PUSH1 0xA PUSH1 0x0 SSTORE PUSH1 0x14 PUSH1 0x1 SSTORE PUSH2 0x1C PUSH2 0x31 PUSH1 0x20 SHL PUSH1 0x20 SHR JUMP JUMPDEST PUSH1 0x2 SSTORE CALLVALUE DUP1 ISZERO PUSH2 0x2B JUMPI PUSH1 0x0 DUP1 REVERT JUMPDEST POP PUSH2 0x3A JUMP JUMPDEST PUSH1 0x0 DUP1 SLOAD SWAP1 POP SWAP1 JUMP JUMPDEST PUSH2 0x198 DUP1 PUSH2 0x49 PUSH1 0x0 CODECOPY PUSH1 0x0 RETURN INVALID PUSH1 0x80 PUSH1 0x40 MSTORE CALLVALUE DUP1 ISZERO PUSH2 0x10 JUMPI PUSH1 0x0 DUP1 REVERT JUMPDEST POP PUSH1 0x4 CALLDATASIZE LT PUSH2 0x57 JUMPI PUSH1 0x0 CALLDATALOAD PUSH1 0xE0 SHR DUP1 PUSH4 0xC55699C EQ PUSH2 0x5C JUMPI DUP1 PUSH4 0x28D69C6D EQ PUSH2 0x7A JUMPI DUP1 PUSH4 0x9942EC6F EQ PUSH2 0x98 JUMPI DUP1 PUSH4 0xC3F90202 EQ PUSH2 0xB6 JUMPI DUP1 PUSH4 0xECE57B04 EQ PUSH2 0xD4 JUMPI JUMPDEST PUSH1 0x0 DUP1 REVERT JUMPDEST PUSH2 0x64 PUSH2 0xF2 JUMP JUMPDEST PUSH1 0x40 MLOAD PUSH2 0x71 SWAP2 SWAP1 PUSH2 0x147 JUMP JUMPDEST PUSH1 0x40 MLOAD DUP1 SWAP2 SUB SWAP1 RETURN JUMPDEST PUSH2 0x82 PUSH2 0xF8 JUMP JUMPDEST PUSH1 0x40 MLOAD PUSH2 0x8F SWAP2 SWAP1 PUSH2 0x147 JUMP JUMPDEST PUSH1 0x40 MLOAD DUP1 SWAP2 SUB SWAP1 RETURN JUMPDEST PUSH2 0xA0 PUSH2 0x102 JUMP JUMPDEST PUSH1 0x40 MLOAD PUSH2 0xAD SWAP2 SWAP1 PUSH2 0x147 JUMP JUMPDEST PUSH1 0x40 MLOAD DUP1 SWAP2 SUB SWAP1 RETURN JUMPDEST PUSH2 0xBE PUSH2 0x116 JUMP JUMPDEST PUSH1 0x40 MLOAD PUSH2 0xCB SWAP2 SWAP1 PUSH2 0x147 JUMP JUMPDEST PUSH1 0x40 MLOAD DUP1 SWAP2 SUB SWAP1 RETURN JUMPDEST PUSH2 0xDC PUSH2 0x11F JUMP JUMPDEST PUSH1 0x40 MLOAD PUSH2 0xE9 SWAP2 SWAP1 PUSH2 0x147 JUMP JUMPDEST PUSH1 0x40 MLOAD DUP1 SWAP2 SUB SWAP1 RETURN JUMPDEST PUSH1 0x0 SLOAD DUP2 JUMP JUMPDEST PUSH1 0x0 PUSH1 0x1 SLOAD SWAP1 POP SWAP1 JUMP JUMPDEST PUSH1 0x0 DUP1 PUSH2 0x10D PUSH2 0x125 JUMP JUMPDEST SWAP1 POP DUP1 SWAP2 POP POP SWAP1 JUMP JUMPDEST PUSH1 0x0 DUP1 SLOAD SWAP1 POP SWAP1 JUMP JUMPDEST PUSH1 0x2 SLOAD DUP2 JUMP JUMPDEST PUSH1 0x0 DUP1 SLOAD SWAP1 POP SWAP1 JUMP JUMPDEST PUSH1 0x0 DUP2 SWAP1 POP SWAP2 SWAP1 POP JUMP JUMPDEST PUSH2 0x141 DUP2 PUSH2 0x12E JUMP JUMPDEST DUP3 MSTORE POP POP JUMP JUMPDEST PUSH1 0x0 PUSH1 0x20 DUP3 ADD SWAP1 POP PUSH2 0x15C PUSH1 0x0 DUP4 ADD DUP5 PUSH2 0x138 JUMP JUMPDEST SWAP3 SWAP2 POP POP JUMP INVALID LOG2 PUSH5 0x6970667358 0x22 SLT KECCAK256 0xB3 EQ GT PUSH29 0xE90E3F4FC4D9D8BA512198F02BACDCB697203C0F55A2B54171C3753464 PUSH20 0x6F6C634300081200330000000000000000000000 "
				},
				"gasEstimates": {
					"creation": {
						"codeDepositCost": "81600",
						"executionCost": "infinite",
						"totalCost": "infinite"
					},
					"external": {
						"f2()": "2507",
						"f4()": "2481",
						"get_y()": "2437",
						"x()": "2407",
						"xx()": "2495"
					}
				},
				"methodIdentifiers": {
					"f2()": "9942ec6f",
					"f4()": "c3f90202",
					"get_y()": "28d69c6d",
					"x()": "0c55699c",
					"xx()": "ece57b04"
				}
			},
			"storageLayout": {
				"storage": [
					{
						"astId": 4,
						"contract": "Solidity 2023 Udemy Course/variables.sol:B",
						"label": "x",
						"offset": 0,
						"slot": "0",
						"type": "t_int256"
					},
					{
						"astId": 7,
						"contract": "Solidity 2023 Udemy Course/variables.sol:B",
						"label": "y",
						"offset": 0,
						"slot": "1",
						"type": "t_int256"
					},
					{
						"astId": 62,
						"contract": "Solidity 2023 Udemy Course/variables.sol:B",
						"label": "xx",
						"offset": 0,
						"slot": "2",
						"type": "t_int256"
					}
				],
				"types": {
					"t_int256": {
						"encoding": "inplace",
						"label": "int256",
						"numberOfBytes": "32"
					}
				}
			},
			"userdoc": {
				"kind": "user",
				"methods": {},
				"version": 1
			}
		}
	}
}