{
	"Solidity 2023 Udemy Course/Decison.sol": {
		"DecisionMaking": {
			"abi": [
				{
					"inputs": [],
					"name": "airDrop",
					"outputs": [
						{
							"internalType": "uint256",
							"name": "",
							"type": "uint256"
						}
					],
					"stateMutability": "view",
					"type": "function"
				},
				{
					"inputs": [],
					"name": "validateCond",
					"outputs": [
						{
							"internalType": "bool",
							"name": "",
							"type": "bool"
						}
					],
					"stateMutability": "view",
					"type": "function"
				}
			],
			"devdoc": {
				"kind": "dev",
				"methods": {},
				"version": 1
			},
			"evm": {
				"assembly": "    /* \"Solidity 2023 Udemy Course/Decison.sol\":71:427  contract  DecisionMaking{ ... */\n  mstore(0x40, 0x80)\n    /* \"Solidity 2023 Udemy Course/Decison.sol\":110:111  2 */\n  0x02\n    /* \"Solidity 2023 Udemy Course/Decison.sol\":103:111  uint a=2 */\n  0x00\n  sstore\n    /* \"Solidity 2023 Udemy Course/Decison.sol\":264:266  10 */\n  0x0a\n    /* \"Solidity 2023 Udemy Course/Decison.sol\":245:266  uint stakingWallet=10 */\n  0x01\n  sstore\n    /* \"Solidity 2023 Udemy Course/Decison.sol\":71:427  contract  DecisionMaking{ ... */\n  callvalue\n  dup1\n  iszero\n  tag_1\n  jumpi\n  0x00\n  dup1\n  revert\ntag_1:\n  pop\n  dataSize(sub_0)\n  dup1\n  dataOffset(sub_0)\n  0x00\n  codecopy\n  0x00\n  return\nstop\n\nsub_0: assembly {\n        /* \"Solidity 2023 Udemy Course/Decison.sol\":71:427  contract  DecisionMaking{ ... */\n      mstore(0x40, 0x80)\n      callvalue\n      dup1\n      iszero\n      tag_1\n      jumpi\n      0x00\n      dup1\n      revert\n    tag_1:\n      pop\n      jumpi(tag_2, lt(calldatasize, 0x04))\n      shr(0xe0, calldataload(0x00))\n      dup1\n      0xca5d0880\n      eq\n      tag_3\n      jumpi\n      dup1\n      0xe19b335b\n      eq\n      tag_4\n      jumpi\n    tag_2:\n      0x00\n      dup1\n      revert\n        /* \"Solidity 2023 Udemy Course/Decison.sol\":275:424  function airDrop() public view returns(uint){... */\n    tag_3:\n      tag_5\n      tag_6\n      jump\t// in\n    tag_5:\n      mload(0x40)\n      tag_7\n      swap2\n      swap1\n      tag_8\n      jump\t// in\n    tag_7:\n      mload(0x40)\n      dup1\n      swap2\n      sub\n      swap1\n      return\n        /* \"Solidity 2023 Udemy Course/Decison.sol\":120:237  function validateCond() public view returns (bool){... */\n    tag_4:\n      tag_9\n      tag_10\n      jump\t// in\n    tag_9:\n      mload(0x40)\n      tag_11\n      swap2\n      swap1\n      tag_12\n      jump\t// in\n    tag_11:\n      mload(0x40)\n      dup1\n      swap2\n      sub\n      swap1\n      return\n        /* \"Solidity 2023 Udemy Course/Decison.sol\":275:424  function airDrop() public view returns(uint){... */\n    tag_6:\n        /* \"Solidity 2023 Udemy Course/Decison.sol\":314:318  uint */\n      0x00\n        /* \"Solidity 2023 Udemy Course/Decison.sol\":351:353  10 */\n      0x0a\n        /* \"Solidity 2023 Udemy Course/Decison.sol\":334:347  stakingWallet */\n      sload(0x01)\n        /* \"Solidity 2023 Udemy Course/Decison.sol\":334:353  stakingWallet == 10 */\n      sub\n        /* \"Solidity 2023 Udemy Course/Decison.sol\":330:417  if (stakingWallet == 10){... */\n      tag_14\n      jumpi\n        /* \"Solidity 2023 Udemy Course/Decison.sol\":389:391  10 */\n      0x0a\n        /* \"Solidity 2023 Udemy Course/Decison.sol\":375:388  stakingWallet */\n      sload(0x01)\n        /* \"Solidity 2023 Udemy Course/Decison.sol\":375:391  stakingWallet+10 */\n      tag_15\n      swap2\n      swap1\n      tag_16\n      jump\t// in\n    tag_15:\n        /* \"Solidity 2023 Udemy Course/Decison.sol\":368:391  return stakingWallet+10 */\n      swap1\n      pop\n      jump(tag_13)\n        /* \"Solidity 2023 Udemy Course/Decison.sol\":330:417  if (stakingWallet == 10){... */\n    tag_14:\n        /* \"Solidity 2023 Udemy Course/Decison.sol\":275:424  function airDrop() public view returns(uint){... */\n    tag_13:\n      swap1\n      jump\t// out\n        /* \"Solidity 2023 Udemy Course/Decison.sol\":120:237  function validateCond() public view returns (bool){... */\n    tag_10:\n        /* \"Solidity 2023 Udemy Course/Decison.sol\":165:169  bool */\n      0x00\n        /* \"Solidity 2023 Udemy Course/Decison.sol\":190:191  2 */\n      0x02\n        /* \"Solidity 2023 Udemy Course/Decison.sol\":185:186  a */\n      sload(0x00)\n        /* \"Solidity 2023 Udemy Course/Decison.sol\":185:191  a == 2 */\n      sub\n        /* \"Solidity 2023 Udemy Course/Decison.sol\":181:230  if (a == 2){... */\n      tag_18\n      jumpi\n        /* \"Solidity 2023 Udemy Course/Decison.sol\":214:218  true */\n      0x01\n        /* \"Solidity 2023 Udemy Course/Decison.sol\":207:218  return true */\n      swap1\n      pop\n      jump(tag_17)\n        /* \"Solidity 2023 Udemy Course/Decison.sol\":181:230  if (a == 2){... */\n    tag_18:\n        /* \"Solidity 2023 Udemy Course/Decison.sol\":120:237  function validateCond() public view returns (bool){... */\n    tag_17:\n      swap1\n      jump\t// out\n        /* \"#utility.yul\":7:84   */\n    tag_19:\n        /* \"#utility.yul\":44:51   */\n      0x00\n        /* \"#utility.yul\":73:78   */\n      dup2\n        /* \"#utility.yul\":62:78   */\n      swap1\n      pop\n        /* \"#utility.yul\":7:84   */\n      swap2\n      swap1\n      pop\n      jump\t// out\n        /* \"#utility.yul\":90:208   */\n    tag_20:\n        /* \"#utility.yul\":177:201   */\n      tag_27\n        /* \"#utility.yul\":195:200   */\n      dup2\n        /* \"#utility.yul\":177:201   */\n      tag_19\n      jump\t// in\n    tag_27:\n        /* \"#utility.yul\":172:175   */\n      dup3\n        /* \"#utility.yul\":165:202   */\n      mstore\n        /* \"#utility.yul\":90:208   */\n      pop\n      pop\n      jump\t// out\n        /* \"#utility.yul\":214:436   */\n    tag_8:\n        /* \"#utility.yul\":307:311   */\n      0x00\n        /* \"#utility.yul\":345:347   */\n      0x20\n        /* \"#utility.yul\":334:343   */\n      dup3\n        /* \"#utility.yul\":330:348   */\n      add\n        /* \"#utility.yul\":322:348   */\n      swap1\n      pop\n        /* \"#utility.yul\":358:429   */\n      tag_29\n        /* \"#utility.yul\":426:427   */\n      0x00\n        /* \"#utility.yul\":415:424   */\n      dup4\n        /* \"#utility.yul\":411:428   */\n      add\n        /* \"#utility.yul\":402:408   */\n      dup5\n        /* \"#utility.yul\":358:429   */\n      tag_20\n      jump\t// in\n    tag_29:\n        /* \"#utility.yul\":214:436   */\n      swap3\n      swap2\n      pop\n      pop\n      jump\t// out\n        /* \"#utility.yul\":442:532   */\n    tag_21:\n        /* \"#utility.yul\":476:483   */\n      0x00\n        /* \"#utility.yul\":519:524   */\n      dup2\n        /* \"#utility.yul\":512:525   */\n      iszero\n        /* \"#utility.yul\":505:526   */\n      iszero\n        /* \"#utility.yul\":494:526   */\n      swap1\n      pop\n        /* \"#utility.yul\":442:532   */\n      swap2\n      swap1\n      pop\n      jump\t// out\n        /* \"#utility.yul\":538:647   */\n    tag_22:\n        /* \"#utility.yul\":619:640   */\n      tag_32\n        /* \"#utility.yul\":634:639   */\n      dup2\n        /* \"#utility.yul\":619:640   */\n      tag_21\n      jump\t// in\n    tag_32:\n        /* \"#utility.yul\":614:617   */\n      dup3\n        /* \"#utility.yul\":607:641   */\n      mstore\n        /* \"#utility.yul\":538:647   */\n      pop\n      pop\n      jump\t// out\n        /* \"#utility.yul\":653:863   */\n    tag_12:\n        /* \"#utility.yul\":740:744   */\n      0x00\n        /* \"#utility.yul\":778:780   */\n      0x20\n        /* \"#utility.yul\":767:776   */\n      dup3\n        /* \"#utility.yul\":763:781   */\n      add\n        /* \"#utility.yul\":755:781   */\n      swap1\n      pop\n        /* \"#utility.yul\":791:856   */\n      tag_34\n        /* \"#utility.yul\":853:854   */\n      0x00\n        /* \"#utility.yul\":842:851   */\n      dup4\n        /* \"#utility.yul\":838:855   */\n      add\n        /* \"#utility.yul\":829:835   */\n      dup5\n        /* \"#utility.yul\":791:856   */\n      tag_22\n      jump\t// in\n    tag_34:\n        /* \"#utility.yul\":653:863   */\n      swap3\n      swap2\n      pop\n      pop\n      jump\t// out\n        /* \"#utility.yul\":869:1049   */\n    tag_23:\n        /* \"#utility.yul\":917:994   */\n      0x4e487b7100000000000000000000000000000000000000000000000000000000\n        /* \"#utility.yul\":914:915   */\n      0x00\n        /* \"#utility.yul\":907:995   */\n      mstore\n        /* \"#utility.yul\":1014:1018   */\n      0x11\n        /* \"#utility.yul\":1011:1012   */\n      0x04\n        /* \"#utility.yul\":1004:1019   */\n      mstore\n        /* \"#utility.yul\":1038:1042   */\n      0x24\n        /* \"#utility.yul\":1035:1036   */\n      0x00\n        /* \"#utility.yul\":1028:1043   */\n      revert\n        /* \"#utility.yul\":1055:1246   */\n    tag_16:\n        /* \"#utility.yul\":1095:1098   */\n      0x00\n        /* \"#utility.yul\":1114:1134   */\n      tag_37\n        /* \"#utility.yul\":1132:1133   */\n      dup3\n        /* \"#utility.yul\":1114:1134   */\n      tag_19\n      jump\t// in\n    tag_37:\n        /* \"#utility.yul\":1109:1134   */\n      swap2\n      pop\n        /* \"#utility.yul\":1148:1168   */\n      tag_38\n        /* \"#utility.yul\":1166:1167   */\n      dup4\n        /* \"#utility.yul\":1148:1168   */\n      tag_19\n      jump\t// in\n    tag_38:\n        /* \"#utility.yul\":1143:1168   */\n      swap3\n      pop\n        /* \"#utility.yul\":1191:1192   */\n      dup3\n        /* \"#utility.yul\":1188:1189   */\n      dup3\n        /* \"#utility.yul\":1184:1193   */\n      add\n        /* \"#utility.yul\":1177:1193   */\n      swap1\n      pop\n        /* \"#utility.yul\":1212:1215   */\n      dup1\n        /* \"#utility.yul\":1209:1210   */\n      dup3\n        /* \"#utility.yul\":1206:1216   */\n      gt\n        /* \"#utility.yul\":1203:1239   */\n      iszero\n      tag_39\n      jumpi\n        /* \"#utility.yul\":1219:1237   */\n      tag_40\n      tag_23\n      jump\t// in\n    tag_40:\n        /* \"#utility.yul\":1203:1239   */\n    tag_39:\n        /* \"#utility.yul\":1055:1246   */\n      swap3\n      swap2\n      pop\n      pop\n      jump\t// out\n\n    auxdata: 0xa2646970667358221220124db0c7a213eafb21ff9b6c7ac0ba96d4e7a643f1943de8cb2f57cca221cecf64736f6c63430008120033\n}\n",
				"bytecode": {
					"linkReferences": {},
					"object": "60806040526002600055600a60015534801561001a57600080fd5b506101b98061002a6000396000f3fe608060405234801561001057600080fd5b50600436106100365760003560e01c8063ca5d08801461003b578063e19b335b14610059575b600080fd5b610043610077565b60405161005091906100cf565b60405180910390f35b61006161009d565b60405161006e9190610105565b60405180910390f35b6000600a6001540361009957600a600154610092919061014f565b905061009a565b5b90565b60006002600054036100b257600190506100b3565b5b90565b6000819050919050565b6100c9816100b6565b82525050565b60006020820190506100e460008301846100c0565b92915050565b60008115159050919050565b6100ff816100ea565b82525050565b600060208201905061011a60008301846100f6565b92915050565b7f4e487b7100000000000000000000000000000000000000000000000000000000600052601160045260246000fd5b600061015a826100b6565b9150610165836100b6565b925082820190508082111561017d5761017c610120565b5b9291505056fea2646970667358221220124db0c7a213eafb21ff9b6c7ac0ba96d4e7a643f1943de8cb2f57cca221cecf64736f6c63430008120033",
					"opcodes": "PUSH1 0x80 PUSH1 0x40 MSTORE PUSH1 0x2 PUSH1 0x0 SSTORE PUSH1 0xA PUSH1 0x1 SSTORE CALLVALUE DUP1 ISZERO PUSH2 0x1A JUMPI PUSH1 0x0 DUP1 REVERT JUMPDEST POP PUSH2 0x1B9 DUP1 PUSH2 0x2A PUSH1 0x0 CODECOPY PUSH1 0x0 RETURN INVALID PUSH1 0x80 PUSH1 0x40 MSTORE CALLVALUE DUP1 ISZERO PUSH2 0x10 JUMPI PUSH1 0x0 DUP1 REVERT JUMPDEST POP PUSH1 0x4 CALLDATASIZE LT PUSH2 0x36 JUMPI PUSH1 0x0 CALLDATALOAD PUSH1 0xE0 SHR DUP1 PUSH4 0xCA5D0880 EQ PUSH2 0x3B JUMPI DUP1 PUSH4 0xE19B335B EQ PUSH2 0x59 JUMPI JUMPDEST PUSH1 0x0 DUP1 REVERT JUMPDEST PUSH2 0x43 PUSH2 0x77 JUMP JUMPDEST PUSH1 0x40 MLOAD PUSH2 0x50 SWAP2 SWAP1 PUSH2 0xCF JUMP JUMPDEST PUSH1 0x40 MLOAD DUP1 SWAP2 SUB SWAP1 RETURN JUMPDEST PUSH2 0x61 PUSH2 0x9D JUMP JUMPDEST PUSH1 0x40 MLOAD PUSH2 0x6E SWAP2 SWAP1 PUSH2 0x105 JUMP JUMPDEST PUSH1 0x40 MLOAD DUP1 SWAP2 SUB SWAP1 RETURN JUMPDEST PUSH1 0x0 PUSH1 0xA PUSH1 0x1 SLOAD SUB PUSH2 0x99 JUMPI PUSH1 0xA PUSH1 0x1 SLOAD PUSH2 0x92 SWAP2 SWAP1 PUSH2 0x14F JUMP JUMPDEST SWAP1 POP PUSH2 0x9A JUMP JUMPDEST JUMPDEST SWAP1 JUMP JUMPDEST PUSH1 0x0 PUSH1 0x2 PUSH1 0x0 SLOAD SUB PUSH2 0xB2 JUMPI PUSH1 0x1 SWAP1 POP PUSH2 0xB3 JUMP JUMPDEST JUMPDEST SWAP1 JUMP JUMPDEST PUSH1 0x0 DUP2 SWAP1 POP SWAP2 SWAP1 POP JUMP JUMPDEST PUSH2 0xC9 DUP2 PUSH2 0xB6 JUMP JUMPDEST DUP3 MSTORE POP POP JUMP JUMPDEST PUSH1 0x0 PUSH1 0x20 DUP3 ADD SWAP1 POP PUSH2 0xE4 PUSH1 0x0 DUP4 ADD DUP5 PUSH2 0xC0 JUMP JUMPDEST SWAP3 SWAP2 POP POP JUMP JUMPDEST PUSH1 0x0 DUP2 ISZERO ISZERO SWAP1 POP SWAP2 SWAP1 POP JUMP JUMPDEST PUSH2 0xFF DUP2 PUSH2 0xEA JUMP JUMPDEST DUP3 MSTORE POP POP JUMP JUMPDEST PUSH1 0x0 PUSH1 0x20 DUP3 ADD SWAP1 POP PUSH2 0x11A PUSH1 0x0 DUP4 ADD DUP5 PUSH2 0xF6 JUMP JUMPDEST SWAP3 SWAP2 POP POP JUMP JUMPDEST PUSH32 0x4E487B7100000000000000000000000000000000000000000000000000000000 PUSH1 0x0 MSTORE PUSH1 0x11 PUSH1 0x4 MSTORE PUSH1 0x24 PUSH1 0x0 REVERT JUMPDEST PUSH1 0x0 PUSH2 0x15A DUP3 PUSH2 0xB6 JUMP JUMPDEST SWAP2 POP PUSH2 0x165 DUP4 PUSH2 0xB6 JUMP JUMPDEST SWAP3 POP DUP3 DUP3 ADD SWAP1 POP DUP1 DUP3 GT ISZERO PUSH2 0x17D JUMPI PUSH2 0x17C PUSH2 0x120 JUMP JUMPDEST JUMPDEST SWAP3 SWAP2 POP POP JUMP INVALID LOG2 PUSH5 0x6970667358 0x22 SLT KECCAK256 SLT 0x4D 0xB0 0xC7 LOG2 SGT 0xEA 0xFB 0x21 SELFDESTRUCT SWAP12 PUSH13 0x7AC0BA96D4E7A643F1943DE8CB 0x2F JUMPI 0xCC LOG2 0x21 0xCE 0xCF PUSH5 0x736F6C6343 STOP ADDMOD SLT STOP CALLER "
				},
				"gasEstimates": {
					"creation": {
						"codeDepositCost": "88200",
						"executionCost": "44347",
						"totalCost": "132547"
					},
					"external": {
						"airDrop()": "infinite",
						"validateCond()": "2477"
					}
				},
				"methodIdentifiers": {
					"airDrop()": "ca5d0880",
					"validateCond()": "e19b335b"
				}
			},
			"storageLayout": {
				"storage": [
					{
						"astId": 4,
						"contract": "Solidity 2023 Udemy Course/Decison.sol:DecisionMaking",
						"label": "a",
						"offset": 0,
						"slot": "0",
						"type": "t_uint256"
					},
					{
						"astId": 20,
						"contract": "Solidity 2023 Udemy Course/Decison.sol:DecisionMaking",
						"label": "stakingWallet",
						"offset": 0,
						"slot": "1",
						"type": "t_uint256"
					}
				],
				"types": {
					"t_uint256": {
						"encoding": "inplace",
						"label": "uint256",
						"numberOfBytes": "32"
					}
				}
			},
			"userdoc": {
				"kind": "user",
				"methods": {},
				"version": 1
			}
		}
	}
}