{
	"Solidity 2023 Udemy Course/getterAndsetter.sol": {
		"Property": {
			"abi": [
				{
					"inputs": [],
					"name": "getLocation",
					"outputs": [
						{
							"internalType": "string",
							"name": "",
							"type": "string"
						}
					],
					"stateMutability": "view",
					"type": "function"
				},
				{
					"inputs": [],
					"name": "getPrice",
					"outputs": [
						{
							"internalType": "int256",
							"name": "",
							"type": "int256"
						}
					],
					"stateMutability": "view",
					"type": "function"
				},
				{
					"inputs": [],
					"name": "location",
					"outputs": [
						{
							"internalType": "string",
							"name": "",
							"type": "string"
						}
					],
					"stateMutability": "view",
					"type": "function"
				},
				{
					"inputs": [],
					"name": "price",
					"outputs": [
						{
							"internalType": "int256",
							"name": "",
							"type": "int256"
						}
					],
					"stateMutability": "view",
					"type": "function"
				},
				{
					"inputs": [
						{
							"internalType": "string",
							"name": "mem_location",
							"type": "string"
						}
					],
					"name": "setLocation",
					"outputs": [],
					"stateMutability": "nonpayable",
					"type": "function"
				},
				{
					"inputs": [
						{
							"internalType": "int256",
							"name": "_price",
							"type": "int256"
						}
					],
					"name": "setPrice",
					"outputs": [],
					"stateMutability": "nonpayable",
					"type": "function"
				}
			],
			"devdoc": {
				"kind": "dev",
				"methods": {},
				"version": 1
			},
			"evm": {
				"assembly": "    /* \"Solidity 2023 Udemy Course/getterAndsetter.sol\":69:520  contract Property{... */\n  mstore(0x40, 0x80)\n    /* \"Solidity 2023 Udemy Course/getterAndsetter.sol\":116:150  string public location=\"New Delhi\" */\n  mload(0x40)\n  dup1\n  0x40\n  add\n  0x40\n  mstore\n  dup1\n  0x09\n  dup2\n  mstore\n  0x20\n  add\n  0x4e65772044656c68690000000000000000000000000000000000000000000000\n  dup2\n  mstore\n  pop\n  0x01\n  swap1\n  dup2\n  tag_1\n  swap2\n  swap1\n  tag_2\n  jump\t// in\ntag_1:\n  pop\n    /* \"Solidity 2023 Udemy Course/getterAndsetter.sol\":69:520  contract Property{... */\n  callvalue\n  dup1\n  iszero\n  tag_3\n  jumpi\n  0x00\n  dup1\n  revert\ntag_3:\n  pop\n  jump(tag_4)\n    /* \"#utility.yul\":7:106   */\ntag_5:\n    /* \"#utility.yul\":59:65   */\n  0x00\n    /* \"#utility.yul\":93:98   */\n  dup2\n    /* \"#utility.yul\":87:99   */\n  mload\n    /* \"#utility.yul\":77:99   */\n  swap1\n  pop\n    /* \"#utility.yul\":7:106   */\n  swap2\n  swap1\n  pop\n  jump\t// out\n    /* \"#utility.yul\":112:292   */\ntag_6:\n    /* \"#utility.yul\":160:237   */\n  0x4e487b7100000000000000000000000000000000000000000000000000000000\n    /* \"#utility.yul\":157:158   */\n  0x00\n    /* \"#utility.yul\":150:238   */\n  mstore\n    /* \"#utility.yul\":257:261   */\n  0x41\n    /* \"#utility.yul\":254:255   */\n  0x04\n    /* \"#utility.yul\":247:262   */\n  mstore\n    /* \"#utility.yul\":281:285   */\n  0x24\n    /* \"#utility.yul\":278:279   */\n  0x00\n    /* \"#utility.yul\":271:286   */\n  revert\n    /* \"#utility.yul\":298:478   */\ntag_7:\n    /* \"#utility.yul\":346:423   */\n  0x4e487b7100000000000000000000000000000000000000000000000000000000\n    /* \"#utility.yul\":343:344   */\n  0x00\n    /* \"#utility.yul\":336:424   */\n  mstore\n    /* \"#utility.yul\":443:447   */\n  0x22\n    /* \"#utility.yul\":440:441   */\n  0x04\n    /* \"#utility.yul\":433:448   */\n  mstore\n    /* \"#utility.yul\":467:471   */\n  0x24\n    /* \"#utility.yul\":464:465   */\n  0x00\n    /* \"#utility.yul\":457:472   */\n  revert\n    /* \"#utility.yul\":484:804   */\ntag_8:\n    /* \"#utility.yul\":528:534   */\n  0x00\n    /* \"#utility.yul\":565:566   */\n  0x02\n    /* \"#utility.yul\":559:563   */\n  dup3\n    /* \"#utility.yul\":555:567   */\n  div\n    /* \"#utility.yul\":545:567   */\n  swap1\n  pop\n    /* \"#utility.yul\":612:613   */\n  0x01\n    /* \"#utility.yul\":606:610   */\n  dup3\n    /* \"#utility.yul\":602:614   */\n  and\n    /* \"#utility.yul\":633:651   */\n  dup1\n    /* \"#utility.yul\":623:704   */\n  tag_30\n  jumpi\n    /* \"#utility.yul\":689:693   */\n  0x7f\n    /* \"#utility.yul\":681:687   */\n  dup3\n    /* \"#utility.yul\":677:694   */\n  and\n    /* \"#utility.yul\":667:694   */\n  swap2\n  pop\n    /* \"#utility.yul\":623:704   */\ntag_30:\n    /* \"#utility.yul\":751:753   */\n  0x20\n    /* \"#utility.yul\":743:749   */\n  dup3\n    /* \"#utility.yul\":740:754   */\n  lt\n    /* \"#utility.yul\":720:738   */\n  dup2\n    /* \"#utility.yul\":717:755   */\n  sub\n    /* \"#utility.yul\":714:798   */\n  tag_31\n  jumpi\n    /* \"#utility.yul\":770:788   */\n  tag_32\n  tag_7\n  jump\t// in\ntag_32:\n    /* \"#utility.yul\":714:798   */\ntag_31:\n    /* \"#utility.yul\":535:804   */\n  pop\n    /* \"#utility.yul\":484:804   */\n  swap2\n  swap1\n  pop\n  jump\t// out\n    /* \"#utility.yul\":810:951   */\ntag_9:\n    /* \"#utility.yul\":859:863   */\n  0x00\n    /* \"#utility.yul\":882:885   */\n  dup2\n    /* \"#utility.yul\":874:885   */\n  swap1\n  pop\n    /* \"#utility.yul\":905:908   */\n  dup2\n    /* \"#utility.yul\":902:903   */\n  0x00\n    /* \"#utility.yul\":895:909   */\n  mstore\n    /* \"#utility.yul\":939:943   */\n  0x20\n    /* \"#utility.yul\":936:937   */\n  0x00\n    /* \"#utility.yul\":926:944   */\n  keccak256\n    /* \"#utility.yul\":918:944   */\n  swap1\n  pop\n    /* \"#utility.yul\":810:951   */\n  swap2\n  swap1\n  pop\n  jump\t// out\n    /* \"#utility.yul\":957:1050   */\ntag_10:\n    /* \"#utility.yul\":994:1000   */\n  0x00\n    /* \"#utility.yul\":1041:1043   */\n  0x20\n    /* \"#utility.yul\":1036:1038   */\n  0x1f\n    /* \"#utility.yul\":1029:1034   */\n  dup4\n    /* \"#utility.yul\":1025:1039   */\n  add\n    /* \"#utility.yul\":1021:1044   */\n  div\n    /* \"#utility.yul\":1011:1044   */\n  swap1\n  pop\n    /* \"#utility.yul\":957:1050   */\n  swap2\n  swap1\n  pop\n  jump\t// out\n    /* \"#utility.yul\":1056:1163   */\ntag_11:\n    /* \"#utility.yul\":1100:1108   */\n  0x00\n    /* \"#utility.yul\":1150:1155   */\n  dup3\n    /* \"#utility.yul\":1144:1148   */\n  dup3\n    /* \"#utility.yul\":1140:1156   */\n  shl\n    /* \"#utility.yul\":1119:1156   */\n  swap1\n  pop\n    /* \"#utility.yul\":1056:1163   */\n  swap3\n  swap2\n  pop\n  pop\n  jump\t// out\n    /* \"#utility.yul\":1169:1562   */\ntag_12:\n    /* \"#utility.yul\":1238:1244   */\n  0x00\n    /* \"#utility.yul\":1288:1289   */\n  0x08\n    /* \"#utility.yul\":1276:1286   */\n  dup4\n    /* \"#utility.yul\":1272:1290   */\n  mul\n    /* \"#utility.yul\":1311:1408   */\n  tag_37\n    /* \"#utility.yul\":1341:1407   */\n  0xffffffffffffffffffffffffffffffffffffffffffffffffffffffffffffffff\n    /* \"#utility.yul\":1330:1339   */\n  dup3\n    /* \"#utility.yul\":1311:1408   */\n  tag_11\n  jump\t// in\ntag_37:\n    /* \"#utility.yul\":1429:1468   */\n  tag_38\n    /* \"#utility.yul\":1459:1467   */\n  dup7\n    /* \"#utility.yul\":1448:1457   */\n  dup4\n    /* \"#utility.yul\":1429:1468   */\n  tag_11\n  jump\t// in\ntag_38:\n    /* \"#utility.yul\":1417:1468   */\n  swap6\n  pop\n    /* \"#utility.yul\":1501:1505   */\n  dup1\n    /* \"#utility.yul\":1497:1506   */\n  not\n    /* \"#utility.yul\":1490:1495   */\n  dup5\n    /* \"#utility.yul\":1486:1507   */\n  and\n    /* \"#utility.yul\":1477:1507   */\n  swap4\n  pop\n    /* \"#utility.yul\":1550:1554   */\n  dup1\n    /* \"#utility.yul\":1540:1548   */\n  dup7\n    /* \"#utility.yul\":1536:1555   */\n  and\n    /* \"#utility.yul\":1529:1534   */\n  dup5\n    /* \"#utility.yul\":1526:1556   */\n  or\n    /* \"#utility.yul\":1516:1556   */\n  swap3\n  pop\n    /* \"#utility.yul\":1245:1562   */\n  pop\n  pop\n    /* \"#utility.yul\":1169:1562   */\n  swap4\n  swap3\n  pop\n  pop\n  pop\n  jump\t// out\n    /* \"#utility.yul\":1568:1645   */\ntag_13:\n    /* \"#utility.yul\":1605:1612   */\n  0x00\n    /* \"#utility.yul\":1634:1639   */\n  dup2\n    /* \"#utility.yul\":1623:1639   */\n  swap1\n  pop\n    /* \"#utility.yul\":1568:1645   */\n  swap2\n  swap1\n  pop\n  jump\t// out\n    /* \"#utility.yul\":1651:1711   */\ntag_14:\n    /* \"#utility.yul\":1679:1682   */\n  0x00\n    /* \"#utility.yul\":1700:1705   */\n  dup2\n    /* \"#utility.yul\":1693:1705   */\n  swap1\n  pop\n    /* \"#utility.yul\":1651:1711   */\n  swap2\n  swap1\n  pop\n  jump\t// out\n    /* \"#utility.yul\":1717:1859   */\ntag_15:\n    /* \"#utility.yul\":1767:1776   */\n  0x00\n    /* \"#utility.yul\":1800:1853   */\n  tag_42\n    /* \"#utility.yul\":1818:1852   */\n  tag_43\n    /* \"#utility.yul\":1827:1851   */\n  tag_44\n    /* \"#utility.yul\":1845:1850   */\n  dup5\n    /* \"#utility.yul\":1827:1851   */\n  tag_13\n  jump\t// in\ntag_44:\n    /* \"#utility.yul\":1818:1852   */\n  tag_14\n  jump\t// in\ntag_43:\n    /* \"#utility.yul\":1800:1853   */\n  tag_13\n  jump\t// in\ntag_42:\n    /* \"#utility.yul\":1787:1853   */\n  swap1\n  pop\n    /* \"#utility.yul\":1717:1859   */\n  swap2\n  swap1\n  pop\n  jump\t// out\n    /* \"#utility.yul\":1865:1940   */\ntag_16:\n    /* \"#utility.yul\":1908:1911   */\n  0x00\n    /* \"#utility.yul\":1929:1934   */\n  dup2\n    /* \"#utility.yul\":1922:1934   */\n  swap1\n  pop\n    /* \"#utility.yul\":1865:1940   */\n  swap2\n  swap1\n  pop\n  jump\t// out\n    /* \"#utility.yul\":1946:2215   */\ntag_17:\n    /* \"#utility.yul\":2056:2095   */\n  tag_47\n    /* \"#utility.yul\":2087:2094   */\n  dup4\n    /* \"#utility.yul\":2056:2095   */\n  tag_15\n  jump\t// in\ntag_47:\n    /* \"#utility.yul\":2117:2208   */\n  tag_48\n    /* \"#utility.yul\":2166:2207   */\n  tag_49\n    /* \"#utility.yul\":2190:2206   */\n  dup3\n    /* \"#utility.yul\":2166:2207   */\n  tag_16\n  jump\t// in\ntag_49:\n    /* \"#utility.yul\":2158:2164   */\n  dup5\n    /* \"#utility.yul\":2151:2155   */\n  dup5\n    /* \"#utility.yul\":2145:2156   */\n  sload\n    /* \"#utility.yul\":2117:2208   */\n  tag_12\n  jump\t// in\ntag_48:\n    /* \"#utility.yul\":2111:2115   */\n  dup3\n    /* \"#utility.yul\":2104:2209   */\n  sstore\n    /* \"#utility.yul\":2022:2215   */\n  pop\n    /* \"#utility.yul\":1946:2215   */\n  pop\n  pop\n  pop\n  jump\t// out\n    /* \"#utility.yul\":2221:2294   */\ntag_18:\n    /* \"#utility.yul\":2266:2269   */\n  0x00\n    /* \"#utility.yul\":2221:2294   */\n  swap1\n  jump\t// out\n    /* \"#utility.yul\":2300:2489   */\ntag_19:\n    /* \"#utility.yul\":2377:2409   */\n  tag_52\n  tag_18\n  jump\t// in\ntag_52:\n    /* \"#utility.yul\":2418:2483   */\n  tag_53\n    /* \"#utility.yul\":2476:2482   */\n  dup2\n    /* \"#utility.yul\":2468:2474   */\n  dup5\n    /* \"#utility.yul\":2462:2466   */\n  dup5\n    /* \"#utility.yul\":2418:2483   */\n  tag_17\n  jump\t// in\ntag_53:\n    /* \"#utility.yul\":2353:2489   */\n  pop\n    /* \"#utility.yul\":2300:2489   */\n  pop\n  pop\n  jump\t// out\n    /* \"#utility.yul\":2495:2681   */\ntag_20:\n    /* \"#utility.yul\":2555:2675   */\ntag_55:\n    /* \"#utility.yul\":2572:2575   */\n  dup2\n    /* \"#utility.yul\":2565:2570   */\n  dup2\n    /* \"#utility.yul\":2562:2576   */\n  lt\n    /* \"#utility.yul\":2555:2675   */\n  iszero\n  tag_57\n  jumpi\n    /* \"#utility.yul\":2626:2665   */\n  tag_58\n    /* \"#utility.yul\":2663:2664   */\n  0x00\n    /* \"#utility.yul\":2656:2661   */\n  dup3\n    /* \"#utility.yul\":2626:2665   */\n  tag_19\n  jump\t// in\ntag_58:\n    /* \"#utility.yul\":2599:2600   */\n  0x01\n    /* \"#utility.yul\":2592:2597   */\n  dup2\n    /* \"#utility.yul\":2588:2601   */\n  add\n    /* \"#utility.yul\":2579:2601   */\n  swap1\n  pop\n    /* \"#utility.yul\":2555:2675   */\n  jump(tag_55)\ntag_57:\n    /* \"#utility.yul\":2495:2681   */\n  pop\n  pop\n  jump\t// out\n    /* \"#utility.yul\":2687:3230   */\ntag_21:\n    /* \"#utility.yul\":2788:2790   */\n  0x1f\n    /* \"#utility.yul\":2783:2786   */\n  dup3\n    /* \"#utility.yul\":2780:2791   */\n  gt\n    /* \"#utility.yul\":2777:3223   */\n  iszero\n  tag_60\n  jumpi\n    /* \"#utility.yul\":2822:2860   */\n  tag_61\n    /* \"#utility.yul\":2854:2859   */\n  dup2\n    /* \"#utility.yul\":2822:2860   */\n  tag_9\n  jump\t// in\ntag_61:\n    /* \"#utility.yul\":2906:2935   */\n  tag_62\n    /* \"#utility.yul\":2924:2934   */\n  dup5\n    /* \"#utility.yul\":2906:2935   */\n  tag_10\n  jump\t// in\ntag_62:\n    /* \"#utility.yul\":2896:2904   */\n  dup2\n    /* \"#utility.yul\":2892:2936   */\n  add\n    /* \"#utility.yul\":3089:3091   */\n  0x20\n    /* \"#utility.yul\":3077:3087   */\n  dup6\n    /* \"#utility.yul\":3074:3092   */\n  lt\n    /* \"#utility.yul\":3071:3120   */\n  iszero\n  tag_63\n  jumpi\n    /* \"#utility.yul\":3110:3118   */\n  dup2\n    /* \"#utility.yul\":3095:3118   */\n  swap1\n  pop\n    /* \"#utility.yul\":3071:3120   */\ntag_63:\n    /* \"#utility.yul\":3133:3213   */\n  tag_64\n    /* \"#utility.yul\":3189:3211   */\n  tag_65\n    /* \"#utility.yul\":3207:3210   */\n  dup6\n    /* \"#utility.yul\":3189:3211   */\n  tag_10\n  jump\t// in\ntag_65:\n    /* \"#utility.yul\":3179:3187   */\n  dup4\n    /* \"#utility.yul\":3175:3212   */\n  add\n    /* \"#utility.yul\":3162:3173   */\n  dup3\n    /* \"#utility.yul\":3133:3213   */\n  tag_20\n  jump\t// in\ntag_64:\n    /* \"#utility.yul\":2792:3223   */\n  pop\n  pop\n    /* \"#utility.yul\":2777:3223   */\ntag_60:\n    /* \"#utility.yul\":2687:3230   */\n  pop\n  pop\n  pop\n  jump\t// out\n    /* \"#utility.yul\":3236:3353   */\ntag_22:\n    /* \"#utility.yul\":3290:3298   */\n  0x00\n    /* \"#utility.yul\":3340:3345   */\n  dup3\n    /* \"#utility.yul\":3334:3338   */\n  dup3\n    /* \"#utility.yul\":3330:3346   */\n  shr\n    /* \"#utility.yul\":3309:3346   */\n  swap1\n  pop\n    /* \"#utility.yul\":3236:3353   */\n  swap3\n  swap2\n  pop\n  pop\n  jump\t// out\n    /* \"#utility.yul\":3359:3528   */\ntag_23:\n    /* \"#utility.yul\":3403:3409   */\n  0x00\n    /* \"#utility.yul\":3436:3487   */\n  tag_68\n    /* \"#utility.yul\":3484:3485   */\n  0x00\n    /* \"#utility.yul\":3480:3486   */\n  not\n    /* \"#utility.yul\":3472:3477   */\n  dup5\n    /* \"#utility.yul\":3469:3470   */\n  0x08\n    /* \"#utility.yul\":3465:3478   */\n  mul\n    /* \"#utility.yul\":3436:3487   */\n  tag_22\n  jump\t// in\ntag_68:\n    /* \"#utility.yul\":3432:3488   */\n  not\n    /* \"#utility.yul\":3517:3521   */\n  dup1\n    /* \"#utility.yul\":3511:3515   */\n  dup4\n    /* \"#utility.yul\":3507:3522   */\n  and\n    /* \"#utility.yul\":3497:3522   */\n  swap2\n  pop\n    /* \"#utility.yul\":3410:3528   */\n  pop\n    /* \"#utility.yul\":3359:3528   */\n  swap3\n  swap2\n  pop\n  pop\n  jump\t// out\n    /* \"#utility.yul\":3533:3828   */\ntag_24:\n    /* \"#utility.yul\":3609:3613   */\n  0x00\n    /* \"#utility.yul\":3755:3784   */\n  tag_70\n    /* \"#utility.yul\":3780:3783   */\n  dup4\n    /* \"#utility.yul\":3774:3778   */\n  dup4\n    /* \"#utility.yul\":3755:3784   */\n  tag_23\n  jump\t// in\ntag_70:\n    /* \"#utility.yul\":3747:3784   */\n  swap2\n  pop\n    /* \"#utility.yul\":3817:3820   */\n  dup3\n    /* \"#utility.yul\":3814:3815   */\n  0x02\n    /* \"#utility.yul\":3810:3821   */\n  mul\n    /* \"#utility.yul\":3804:3808   */\n  dup3\n    /* \"#utility.yul\":3801:3822   */\n  or\n    /* \"#utility.yul\":3793:3822   */\n  swap1\n  pop\n    /* \"#utility.yul\":3533:3828   */\n  swap3\n  swap2\n  pop\n  pop\n  jump\t// out\n    /* \"#utility.yul\":3833:5228   */\ntag_2:\n    /* \"#utility.yul\":3950:3987   */\n  tag_72\n    /* \"#utility.yul\":3983:3986   */\n  dup3\n    /* \"#utility.yul\":3950:3987   */\n  tag_5\n  jump\t// in\ntag_72:\n    /* \"#utility.yul\":4052:4070   */\n  0xffffffffffffffff\n    /* \"#utility.yul\":4044:4050   */\n  dup2\n    /* \"#utility.yul\":4041:4071   */\n  gt\n    /* \"#utility.yul\":4038:4094   */\n  iszero\n  tag_73\n  jumpi\n    /* \"#utility.yul\":4074:4092   */\n  tag_74\n  tag_6\n  jump\t// in\ntag_74:\n    /* \"#utility.yul\":4038:4094   */\ntag_73:\n    /* \"#utility.yul\":4118:4156   */\n  tag_75\n    /* \"#utility.yul\":4150:4154   */\n  dup3\n    /* \"#utility.yul\":4144:4155   */\n  sload\n    /* \"#utility.yul\":4118:4156   */\n  tag_8\n  jump\t// in\ntag_75:\n    /* \"#utility.yul\":4203:4270   */\n  tag_76\n    /* \"#utility.yul\":4263:4269   */\n  dup3\n    /* \"#utility.yul\":4255:4261   */\n  dup3\n    /* \"#utility.yul\":4249:4253   */\n  dup6\n    /* \"#utility.yul\":4203:4270   */\n  tag_21\n  jump\t// in\ntag_76:\n    /* \"#utility.yul\":4297:4298   */\n  0x00\n    /* \"#utility.yul\":4321:4325   */\n  0x20\n    /* \"#utility.yul\":4308:4325   */\n  swap1\n  pop\n    /* \"#utility.yul\":4353:4355   */\n  0x1f\n    /* \"#utility.yul\":4345:4351   */\n  dup4\n    /* \"#utility.yul\":4342:4356   */\n  gt\n    /* \"#utility.yul\":4370:4371   */\n  0x01\n    /* \"#utility.yul\":4365:4983   */\n  dup2\n  eq\n  tag_78\n  jumpi\n    /* \"#utility.yul\":5027:5028   */\n  0x00\n    /* \"#utility.yul\":5044:5050   */\n  dup5\n    /* \"#utility.yul\":5041:5118   */\n  iszero\n  tag_79\n  jumpi\n    /* \"#utility.yul\":5093:5102   */\n  dup3\n    /* \"#utility.yul\":5088:5091   */\n  dup8\n    /* \"#utility.yul\":5084:5103   */\n  add\n    /* \"#utility.yul\":5078:5104   */\n  mload\n    /* \"#utility.yul\":5069:5104   */\n  swap1\n  pop\n    /* \"#utility.yul\":5041:5118   */\ntag_79:\n    /* \"#utility.yul\":5144:5211   */\n  tag_80\n    /* \"#utility.yul\":5204:5210   */\n  dup6\n    /* \"#utility.yul\":5197:5202   */\n  dup3\n    /* \"#utility.yul\":5144:5211   */\n  tag_24\n  jump\t// in\ntag_80:\n    /* \"#utility.yul\":5138:5142   */\n  dup7\n    /* \"#utility.yul\":5131:5212   */\n  sstore\n    /* \"#utility.yul\":5000:5222   */\n  pop\n    /* \"#utility.yul\":4335:5222   */\n  jump(tag_77)\n    /* \"#utility.yul\":4365:4983   */\ntag_78:\n    /* \"#utility.yul\":4417:4421   */\n  0x1f\n    /* \"#utility.yul\":4413:4422   */\n  not\n    /* \"#utility.yul\":4405:4411   */\n  dup5\n    /* \"#utility.yul\":4401:4423   */\n  and\n    /* \"#utility.yul\":4451:4488   */\n  tag_81\n    /* \"#utility.yul\":4483:4487   */\n  dup7\n    /* \"#utility.yul\":4451:4488   */\n  tag_9\n  jump\t// in\ntag_81:\n    /* \"#utility.yul\":4510:4511   */\n  0x00\n    /* \"#utility.yul\":4524:4732   */\ntag_82:\n    /* \"#utility.yul\":4538:4545   */\n  dup3\n    /* \"#utility.yul\":4535:4536   */\n  dup2\n    /* \"#utility.yul\":4532:4546   */\n  lt\n    /* \"#utility.yul\":4524:4732   */\n  iszero\n  tag_84\n  jumpi\n    /* \"#utility.yul\":4617:4626   */\n  dup5\n    /* \"#utility.yul\":4612:4615   */\n  dup10\n    /* \"#utility.yul\":4608:4627   */\n  add\n    /* \"#utility.yul\":4602:4628   */\n  mload\n    /* \"#utility.yul\":4594:4600   */\n  dup3\n    /* \"#utility.yul\":4587:4629   */\n  sstore\n    /* \"#utility.yul\":4668:4669   */\n  0x01\n    /* \"#utility.yul\":4660:4666   */\n  dup3\n    /* \"#utility.yul\":4656:4670   */\n  add\n    /* \"#utility.yul\":4646:4670   */\n  swap2\n  pop\n    /* \"#utility.yul\":4715:4717   */\n  0x20\n    /* \"#utility.yul\":4704:4713   */\n  dup6\n    /* \"#utility.yul\":4700:4718   */\n  add\n    /* \"#utility.yul\":4687:4718   */\n  swap5\n  pop\n    /* \"#utility.yul\":4561:4565   */\n  0x20\n    /* \"#utility.yul\":4558:4559   */\n  dup2\n    /* \"#utility.yul\":4554:4566   */\n  add\n    /* \"#utility.yul\":4549:4566   */\n  swap1\n  pop\n    /* \"#utility.yul\":4524:4732   */\n  jump(tag_82)\ntag_84:\n    /* \"#utility.yul\":4760:4766   */\n  dup7\n    /* \"#utility.yul\":4751:4758   */\n  dup4\n    /* \"#utility.yul\":4748:4767   */\n  lt\n    /* \"#utility.yul\":4745:4924   */\n  iszero\n  tag_85\n  jumpi\n    /* \"#utility.yul\":4818:4827   */\n  dup5\n    /* \"#utility.yul\":4813:4816   */\n  dup10\n    /* \"#utility.yul\":4809:4828   */\n  add\n    /* \"#utility.yul\":4803:4829   */\n  mload\n    /* \"#utility.yul\":4861:4909   */\n  tag_86\n    /* \"#utility.yul\":4903:4907   */\n  0x1f\n    /* \"#utility.yul\":4895:4901   */\n  dup10\n    /* \"#utility.yul\":4891:4908   */\n  and\n    /* \"#utility.yul\":4880:4889   */\n  dup3\n    /* \"#utility.yul\":4861:4909   */\n  tag_23\n  jump\t// in\ntag_86:\n    /* \"#utility.yul\":4853:4859   */\n  dup4\n    /* \"#utility.yul\":4846:4910   */\n  sstore\n    /* \"#utility.yul\":4768:4924   */\n  pop\n    /* \"#utility.yul\":4745:4924   */\ntag_85:\n    /* \"#utility.yul\":4970:4971   */\n  0x01\n    /* \"#utility.yul\":4966:4967   */\n  0x02\n    /* \"#utility.yul\":4958:4964   */\n  dup9\n    /* \"#utility.yul\":4954:4968   */\n  mul\n    /* \"#utility.yul\":4950:4972   */\n  add\n    /* \"#utility.yul\":4944:4948   */\n  dup9\n    /* \"#utility.yul\":4937:4973   */\n  sstore\n    /* \"#utility.yul\":4372:4983   */\n  pop\n  pop\n  pop\n    /* \"#utility.yul\":4335:5222   */\ntag_77:\n  pop\n    /* \"#utility.yul\":3925:5228   */\n  pop\n  pop\n  pop\n    /* \"#utility.yul\":3833:5228   */\n  pop\n  pop\n  jump\t// out\n    /* \"Solidity 2023 Udemy Course/getterAndsetter.sol\":69:520  contract Property{... */\ntag_4:\n  dataSize(sub_0)\n  dup1\n  dataOffset(sub_0)\n  0x00\n  codecopy\n  0x00\n  return\nstop\n\nsub_0: assembly {\n        /* \"Solidity 2023 Udemy Course/getterAndsetter.sol\":69:520  contract Property{... */\n      mstore(0x40, 0x80)\n      callvalue\n      dup1\n      iszero\n      tag_1\n      jumpi\n      0x00\n      dup1\n      revert\n    tag_1:\n      pop\n      jumpi(tag_2, lt(calldatasize, 0x04))\n      shr(0xe0, calldataload(0x00))\n      dup1\n      0x516f279e\n      eq\n      tag_3\n      jumpi\n      dup1\n      0x827bfbdf\n      eq\n      tag_4\n      jumpi\n      dup1\n      0x98d5fdca\n      eq\n      tag_5\n      jumpi\n      dup1\n      0xa035b1fe\n      eq\n      tag_6\n      jumpi\n      dup1\n      0xce2ce3fc\n      eq\n      tag_7\n      jumpi\n      dup1\n      0xf7a30806\n      eq\n      tag_8\n      jumpi\n    tag_2:\n      0x00\n      dup1\n      revert\n        /* \"Solidity 2023 Udemy Course/getterAndsetter.sol\":116:150  string public location=\"New Delhi\" */\n    tag_3:\n      tag_9\n      tag_10\n      jump\t// in\n    tag_9:\n      mload(0x40)\n      tag_11\n      swap2\n      swap1\n      tag_12\n      jump\t// in\n    tag_11:\n      mload(0x40)\n      dup1\n      swap2\n      sub\n      swap1\n      return\n        /* \"Solidity 2023 Udemy Course/getterAndsetter.sol\":317:412  function setLocation(string memory mem_location) public{... */\n    tag_4:\n      tag_13\n      0x04\n      dup1\n      calldatasize\n      sub\n      dup2\n      add\n      swap1\n      tag_14\n      swap2\n      swap1\n      tag_15\n      jump\t// in\n    tag_14:\n      tag_16\n      jump\t// in\n    tag_13:\n      stop\n        /* \"Solidity 2023 Udemy Course/getterAndsetter.sol\":234:309  function getPrice() public view returns(int){... */\n    tag_5:\n      tag_17\n      tag_18\n      jump\t// in\n    tag_17:\n      mload(0x40)\n      tag_19\n      swap2\n      swap1\n      tag_20\n      jump\t// in\n    tag_19:\n      mload(0x40)\n      dup1\n      swap2\n      sub\n      swap1\n      return\n        /* \"Solidity 2023 Udemy Course/getterAndsetter.sol\":93:109  int public price */\n    tag_6:\n      tag_21\n      tag_22\n      jump\t// in\n    tag_21:\n      mload(0x40)\n      tag_23\n      swap2\n      swap1\n      tag_20\n      jump\t// in\n    tag_23:\n      mload(0x40)\n      dup1\n      swap2\n      sub\n      swap1\n      return\n        /* \"Solidity 2023 Udemy Course/getterAndsetter.sol\":418:509  function getLocation() public view returns(string memory){... */\n    tag_7:\n      tag_24\n      tag_25\n      jump\t// in\n    tag_24:\n      mload(0x40)\n      tag_26\n      swap2\n      swap1\n      tag_12\n      jump\t// in\n    tag_26:\n      mload(0x40)\n      dup1\n      swap2\n      sub\n      swap1\n      return\n        /* \"Solidity 2023 Udemy Course/getterAndsetter.sol\":159:226  function setPrice(int _price) public{... */\n    tag_8:\n      tag_27\n      0x04\n      dup1\n      calldatasize\n      sub\n      dup2\n      add\n      swap1\n      tag_28\n      swap2\n      swap1\n      tag_29\n      jump\t// in\n    tag_28:\n      tag_30\n      jump\t// in\n    tag_27:\n      stop\n        /* \"Solidity 2023 Udemy Course/getterAndsetter.sol\":116:150  string public location=\"New Delhi\" */\n    tag_10:\n      0x01\n      dup1\n      sload\n      tag_31\n      swap1\n      tag_32\n      jump\t// in\n    tag_31:\n      dup1\n      0x1f\n      add\n      0x20\n      dup1\n      swap2\n      div\n      mul\n      0x20\n      add\n      mload(0x40)\n      swap1\n      dup2\n      add\n      0x40\n      mstore\n      dup1\n      swap3\n      swap2\n      swap1\n      dup2\n      dup2\n      mstore\n      0x20\n      add\n      dup3\n      dup1\n      sload\n      tag_33\n      swap1\n      tag_32\n      jump\t// in\n    tag_33:\n      dup1\n      iszero\n      tag_34\n      jumpi\n      dup1\n      0x1f\n      lt\n      tag_35\n      jumpi\n      0x0100\n      dup1\n      dup4\n      sload\n      div\n      mul\n      dup4\n      mstore\n      swap2\n      0x20\n      add\n      swap2\n      jump(tag_34)\n    tag_35:\n      dup3\n      add\n      swap2\n      swap1\n      0x00\n      mstore\n      keccak256(0x00, 0x20)\n      swap1\n    tag_36:\n      dup2\n      sload\n      dup2\n      mstore\n      swap1\n      0x01\n      add\n      swap1\n      0x20\n      add\n      dup1\n      dup4\n      gt\n      tag_36\n      jumpi\n      dup3\n      swap1\n      sub\n      0x1f\n      and\n      dup3\n      add\n      swap2\n    tag_34:\n      pop\n      pop\n      pop\n      pop\n      pop\n      dup2\n      jump\t// out\n        /* \"Solidity 2023 Udemy Course/getterAndsetter.sol\":317:412  function setLocation(string memory mem_location) public{... */\n    tag_16:\n        /* \"Solidity 2023 Udemy Course/getterAndsetter.sol\":392:404  mem_location */\n      dup1\n        /* \"Solidity 2023 Udemy Course/getterAndsetter.sol\":383:391  location */\n      0x01\n        /* \"Solidity 2023 Udemy Course/getterAndsetter.sol\":383:404  location=mem_location */\n      swap1\n      dup2\n      tag_38\n      swap2\n      swap1\n      tag_39\n      jump\t// in\n    tag_38:\n      pop\n        /* \"Solidity 2023 Udemy Course/getterAndsetter.sol\":317:412  function setLocation(string memory mem_location) public{... */\n      pop\n      jump\t// out\n        /* \"Solidity 2023 Udemy Course/getterAndsetter.sol\":234:309  function getPrice() public view returns(int){... */\n    tag_18:\n        /* \"Solidity 2023 Udemy Course/getterAndsetter.sol\":274:277  int */\n      0x00\n        /* \"Solidity 2023 Udemy Course/getterAndsetter.sol\":296:301  price */\n      dup1\n      sload\n        /* \"Solidity 2023 Udemy Course/getterAndsetter.sol\":289:301  return price */\n      swap1\n      pop\n        /* \"Solidity 2023 Udemy Course/getterAndsetter.sol\":234:309  function getPrice() public view returns(int){... */\n      swap1\n      jump\t// out\n        /* \"Solidity 2023 Udemy Course/getterAndsetter.sol\":93:109  int public price */\n    tag_22:\n      sload(0x00)\n      dup2\n      jump\t// out\n        /* \"Solidity 2023 Udemy Course/getterAndsetter.sol\":418:509  function getLocation() public view returns(string memory){... */\n    tag_25:\n        /* \"Solidity 2023 Udemy Course/getterAndsetter.sol\":461:474  string memory */\n      0x60\n        /* \"Solidity 2023 Udemy Course/getterAndsetter.sol\":493:501  location */\n      0x01\n        /* \"Solidity 2023 Udemy Course/getterAndsetter.sol\":486:501  return location */\n      dup1\n      sload\n      tag_42\n      swap1\n      tag_32\n      jump\t// in\n    tag_42:\n      dup1\n      0x1f\n      add\n      0x20\n      dup1\n      swap2\n      div\n      mul\n      0x20\n      add\n      mload(0x40)\n      swap1\n      dup2\n      add\n      0x40\n      mstore\n      dup1\n      swap3\n      swap2\n      swap1\n      dup2\n      dup2\n      mstore\n      0x20\n      add\n      dup3\n      dup1\n      sload\n      tag_43\n      swap1\n      tag_32\n      jump\t// in\n    tag_43:\n      dup1\n      iszero\n      tag_44\n      jumpi\n      dup1\n      0x1f\n      lt\n      tag_45\n      jumpi\n      0x0100\n      dup1\n      dup4\n      sload\n      div\n      mul\n      dup4\n      mstore\n      swap2\n      0x20\n      add\n      swap2\n      jump(tag_44)\n    tag_45:\n      dup3\n      add\n      swap2\n      swap1\n      0x00\n      mstore\n      keccak256(0x00, 0x20)\n      swap1\n    tag_46:\n      dup2\n      sload\n      dup2\n      mstore\n      swap1\n      0x01\n      add\n      swap1\n      0x20\n      add\n      dup1\n      dup4\n      gt\n      tag_46\n      jumpi\n      dup3\n      swap1\n      sub\n      0x1f\n      and\n      dup3\n      add\n      swap2\n    tag_44:\n      pop\n      pop\n      pop\n      pop\n      pop\n      swap1\n      pop\n        /* \"Solidity 2023 Udemy Course/getterAndsetter.sol\":418:509  function getLocation() public view returns(string memory){... */\n      swap1\n      jump\t// out\n        /* \"Solidity 2023 Udemy Course/getterAndsetter.sol\":159:226  function setPrice(int _price) public{... */\n    tag_30:\n        /* \"Solidity 2023 Udemy Course/getterAndsetter.sol\":212:218  _price */\n      dup1\n        /* \"Solidity 2023 Udemy Course/getterAndsetter.sol\":206:211  price */\n      0x00\n        /* \"Solidity 2023 Udemy Course/getterAndsetter.sol\":206:218  price=_price */\n      dup2\n      swap1\n      sstore\n      pop\n        /* \"Solidity 2023 Udemy Course/getterAndsetter.sol\":159:226  function setPrice(int _price) public{... */\n      pop\n      jump\t// out\n        /* \"#utility.yul\":7:106   */\n    tag_48:\n        /* \"#utility.yul\":59:65   */\n      0x00\n        /* \"#utility.yul\":93:98   */\n      dup2\n        /* \"#utility.yul\":87:99   */\n      mload\n        /* \"#utility.yul\":77:99   */\n      swap1\n      pop\n        /* \"#utility.yul\":7:106   */\n      swap2\n      swap1\n      pop\n      jump\t// out\n        /* \"#utility.yul\":112:281   */\n    tag_49:\n        /* \"#utility.yul\":196:207   */\n      0x00\n        /* \"#utility.yul\":230:236   */\n      dup3\n        /* \"#utility.yul\":225:228   */\n      dup3\n        /* \"#utility.yul\":218:237   */\n      mstore\n        /* \"#utility.yul\":270:274   */\n      0x20\n        /* \"#utility.yul\":265:268   */\n      dup3\n        /* \"#utility.yul\":261:275   */\n      add\n        /* \"#utility.yul\":246:275   */\n      swap1\n      pop\n        /* \"#utility.yul\":112:281   */\n      swap3\n      swap2\n      pop\n      pop\n      jump\t// out\n        /* \"#utility.yul\":287:533   */\n    tag_50:\n        /* \"#utility.yul\":368:369   */\n      0x00\n        /* \"#utility.yul\":378:491   */\n    tag_90:\n        /* \"#utility.yul\":392:398   */\n      dup4\n        /* \"#utility.yul\":389:390   */\n      dup2\n        /* \"#utility.yul\":386:399   */\n      lt\n        /* \"#utility.yul\":378:491   */\n      iszero\n      tag_92\n      jumpi\n        /* \"#utility.yul\":477:478   */\n      dup1\n        /* \"#utility.yul\":472:475   */\n      dup3\n        /* \"#utility.yul\":468:479   */\n      add\n        /* \"#utility.yul\":462:480   */\n      mload\n        /* \"#utility.yul\":458:459   */\n      dup2\n        /* \"#utility.yul\":453:456   */\n      dup5\n        /* \"#utility.yul\":449:460   */\n      add\n        /* \"#utility.yul\":442:481   */\n      mstore\n        /* \"#utility.yul\":414:416   */\n      0x20\n        /* \"#utility.yul\":411:412   */\n      dup2\n        /* \"#utility.yul\":407:417   */\n      add\n        /* \"#utility.yul\":402:417   */\n      swap1\n      pop\n        /* \"#utility.yul\":378:491   */\n      jump(tag_90)\n    tag_92:\n        /* \"#utility.yul\":525:526   */\n      0x00\n        /* \"#utility.yul\":516:522   */\n      dup5\n        /* \"#utility.yul\":511:514   */\n      dup5\n        /* \"#utility.yul\":507:523   */\n      add\n        /* \"#utility.yul\":500:527   */\n      mstore\n        /* \"#utility.yul\":349:533   */\n      pop\n        /* \"#utility.yul\":287:533   */\n      pop\n      pop\n      pop\n      jump\t// out\n        /* \"#utility.yul\":539:641   */\n    tag_51:\n        /* \"#utility.yul\":580:586   */\n      0x00\n        /* \"#utility.yul\":631:633   */\n      0x1f\n        /* \"#utility.yul\":627:634   */\n      not\n        /* \"#utility.yul\":622:624   */\n      0x1f\n        /* \"#utility.yul\":615:620   */\n      dup4\n        /* \"#utility.yul\":611:625   */\n      add\n        /* \"#utility.yul\":607:635   */\n      and\n        /* \"#utility.yul\":597:635   */\n      swap1\n      pop\n        /* \"#utility.yul\":539:641   */\n      swap2\n      swap1\n      pop\n      jump\t// out\n        /* \"#utility.yul\":647:1024   */\n    tag_52:\n        /* \"#utility.yul\":735:738   */\n      0x00\n        /* \"#utility.yul\":763:802   */\n      tag_95\n        /* \"#utility.yul\":796:801   */\n      dup3\n        /* \"#utility.yul\":763:802   */\n      tag_48\n      jump\t// in\n    tag_95:\n        /* \"#utility.yul\":818:889   */\n      tag_96\n        /* \"#utility.yul\":882:888   */\n      dup2\n        /* \"#utility.yul\":877:880   */\n      dup6\n        /* \"#utility.yul\":818:889   */\n      tag_49\n      jump\t// in\n    tag_96:\n        /* \"#utility.yul\":811:889   */\n      swap4\n      pop\n        /* \"#utility.yul\":898:963   */\n      tag_97\n        /* \"#utility.yul\":956:962   */\n      dup2\n        /* \"#utility.yul\":951:954   */\n      dup6\n        /* \"#utility.yul\":944:948   */\n      0x20\n        /* \"#utility.yul\":937:942   */\n      dup7\n        /* \"#utility.yul\":933:949   */\n      add\n        /* \"#utility.yul\":898:963   */\n      tag_50\n      jump\t// in\n    tag_97:\n        /* \"#utility.yul\":988:1017   */\n      tag_98\n        /* \"#utility.yul\":1010:1016   */\n      dup2\n        /* \"#utility.yul\":988:1017   */\n      tag_51\n      jump\t// in\n    tag_98:\n        /* \"#utility.yul\":983:986   */\n      dup5\n        /* \"#utility.yul\":979:1018   */\n      add\n        /* \"#utility.yul\":972:1018   */\n      swap2\n      pop\n        /* \"#utility.yul\":739:1024   */\n      pop\n        /* \"#utility.yul\":647:1024   */\n      swap3\n      swap2\n      pop\n      pop\n      jump\t// out\n        /* \"#utility.yul\":1030:1343   */\n    tag_12:\n        /* \"#utility.yul\":1143:1147   */\n      0x00\n        /* \"#utility.yul\":1181:1183   */\n      0x20\n        /* \"#utility.yul\":1170:1179   */\n      dup3\n        /* \"#utility.yul\":1166:1184   */\n      add\n        /* \"#utility.yul\":1158:1184   */\n      swap1\n      pop\n        /* \"#utility.yul\":1230:1239   */\n      dup2\n        /* \"#utility.yul\":1224:1228   */\n      dup2\n        /* \"#utility.yul\":1220:1240   */\n      sub\n        /* \"#utility.yul\":1216:1217   */\n      0x00\n        /* \"#utility.yul\":1205:1214   */\n      dup4\n        /* \"#utility.yul\":1201:1218   */\n      add\n        /* \"#utility.yul\":1194:1241   */\n      mstore\n        /* \"#utility.yul\":1258:1336   */\n      tag_100\n        /* \"#utility.yul\":1331:1335   */\n      dup2\n        /* \"#utility.yul\":1322:1328   */\n      dup5\n        /* \"#utility.yul\":1258:1336   */\n      tag_52\n      jump\t// in\n    tag_100:\n        /* \"#utility.yul\":1250:1336   */\n      swap1\n      pop\n        /* \"#utility.yul\":1030:1343   */\n      swap3\n      swap2\n      pop\n      pop\n      jump\t// out\n        /* \"#utility.yul\":1349:1424   */\n    tag_53:\n        /* \"#utility.yul\":1382:1388   */\n      0x00\n        /* \"#utility.yul\":1415:1417   */\n      0x40\n        /* \"#utility.yul\":1409:1418   */\n      mload\n        /* \"#utility.yul\":1399:1418   */\n      swap1\n      pop\n        /* \"#utility.yul\":1349:1424   */\n      swap1\n      jump\t// out\n        /* \"#utility.yul\":1430:1547   */\n    tag_54:\n        /* \"#utility.yul\":1539:1540   */\n      0x00\n        /* \"#utility.yul\":1536:1537   */\n      dup1\n        /* \"#utility.yul\":1529:1541   */\n      revert\n        /* \"#utility.yul\":1553:1670   */\n    tag_55:\n        /* \"#utility.yul\":1662:1663   */\n      0x00\n        /* \"#utility.yul\":1659:1660   */\n      dup1\n        /* \"#utility.yul\":1652:1664   */\n      revert\n        /* \"#utility.yul\":1676:1793   */\n    tag_56:\n        /* \"#utility.yul\":1785:1786   */\n      0x00\n        /* \"#utility.yul\":1782:1783   */\n      dup1\n        /* \"#utility.yul\":1775:1787   */\n      revert\n        /* \"#utility.yul\":1799:1916   */\n    tag_57:\n        /* \"#utility.yul\":1908:1909   */\n      0x00\n        /* \"#utility.yul\":1905:1906   */\n      dup1\n        /* \"#utility.yul\":1898:1910   */\n      revert\n        /* \"#utility.yul\":1922:2102   */\n    tag_58:\n        /* \"#utility.yul\":1970:2047   */\n      0x4e487b7100000000000000000000000000000000000000000000000000000000\n        /* \"#utility.yul\":1967:1968   */\n      0x00\n        /* \"#utility.yul\":1960:2048   */\n      mstore\n        /* \"#utility.yul\":2067:2071   */\n      0x41\n        /* \"#utility.yul\":2064:2065   */\n      0x04\n        /* \"#utility.yul\":2057:2072   */\n      mstore\n        /* \"#utility.yul\":2091:2095   */\n      0x24\n        /* \"#utility.yul\":2088:2089   */\n      0x00\n        /* \"#utility.yul\":2081:2096   */\n      revert\n        /* \"#utility.yul\":2108:2389   */\n    tag_59:\n        /* \"#utility.yul\":2191:2218   */\n      tag_108\n        /* \"#utility.yul\":2213:2217   */\n      dup3\n        /* \"#utility.yul\":2191:2218   */\n      tag_51\n      jump\t// in\n    tag_108:\n        /* \"#utility.yul\":2183:2189   */\n      dup2\n        /* \"#utility.yul\":2179:2219   */\n      add\n        /* \"#utility.yul\":2321:2327   */\n      dup2\n        /* \"#utility.yul\":2309:2319   */\n      dup2\n        /* \"#utility.yul\":2306:2328   */\n      lt\n        /* \"#utility.yul\":2285:2303   */\n      0xffffffffffffffff\n        /* \"#utility.yul\":2273:2283   */\n      dup3\n        /* \"#utility.yul\":2270:2304   */\n      gt\n        /* \"#utility.yul\":2267:2329   */\n      or\n        /* \"#utility.yul\":2264:2352   */\n      iszero\n      tag_109\n      jumpi\n        /* \"#utility.yul\":2332:2350   */\n      tag_110\n      tag_58\n      jump\t// in\n    tag_110:\n        /* \"#utility.yul\":2264:2352   */\n    tag_109:\n        /* \"#utility.yul\":2372:2382   */\n      dup1\n        /* \"#utility.yul\":2368:2370   */\n      0x40\n        /* \"#utility.yul\":2361:2383   */\n      mstore\n        /* \"#utility.yul\":2151:2389   */\n      pop\n        /* \"#utility.yul\":2108:2389   */\n      pop\n      pop\n      jump\t// out\n        /* \"#utility.yul\":2395:2524   */\n    tag_60:\n        /* \"#utility.yul\":2429:2435   */\n      0x00\n        /* \"#utility.yul\":2456:2476   */\n      tag_112\n      tag_53\n      jump\t// in\n    tag_112:\n        /* \"#utility.yul\":2446:2476   */\n      swap1\n      pop\n        /* \"#utility.yul\":2485:2518   */\n      tag_113\n        /* \"#utility.yul\":2513:2517   */\n      dup3\n        /* \"#utility.yul\":2505:2511   */\n      dup3\n        /* \"#utility.yul\":2485:2518   */\n      tag_59\n      jump\t// in\n    tag_113:\n        /* \"#utility.yul\":2395:2524   */\n      swap2\n      swap1\n      pop\n      jump\t// out\n        /* \"#utility.yul\":2530:2838   */\n    tag_61:\n        /* \"#utility.yul\":2592:2596   */\n      0x00\n        /* \"#utility.yul\":2682:2700   */\n      0xffffffffffffffff\n        /* \"#utility.yul\":2674:2680   */\n      dup3\n        /* \"#utility.yul\":2671:2701   */\n      gt\n        /* \"#utility.yul\":2668:2724   */\n      iszero\n      tag_115\n      jumpi\n        /* \"#utility.yul\":2704:2722   */\n      tag_116\n      tag_58\n      jump\t// in\n    tag_116:\n        /* \"#utility.yul\":2668:2724   */\n    tag_115:\n        /* \"#utility.yul\":2742:2771   */\n      tag_117\n        /* \"#utility.yul\":2764:2770   */\n      dup3\n        /* \"#utility.yul\":2742:2771   */\n      tag_51\n      jump\t// in\n    tag_117:\n        /* \"#utility.yul\":2734:2771   */\n      swap1\n      pop\n        /* \"#utility.yul\":2826:2830   */\n      0x20\n        /* \"#utility.yul\":2820:2824   */\n      dup2\n        /* \"#utility.yul\":2816:2831   */\n      add\n        /* \"#utility.yul\":2808:2831   */\n      swap1\n      pop\n        /* \"#utility.yul\":2530:2838   */\n      swap2\n      swap1\n      pop\n      jump\t// out\n        /* \"#utility.yul\":2844:2990   */\n    tag_62:\n        /* \"#utility.yul\":2941:2947   */\n      dup3\n        /* \"#utility.yul\":2936:2939   */\n      dup2\n        /* \"#utility.yul\":2931:2934   */\n      dup4\n        /* \"#utility.yul\":2918:2948   */\n      calldatacopy\n        /* \"#utility.yul\":2982:2983   */\n      0x00\n        /* \"#utility.yul\":2973:2979   */\n      dup4\n        /* \"#utility.yul\":2968:2971   */\n      dup4\n        /* \"#utility.yul\":2964:2980   */\n      add\n        /* \"#utility.yul\":2957:2984   */\n      mstore\n        /* \"#utility.yul\":2844:2990   */\n      pop\n      pop\n      pop\n      jump\t// out\n        /* \"#utility.yul\":2996:3421   */\n    tag_63:\n        /* \"#utility.yul\":3074:3079   */\n      0x00\n        /* \"#utility.yul\":3099:3165   */\n      tag_120\n        /* \"#utility.yul\":3115:3164   */\n      tag_121\n        /* \"#utility.yul\":3157:3163   */\n      dup5\n        /* \"#utility.yul\":3115:3164   */\n      tag_61\n      jump\t// in\n    tag_121:\n        /* \"#utility.yul\":3099:3165   */\n      tag_60\n      jump\t// in\n    tag_120:\n        /* \"#utility.yul\":3090:3165   */\n      swap1\n      pop\n        /* \"#utility.yul\":3188:3194   */\n      dup3\n        /* \"#utility.yul\":3181:3186   */\n      dup2\n        /* \"#utility.yul\":3174:3195   */\n      mstore\n        /* \"#utility.yul\":3226:3230   */\n      0x20\n        /* \"#utility.yul\":3219:3224   */\n      dup2\n        /* \"#utility.yul\":3215:3231   */\n      add\n        /* \"#utility.yul\":3264:3267   */\n      dup5\n        /* \"#utility.yul\":3255:3261   */\n      dup5\n        /* \"#utility.yul\":3250:3253   */\n      dup5\n        /* \"#utility.yul\":3246:3262   */\n      add\n        /* \"#utility.yul\":3243:3268   */\n      gt\n        /* \"#utility.yul\":3240:3352   */\n      iszero\n      tag_122\n      jumpi\n        /* \"#utility.yul\":3271:3350   */\n      tag_123\n      tag_57\n      jump\t// in\n    tag_123:\n        /* \"#utility.yul\":3240:3352   */\n    tag_122:\n        /* \"#utility.yul\":3361:3415   */\n      tag_124\n        /* \"#utility.yul\":3408:3414   */\n      dup5\n        /* \"#utility.yul\":3403:3406   */\n      dup3\n        /* \"#utility.yul\":3398:3401   */\n      dup6\n        /* \"#utility.yul\":3361:3415   */\n      tag_62\n      jump\t// in\n    tag_124:\n        /* \"#utility.yul\":3080:3421   */\n      pop\n        /* \"#utility.yul\":2996:3421   */\n      swap4\n      swap3\n      pop\n      pop\n      pop\n      jump\t// out\n        /* \"#utility.yul\":3441:3781   */\n    tag_64:\n        /* \"#utility.yul\":3497:3502   */\n      0x00\n        /* \"#utility.yul\":3546:3549   */\n      dup3\n        /* \"#utility.yul\":3539:3543   */\n      0x1f\n        /* \"#utility.yul\":3531:3537   */\n      dup4\n        /* \"#utility.yul\":3527:3544   */\n      add\n        /* \"#utility.yul\":3523:3550   */\n      slt\n        /* \"#utility.yul\":3513:3635   */\n      tag_126\n      jumpi\n        /* \"#utility.yul\":3554:3633   */\n      tag_127\n      tag_56\n      jump\t// in\n    tag_127:\n        /* \"#utility.yul\":3513:3635   */\n    tag_126:\n        /* \"#utility.yul\":3671:3677   */\n      dup2\n        /* \"#utility.yul\":3658:3678   */\n      calldataload\n        /* \"#utility.yul\":3696:3775   */\n      tag_128\n        /* \"#utility.yul\":3771:3774   */\n      dup5\n        /* \"#utility.yul\":3763:3769   */\n      dup3\n        /* \"#utility.yul\":3756:3760   */\n      0x20\n        /* \"#utility.yul\":3748:3754   */\n      dup7\n        /* \"#utility.yul\":3744:3761   */\n      add\n        /* \"#utility.yul\":3696:3775   */\n      tag_63\n      jump\t// in\n    tag_128:\n        /* \"#utility.yul\":3687:3775   */\n      swap2\n      pop\n        /* \"#utility.yul\":3503:3781   */\n      pop\n        /* \"#utility.yul\":3441:3781   */\n      swap3\n      swap2\n      pop\n      pop\n      jump\t// out\n        /* \"#utility.yul\":3787:4296   */\n    tag_15:\n        /* \"#utility.yul\":3856:3862   */\n      0x00\n        /* \"#utility.yul\":3905:3907   */\n      0x20\n        /* \"#utility.yul\":3893:3902   */\n      dup3\n        /* \"#utility.yul\":3884:3891   */\n      dup5\n        /* \"#utility.yul\":3880:3903   */\n      sub\n        /* \"#utility.yul\":3876:3908   */\n      slt\n        /* \"#utility.yul\":3873:3992   */\n      iszero\n      tag_130\n      jumpi\n        /* \"#utility.yul\":3911:3990   */\n      tag_131\n      tag_54\n      jump\t// in\n    tag_131:\n        /* \"#utility.yul\":3873:3992   */\n    tag_130:\n        /* \"#utility.yul\":4059:4060   */\n      0x00\n        /* \"#utility.yul\":4048:4057   */\n      dup3\n        /* \"#utility.yul\":4044:4061   */\n      add\n        /* \"#utility.yul\":4031:4062   */\n      calldataload\n        /* \"#utility.yul\":4089:4107   */\n      0xffffffffffffffff\n        /* \"#utility.yul\":4081:4087   */\n      dup2\n        /* \"#utility.yul\":4078:4108   */\n      gt\n        /* \"#utility.yul\":4075:4192   */\n      iszero\n      tag_132\n      jumpi\n        /* \"#utility.yul\":4111:4190   */\n      tag_133\n      tag_55\n      jump\t// in\n    tag_133:\n        /* \"#utility.yul\":4075:4192   */\n    tag_132:\n        /* \"#utility.yul\":4216:4279   */\n      tag_134\n        /* \"#utility.yul\":4271:4278   */\n      dup5\n        /* \"#utility.yul\":4262:4268   */\n      dup3\n        /* \"#utility.yul\":4251:4260   */\n      dup6\n        /* \"#utility.yul\":4247:4269   */\n      add\n        /* \"#utility.yul\":4216:4279   */\n      tag_64\n      jump\t// in\n    tag_134:\n        /* \"#utility.yul\":4206:4279   */\n      swap2\n      pop\n        /* \"#utility.yul\":4002:4289   */\n      pop\n        /* \"#utility.yul\":3787:4296   */\n      swap3\n      swap2\n      pop\n      pop\n      jump\t// out\n        /* \"#utility.yul\":4302:4378   */\n    tag_65:\n        /* \"#utility.yul\":4338:4345   */\n      0x00\n        /* \"#utility.yul\":4367:4372   */\n      dup2\n        /* \"#utility.yul\":4356:4372   */\n      swap1\n      pop\n        /* \"#utility.yul\":4302:4378   */\n      swap2\n      swap1\n      pop\n      jump\t// out\n        /* \"#utility.yul\":4384:4499   */\n    tag_66:\n        /* \"#utility.yul\":4469:4492   */\n      tag_137\n        /* \"#utility.yul\":4486:4491   */\n      dup2\n        /* \"#utility.yul\":4469:4492   */\n      tag_65\n      jump\t// in\n    tag_137:\n        /* \"#utility.yul\":4464:4467   */\n      dup3\n        /* \"#utility.yul\":4457:4493   */\n      mstore\n        /* \"#utility.yul\":4384:4499   */\n      pop\n      pop\n      jump\t// out\n        /* \"#utility.yul\":4505:4723   */\n    tag_20:\n        /* \"#utility.yul\":4596:4600   */\n      0x00\n        /* \"#utility.yul\":4634:4636   */\n      0x20\n        /* \"#utility.yul\":4623:4632   */\n      dup3\n        /* \"#utility.yul\":4619:4637   */\n      add\n        /* \"#utility.yul\":4611:4637   */\n      swap1\n      pop\n        /* \"#utility.yul\":4647:4716   */\n      tag_139\n        /* \"#utility.yul\":4713:4714   */\n      0x00\n        /* \"#utility.yul\":4702:4711   */\n      dup4\n        /* \"#utility.yul\":4698:4715   */\n      add\n        /* \"#utility.yul\":4689:4695   */\n      dup5\n        /* \"#utility.yul\":4647:4716   */\n      tag_66\n      jump\t// in\n    tag_139:\n        /* \"#utility.yul\":4505:4723   */\n      swap3\n      swap2\n      pop\n      pop\n      jump\t// out\n        /* \"#utility.yul\":4729:4849   */\n    tag_67:\n        /* \"#utility.yul\":4801:4824   */\n      tag_141\n        /* \"#utility.yul\":4818:4823   */\n      dup2\n        /* \"#utility.yul\":4801:4824   */\n      tag_65\n      jump\t// in\n    tag_141:\n        /* \"#utility.yul\":4794:4799   */\n      dup2\n        /* \"#utility.yul\":4791:4825   */\n      eq\n        /* \"#utility.yul\":4781:4843   */\n      tag_142\n      jumpi\n        /* \"#utility.yul\":4839:4840   */\n      0x00\n        /* \"#utility.yul\":4836:4837   */\n      dup1\n        /* \"#utility.yul\":4829:4841   */\n      revert\n        /* \"#utility.yul\":4781:4843   */\n    tag_142:\n        /* \"#utility.yul\":4729:4849   */\n      pop\n      jump\t// out\n        /* \"#utility.yul\":4855:4992   */\n    tag_68:\n        /* \"#utility.yul\":4900:4905   */\n      0x00\n        /* \"#utility.yul\":4938:4944   */\n      dup2\n        /* \"#utility.yul\":4925:4945   */\n      calldataload\n        /* \"#utility.yul\":4916:4945   */\n      swap1\n      pop\n        /* \"#utility.yul\":4954:4986   */\n      tag_144\n        /* \"#utility.yul\":4980:4985   */\n      dup2\n        /* \"#utility.yul\":4954:4986   */\n      tag_67\n      jump\t// in\n    tag_144:\n        /* \"#utility.yul\":4855:4992   */\n      swap3\n      swap2\n      pop\n      pop\n      jump\t// out\n        /* \"#utility.yul\":4998:5325   */\n    tag_29:\n        /* \"#utility.yul\":5056:5062   */\n      0x00\n        /* \"#utility.yul\":5105:5107   */\n      0x20\n        /* \"#utility.yul\":5093:5102   */\n      dup3\n        /* \"#utility.yul\":5084:5091   */\n      dup5\n        /* \"#utility.yul\":5080:5103   */\n      sub\n        /* \"#utility.yul\":5076:5108   */\n      slt\n        /* \"#utility.yul\":5073:5192   */\n      iszero\n      tag_146\n      jumpi\n        /* \"#utility.yul\":5111:5190   */\n      tag_147\n      tag_54\n      jump\t// in\n    tag_147:\n        /* \"#utility.yul\":5073:5192   */\n    tag_146:\n        /* \"#utility.yul\":5231:5232   */\n      0x00\n        /* \"#utility.yul\":5256:5308   */\n      tag_148\n        /* \"#utility.yul\":5300:5307   */\n      dup5\n        /* \"#utility.yul\":5291:5297   */\n      dup3\n        /* \"#utility.yul\":5280:5289   */\n      dup6\n        /* \"#utility.yul\":5276:5298   */\n      add\n        /* \"#utility.yul\":5256:5308   */\n      tag_68\n      jump\t// in\n    tag_148:\n        /* \"#utility.yul\":5246:5308   */\n      swap2\n      pop\n        /* \"#utility.yul\":5202:5318   */\n      pop\n        /* \"#utility.yul\":4998:5325   */\n      swap3\n      swap2\n      pop\n      pop\n      jump\t// out\n        /* \"#utility.yul\":5331:5511   */\n    tag_69:\n        /* \"#utility.yul\":5379:5456   */\n      0x4e487b7100000000000000000000000000000000000000000000000000000000\n        /* \"#utility.yul\":5376:5377   */\n      0x00\n        /* \"#utility.yul\":5369:5457   */\n      mstore\n        /* \"#utility.yul\":5476:5480   */\n      0x22\n        /* \"#utility.yul\":5473:5474   */\n      0x04\n        /* \"#utility.yul\":5466:5481   */\n      mstore\n        /* \"#utility.yul\":5500:5504   */\n      0x24\n        /* \"#utility.yul\":5497:5498   */\n      0x00\n        /* \"#utility.yul\":5490:5505   */\n      revert\n        /* \"#utility.yul\":5517:5837   */\n    tag_32:\n        /* \"#utility.yul\":5561:5567   */\n      0x00\n        /* \"#utility.yul\":5598:5599   */\n      0x02\n        /* \"#utility.yul\":5592:5596   */\n      dup3\n        /* \"#utility.yul\":5588:5600   */\n      div\n        /* \"#utility.yul\":5578:5600   */\n      swap1\n      pop\n        /* \"#utility.yul\":5645:5646   */\n      0x01\n        /* \"#utility.yul\":5639:5643   */\n      dup3\n        /* \"#utility.yul\":5635:5647   */\n      and\n        /* \"#utility.yul\":5666:5684   */\n      dup1\n        /* \"#utility.yul\":5656:5737   */\n      tag_151\n      jumpi\n        /* \"#utility.yul\":5722:5726   */\n      0x7f\n        /* \"#utility.yul\":5714:5720   */\n      dup3\n        /* \"#utility.yul\":5710:5727   */\n      and\n        /* \"#utility.yul\":5700:5727   */\n      swap2\n      pop\n        /* \"#utility.yul\":5656:5737   */\n    tag_151:\n        /* \"#utility.yul\":5784:5786   */\n      0x20\n        /* \"#utility.yul\":5776:5782   */\n      dup3\n        /* \"#utility.yul\":5773:5787   */\n      lt\n        /* \"#utility.yul\":5753:5771   */\n      dup2\n        /* \"#utility.yul\":5750:5788   */\n      sub\n        /* \"#utility.yul\":5747:5831   */\n      tag_152\n      jumpi\n        /* \"#utility.yul\":5803:5821   */\n      tag_153\n      tag_69\n      jump\t// in\n    tag_153:\n        /* \"#utility.yul\":5747:5831   */\n    tag_152:\n        /* \"#utility.yul\":5568:5837   */\n      pop\n        /* \"#utility.yul\":5517:5837   */\n      swap2\n      swap1\n      pop\n      jump\t// out\n        /* \"#utility.yul\":5843:5984   */\n    tag_70:\n        /* \"#utility.yul\":5892:5896   */\n      0x00\n        /* \"#utility.yul\":5915:5918   */\n      dup2\n        /* \"#utility.yul\":5907:5918   */\n      swap1\n      pop\n        /* \"#utility.yul\":5938:5941   */\n      dup2\n        /* \"#utility.yul\":5935:5936   */\n      0x00\n        /* \"#utility.yul\":5928:5942   */\n      mstore\n        /* \"#utility.yul\":5972:5976   */\n      0x20\n        /* \"#utility.yul\":5969:5970   */\n      0x00\n        /* \"#utility.yul\":5959:5977   */\n      keccak256\n        /* \"#utility.yul\":5951:5977   */\n      swap1\n      pop\n        /* \"#utility.yul\":5843:5984   */\n      swap2\n      swap1\n      pop\n      jump\t// out\n        /* \"#utility.yul\":5990:6083   */\n    tag_71:\n        /* \"#utility.yul\":6027:6033   */\n      0x00\n        /* \"#utility.yul\":6074:6076   */\n      0x20\n        /* \"#utility.yul\":6069:6071   */\n      0x1f\n        /* \"#utility.yul\":6062:6067   */\n      dup4\n        /* \"#utility.yul\":6058:6072   */\n      add\n        /* \"#utility.yul\":6054:6077   */\n      div\n        /* \"#utility.yul\":6044:6077   */\n      swap1\n      pop\n        /* \"#utility.yul\":5990:6083   */\n      swap2\n      swap1\n      pop\n      jump\t// out\n        /* \"#utility.yul\":6089:6196   */\n    tag_72:\n        /* \"#utility.yul\":6133:6141   */\n      0x00\n        /* \"#utility.yul\":6183:6188   */\n      dup3\n        /* \"#utility.yul\":6177:6181   */\n      dup3\n        /* \"#utility.yul\":6173:6189   */\n      shl\n        /* \"#utility.yul\":6152:6189   */\n      swap1\n      pop\n        /* \"#utility.yul\":6089:6196   */\n      swap3\n      swap2\n      pop\n      pop\n      jump\t// out\n        /* \"#utility.yul\":6202:6595   */\n    tag_73:\n        /* \"#utility.yul\":6271:6277   */\n      0x00\n        /* \"#utility.yul\":6321:6322   */\n      0x08\n        /* \"#utility.yul\":6309:6319   */\n      dup4\n        /* \"#utility.yul\":6305:6323   */\n      mul\n        /* \"#utility.yul\":6344:6441   */\n      tag_158\n        /* \"#utility.yul\":6374:6440   */\n      0xffffffffffffffffffffffffffffffffffffffffffffffffffffffffffffffff\n        /* \"#utility.yul\":6363:6372   */\n      dup3\n        /* \"#utility.yul\":6344:6441   */\n      tag_72\n      jump\t// in\n    tag_158:\n        /* \"#utility.yul\":6462:6501   */\n      tag_159\n        /* \"#utility.yul\":6492:6500   */\n      dup7\n        /* \"#utility.yul\":6481:6490   */\n      dup4\n        /* \"#utility.yul\":6462:6501   */\n      tag_72\n      jump\t// in\n    tag_159:\n        /* \"#utility.yul\":6450:6501   */\n      swap6\n      pop\n        /* \"#utility.yul\":6534:6538   */\n      dup1\n        /* \"#utility.yul\":6530:6539   */\n      not\n        /* \"#utility.yul\":6523:6528   */\n      dup5\n        /* \"#utility.yul\":6519:6540   */\n      and\n        /* \"#utility.yul\":6510:6540   */\n      swap4\n      pop\n        /* \"#utility.yul\":6583:6587   */\n      dup1\n        /* \"#utility.yul\":6573:6581   */\n      dup7\n        /* \"#utility.yul\":6569:6588   */\n      and\n        /* \"#utility.yul\":6562:6567   */\n      dup5\n        /* \"#utility.yul\":6559:6589   */\n      or\n        /* \"#utility.yul\":6549:6589   */\n      swap3\n      pop\n        /* \"#utility.yul\":6278:6595   */\n      pop\n      pop\n        /* \"#utility.yul\":6202:6595   */\n      swap4\n      swap3\n      pop\n      pop\n      pop\n      jump\t// out\n        /* \"#utility.yul\":6601:6678   */\n    tag_74:\n        /* \"#utility.yul\":6638:6645   */\n      0x00\n        /* \"#utility.yul\":6667:6672   */\n      dup2\n        /* \"#utility.yul\":6656:6672   */\n      swap1\n      pop\n        /* \"#utility.yul\":6601:6678   */\n      swap2\n      swap1\n      pop\n      jump\t// out\n        /* \"#utility.yul\":6684:6744   */\n    tag_75:\n        /* \"#utility.yul\":6712:6715   */\n      0x00\n        /* \"#utility.yul\":6733:6738   */\n      dup2\n        /* \"#utility.yul\":6726:6738   */\n      swap1\n      pop\n        /* \"#utility.yul\":6684:6744   */\n      swap2\n      swap1\n      pop\n      jump\t// out\n        /* \"#utility.yul\":6750:6892   */\n    tag_76:\n        /* \"#utility.yul\":6800:6809   */\n      0x00\n        /* \"#utility.yul\":6833:6886   */\n      tag_163\n        /* \"#utility.yul\":6851:6885   */\n      tag_164\n        /* \"#utility.yul\":6860:6884   */\n      tag_165\n        /* \"#utility.yul\":6878:6883   */\n      dup5\n        /* \"#utility.yul\":6860:6884   */\n      tag_74\n      jump\t// in\n    tag_165:\n        /* \"#utility.yul\":6851:6885   */\n      tag_75\n      jump\t// in\n    tag_164:\n        /* \"#utility.yul\":6833:6886   */\n      tag_74\n      jump\t// in\n    tag_163:\n        /* \"#utility.yul\":6820:6886   */\n      swap1\n      pop\n        /* \"#utility.yul\":6750:6892   */\n      swap2\n      swap1\n      pop\n      jump\t// out\n        /* \"#utility.yul\":6898:6973   */\n    tag_77:\n        /* \"#utility.yul\":6941:6944   */\n      0x00\n        /* \"#utility.yul\":6962:6967   */\n      dup2\n        /* \"#utility.yul\":6955:6967   */\n      swap1\n      pop\n        /* \"#utility.yul\":6898:6973   */\n      swap2\n      swap1\n      pop\n      jump\t// out\n        /* \"#utility.yul\":6979:7248   */\n    tag_78:\n        /* \"#utility.yul\":7089:7128   */\n      tag_168\n        /* \"#utility.yul\":7120:7127   */\n      dup4\n        /* \"#utility.yul\":7089:7128   */\n      tag_76\n      jump\t// in\n    tag_168:\n        /* \"#utility.yul\":7150:7241   */\n      tag_169\n        /* \"#utility.yul\":7199:7240   */\n      tag_170\n        /* \"#utility.yul\":7223:7239   */\n      dup3\n        /* \"#utility.yul\":7199:7240   */\n      tag_77\n      jump\t// in\n    tag_170:\n        /* \"#utility.yul\":7191:7197   */\n      dup5\n        /* \"#utility.yul\":7184:7188   */\n      dup5\n        /* \"#utility.yul\":7178:7189   */\n      sload\n        /* \"#utility.yul\":7150:7241   */\n      tag_73\n      jump\t// in\n    tag_169:\n        /* \"#utility.yul\":7144:7148   */\n      dup3\n        /* \"#utility.yul\":7137:7242   */\n      sstore\n        /* \"#utility.yul\":7055:7248   */\n      pop\n        /* \"#utility.yul\":6979:7248   */\n      pop\n      pop\n      pop\n      jump\t// out\n        /* \"#utility.yul\":7254:7327   */\n    tag_79:\n        /* \"#utility.yul\":7299:7302   */\n      0x00\n        /* \"#utility.yul\":7254:7327   */\n      swap1\n      jump\t// out\n        /* \"#utility.yul\":7333:7522   */\n    tag_80:\n        /* \"#utility.yul\":7410:7442   */\n      tag_173\n      tag_79\n      jump\t// in\n    tag_173:\n        /* \"#utility.yul\":7451:7516   */\n      tag_174\n        /* \"#utility.yul\":7509:7515   */\n      dup2\n        /* \"#utility.yul\":7501:7507   */\n      dup5\n        /* \"#utility.yul\":7495:7499   */\n      dup5\n        /* \"#utility.yul\":7451:7516   */\n      tag_78\n      jump\t// in\n    tag_174:\n        /* \"#utility.yul\":7386:7522   */\n      pop\n        /* \"#utility.yul\":7333:7522   */\n      pop\n      pop\n      jump\t// out\n        /* \"#utility.yul\":7528:7714   */\n    tag_81:\n        /* \"#utility.yul\":7588:7708   */\n    tag_176:\n        /* \"#utility.yul\":7605:7608   */\n      dup2\n        /* \"#utility.yul\":7598:7603   */\n      dup2\n        /* \"#utility.yul\":7595:7609   */\n      lt\n        /* \"#utility.yul\":7588:7708   */\n      iszero\n      tag_178\n      jumpi\n        /* \"#utility.yul\":7659:7698   */\n      tag_179\n        /* \"#utility.yul\":7696:7697   */\n      0x00\n        /* \"#utility.yul\":7689:7694   */\n      dup3\n        /* \"#utility.yul\":7659:7698   */\n      tag_80\n      jump\t// in\n    tag_179:\n        /* \"#utility.yul\":7632:7633   */\n      0x01\n        /* \"#utility.yul\":7625:7630   */\n      dup2\n        /* \"#utility.yul\":7621:7634   */\n      add\n        /* \"#utility.yul\":7612:7634   */\n      swap1\n      pop\n        /* \"#utility.yul\":7588:7708   */\n      jump(tag_176)\n    tag_178:\n        /* \"#utility.yul\":7528:7714   */\n      pop\n      pop\n      jump\t// out\n        /* \"#utility.yul\":7720:8263   */\n    tag_82:\n        /* \"#utility.yul\":7821:7823   */\n      0x1f\n        /* \"#utility.yul\":7816:7819   */\n      dup3\n        /* \"#utility.yul\":7813:7824   */\n      gt\n        /* \"#utility.yul\":7810:8256   */\n      iszero\n      tag_181\n      jumpi\n        /* \"#utility.yul\":7855:7893   */\n      tag_182\n        /* \"#utility.yul\":7887:7892   */\n      dup2\n        /* \"#utility.yul\":7855:7893   */\n      tag_70\n      jump\t// in\n    tag_182:\n        /* \"#utility.yul\":7939:7968   */\n      tag_183\n        /* \"#utility.yul\":7957:7967   */\n      dup5\n        /* \"#utility.yul\":7939:7968   */\n      tag_71\n      jump\t// in\n    tag_183:\n        /* \"#utility.yul\":7929:7937   */\n      dup2\n        /* \"#utility.yul\":7925:7969   */\n      add\n        /* \"#utility.yul\":8122:8124   */\n      0x20\n        /* \"#utility.yul\":8110:8120   */\n      dup6\n        /* \"#utility.yul\":8107:8125   */\n      lt\n        /* \"#utility.yul\":8104:8153   */\n      iszero\n      tag_184\n      jumpi\n        /* \"#utility.yul\":8143:8151   */\n      dup2\n        /* \"#utility.yul\":8128:8151   */\n      swap1\n      pop\n        /* \"#utility.yul\":8104:8153   */\n    tag_184:\n        /* \"#utility.yul\":8166:8246   */\n      tag_185\n        /* \"#utility.yul\":8222:8244   */\n      tag_186\n        /* \"#utility.yul\":8240:8243   */\n      dup6\n        /* \"#utility.yul\":8222:8244   */\n      tag_71\n      jump\t// in\n    tag_186:\n        /* \"#utility.yul\":8212:8220   */\n      dup4\n        /* \"#utility.yul\":8208:8245   */\n      add\n        /* \"#utility.yul\":8195:8206   */\n      dup3\n        /* \"#utility.yul\":8166:8246   */\n      tag_81\n      jump\t// in\n    tag_185:\n        /* \"#utility.yul\":7825:8256   */\n      pop\n      pop\n        /* \"#utility.yul\":7810:8256   */\n    tag_181:\n        /* \"#utility.yul\":7720:8263   */\n      pop\n      pop\n      pop\n      jump\t// out\n        /* \"#utility.yul\":8269:8386   */\n    tag_83:\n        /* \"#utility.yul\":8323:8331   */\n      0x00\n        /* \"#utility.yul\":8373:8378   */\n      dup3\n        /* \"#utility.yul\":8367:8371   */\n      dup3\n        /* \"#utility.yul\":8363:8379   */\n      shr\n        /* \"#utility.yul\":8342:8379   */\n      swap1\n      pop\n        /* \"#utility.yul\":8269:8386   */\n      swap3\n      swap2\n      pop\n      pop\n      jump\t// out\n        /* \"#utility.yul\":8392:8561   */\n    tag_84:\n        /* \"#utility.yul\":8436:8442   */\n      0x00\n        /* \"#utility.yul\":8469:8520   */\n      tag_189\n        /* \"#utility.yul\":8517:8518   */\n      0x00\n        /* \"#utility.yul\":8513:8519   */\n      not\n        /* \"#utility.yul\":8505:8510   */\n      dup5\n        /* \"#utility.yul\":8502:8503   */\n      0x08\n        /* \"#utility.yul\":8498:8511   */\n      mul\n        /* \"#utility.yul\":8469:8520   */\n      tag_83\n      jump\t// in\n    tag_189:\n        /* \"#utility.yul\":8465:8521   */\n      not\n        /* \"#utility.yul\":8550:8554   */\n      dup1\n        /* \"#utility.yul\":8544:8548   */\n      dup4\n        /* \"#utility.yul\":8540:8555   */\n      and\n        /* \"#utility.yul\":8530:8555   */\n      swap2\n      pop\n        /* \"#utility.yul\":8443:8561   */\n      pop\n        /* \"#utility.yul\":8392:8561   */\n      swap3\n      swap2\n      pop\n      pop\n      jump\t// out\n        /* \"#utility.yul\":8566:8861   */\n    tag_85:\n        /* \"#utility.yul\":8642:8646   */\n      0x00\n        /* \"#utility.yul\":8788:8817   */\n      tag_191\n        /* \"#utility.yul\":8813:8816   */\n      dup4\n        /* \"#utility.yul\":8807:8811   */\n      dup4\n        /* \"#utility.yul\":8788:8817   */\n      tag_84\n      jump\t// in\n    tag_191:\n        /* \"#utility.yul\":8780:8817   */\n      swap2\n      pop\n        /* \"#utility.yul\":8850:8853   */\n      dup3\n        /* \"#utility.yul\":8847:8848   */\n      0x02\n        /* \"#utility.yul\":8843:8854   */\n      mul\n        /* \"#utility.yul\":8837:8841   */\n      dup3\n        /* \"#utility.yul\":8834:8855   */\n      or\n        /* \"#utility.yul\":8826:8855   */\n      swap1\n      pop\n        /* \"#utility.yul\":8566:8861   */\n      swap3\n      swap2\n      pop\n      pop\n      jump\t// out\n        /* \"#utility.yul\":8866:10261   */\n    tag_39:\n        /* \"#utility.yul\":8983:9020   */\n      tag_193\n        /* \"#utility.yul\":9016:9019   */\n      dup3\n        /* \"#utility.yul\":8983:9020   */\n      tag_48\n      jump\t// in\n    tag_193:\n        /* \"#utility.yul\":9085:9103   */\n      0xffffffffffffffff\n        /* \"#utility.yul\":9077:9083   */\n      dup2\n        /* \"#utility.yul\":9074:9104   */\n      gt\n        /* \"#utility.yul\":9071:9127   */\n      iszero\n      tag_194\n      jumpi\n        /* \"#utility.yul\":9107:9125   */\n      tag_195\n      tag_58\n      jump\t// in\n    tag_195:\n        /* \"#utility.yul\":9071:9127   */\n    tag_194:\n        /* \"#utility.yul\":9151:9189   */\n      tag_196\n        /* \"#utility.yul\":9183:9187   */\n      dup3\n        /* \"#utility.yul\":9177:9188   */\n      sload\n        /* \"#utility.yul\":9151:9189   */\n      tag_32\n      jump\t// in\n    tag_196:\n        /* \"#utility.yul\":9236:9303   */\n      tag_197\n        /* \"#utility.yul\":9296:9302   */\n      dup3\n        /* \"#utility.yul\":9288:9294   */\n      dup3\n        /* \"#utility.yul\":9282:9286   */\n      dup6\n        /* \"#utility.yul\":9236:9303   */\n      tag_82\n      jump\t// in\n    tag_197:\n        /* \"#utility.yul\":9330:9331   */\n      0x00\n        /* \"#utility.yul\":9354:9358   */\n      0x20\n        /* \"#utility.yul\":9341:9358   */\n      swap1\n      pop\n        /* \"#utility.yul\":9386:9388   */\n      0x1f\n        /* \"#utility.yul\":9378:9384   */\n      dup4\n        /* \"#utility.yul\":9375:9389   */\n      gt\n        /* \"#utility.yul\":9403:9404   */\n      0x01\n        /* \"#utility.yul\":9398:10016   */\n      dup2\n      eq\n      tag_199\n      jumpi\n        /* \"#utility.yul\":10060:10061   */\n      0x00\n        /* \"#utility.yul\":10077:10083   */\n      dup5\n        /* \"#utility.yul\":10074:10151   */\n      iszero\n      tag_200\n      jumpi\n        /* \"#utility.yul\":10126:10135   */\n      dup3\n        /* \"#utility.yul\":10121:10124   */\n      dup8\n        /* \"#utility.yul\":10117:10136   */\n      add\n        /* \"#utility.yul\":10111:10137   */\n      mload\n        /* \"#utility.yul\":10102:10137   */\n      swap1\n      pop\n        /* \"#utility.yul\":10074:10151   */\n    tag_200:\n        /* \"#utility.yul\":10177:10244   */\n      tag_201\n        /* \"#utility.yul\":10237:10243   */\n      dup6\n        /* \"#utility.yul\":10230:10235   */\n      dup3\n        /* \"#utility.yul\":10177:10244   */\n      tag_85\n      jump\t// in\n    tag_201:\n        /* \"#utility.yul\":10171:10175   */\n      dup7\n        /* \"#utility.yul\":10164:10245   */\n      sstore\n        /* \"#utility.yul\":10033:10255   */\n      pop\n        /* \"#utility.yul\":9368:10255   */\n      jump(tag_198)\n        /* \"#utility.yul\":9398:10016   */\n    tag_199:\n        /* \"#utility.yul\":9450:9454   */\n      0x1f\n        /* \"#utility.yul\":9446:9455   */\n      not\n        /* \"#utility.yul\":9438:9444   */\n      dup5\n        /* \"#utility.yul\":9434:9456   */\n      and\n        /* \"#utility.yul\":9484:9521   */\n      tag_202\n        /* \"#utility.yul\":9516:9520   */\n      dup7\n        /* \"#utility.yul\":9484:9521   */\n      tag_70\n      jump\t// in\n    tag_202:\n        /* \"#utility.yul\":9543:9544   */\n      0x00\n        /* \"#utility.yul\":9557:9765   */\n    tag_203:\n        /* \"#utility.yul\":9571:9578   */\n      dup3\n        /* \"#utility.yul\":9568:9569   */\n      dup2\n        /* \"#utility.yul\":9565:9579   */\n      lt\n        /* \"#utility.yul\":9557:9765   */\n      iszero\n      tag_205\n      jumpi\n        /* \"#utility.yul\":9650:9659   */\n      dup5\n        /* \"#utility.yul\":9645:9648   */\n      dup10\n        /* \"#utility.yul\":9641:9660   */\n      add\n        /* \"#utility.yul\":9635:9661   */\n      mload\n        /* \"#utility.yul\":9627:9633   */\n      dup3\n        /* \"#utility.yul\":9620:9662   */\n      sstore\n        /* \"#utility.yul\":9701:9702   */\n      0x01\n        /* \"#utility.yul\":9693:9699   */\n      dup3\n        /* \"#utility.yul\":9689:9703   */\n      add\n        /* \"#utility.yul\":9679:9703   */\n      swap2\n      pop\n        /* \"#utility.yul\":9748:9750   */\n      0x20\n        /* \"#utility.yul\":9737:9746   */\n      dup6\n        /* \"#utility.yul\":9733:9751   */\n      add\n        /* \"#utility.yul\":9720:9751   */\n      swap5\n      pop\n        /* \"#utility.yul\":9594:9598   */\n      0x20\n        /* \"#utility.yul\":9591:9592   */\n      dup2\n        /* \"#utility.yul\":9587:9599   */\n      add\n        /* \"#utility.yul\":9582:9599   */\n      swap1\n      pop\n        /* \"#utility.yul\":9557:9765   */\n      jump(tag_203)\n    tag_205:\n        /* \"#utility.yul\":9793:9799   */\n      dup7\n        /* \"#utility.yul\":9784:9791   */\n      dup4\n        /* \"#utility.yul\":9781:9800   */\n      lt\n        /* \"#utility.yul\":9778:9957   */\n      iszero\n      tag_206\n      jumpi\n        /* \"#utility.yul\":9851:9860   */\n      dup5\n        /* \"#utility.yul\":9846:9849   */\n      dup10\n        /* \"#utility.yul\":9842:9861   */\n      add\n        /* \"#utility.yul\":9836:9862   */\n      mload\n        /* \"#utility.yul\":9894:9942   */\n      tag_207\n        /* \"#utility.yul\":9936:9940   */\n      0x1f\n        /* \"#utility.yul\":9928:9934   */\n      dup10\n        /* \"#utility.yul\":9924:9941   */\n      and\n        /* \"#utility.yul\":9913:9922   */\n      dup3\n        /* \"#utility.yul\":9894:9942   */\n      tag_84\n      jump\t// in\n    tag_207:\n        /* \"#utility.yul\":9886:9892   */\n      dup4\n        /* \"#utility.yul\":9879:9943   */\n      sstore\n        /* \"#utility.yul\":9801:9957   */\n      pop\n        /* \"#utility.yul\":9778:9957   */\n    tag_206:\n        /* \"#utility.yul\":10003:10004   */\n      0x01\n        /* \"#utility.yul\":9999:10000   */\n      0x02\n        /* \"#utility.yul\":9991:9997   */\n      dup9\n        /* \"#utility.yul\":9987:10001   */\n      mul\n        /* \"#utility.yul\":9983:10005   */\n      add\n        /* \"#utility.yul\":9977:9981   */\n      dup9\n        /* \"#utility.yul\":9970:10006   */\n      sstore\n        /* \"#utility.yul\":9405:10016   */\n      pop\n      pop\n      pop\n        /* \"#utility.yul\":9368:10255   */\n    tag_198:\n      pop\n        /* \"#utility.yul\":8958:10261   */\n      pop\n      pop\n      pop\n        /* \"#utility.yul\":8866:10261   */\n      pop\n      pop\n      jump\t// out\n\n    auxdata: 0xa2646970667358221220fe03954bef65c9266c3d8583839bcd439fbda0066e9df48d7df2f0ac58617e9964736f6c63430008120033\n}\n",
				"bytecode": {
					"linkReferences": {},
					"object": "60806040526040518060400160405280600981526020017f4e65772044656c68690000000000000000000000000000000000000000000000815250600190816200004a9190620002d9565b503480156200005857600080fd5b50620003c0565b600081519050919050565b7f4e487b7100000000000000000000000000000000000000000000000000000000600052604160045260246000fd5b7f4e487b7100000000000000000000000000000000000000000000000000000000600052602260045260246000fd5b60006002820490506001821680620000e157607f821691505b602082108103620000f757620000f662000099565b5b50919050565b60008190508160005260206000209050919050565b60006020601f8301049050919050565b600082821b905092915050565b600060088302620001617fffffffffffffffffffffffffffffffffffffffffffffffffffffffffffffffff8262000122565b6200016d868362000122565b95508019841693508086168417925050509392505050565b6000819050919050565b6000819050919050565b6000620001ba620001b4620001ae8462000185565b6200018f565b62000185565b9050919050565b6000819050919050565b620001d68362000199565b620001ee620001e582620001c1565b8484546200012f565b825550505050565b600090565b62000205620001f6565b62000212818484620001cb565b505050565b5b818110156200023a576200022e600082620001fb565b60018101905062000218565b5050565b601f82111562000289576200025381620000fd565b6200025e8462000112565b810160208510156200026e578190505b620002866200027d8562000112565b83018262000217565b50505b505050565b600082821c905092915050565b6000620002ae600019846008026200028e565b1980831691505092915050565b6000620002c983836200029b565b9150826002028217905092915050565b620002e4826200005f565b67ffffffffffffffff8111156200030057620002ff6200006a565b5b6200030c8254620000c8565b620003198282856200023e565b600060209050601f8311600181146200035157600084156200033c578287015190505b620003488582620002bb565b865550620003b8565b601f1984166200036186620000fd565b60005b828110156200038b5784890151825560018201915060208501945060208101905062000364565b86831015620003ab5784890151620003a7601f8916826200029b565b8355505b6001600288020188555050505b505050505050565b61085280620003d06000396000f3fe608060405234801561001057600080fd5b50600436106100625760003560e01c8063516f279e14610067578063827bfbdf1461008557806398d5fdca146100a1578063a035b1fe146100bf578063ce2ce3fc146100dd578063f7a30806146100fb575b600080fd5b61006f610117565b60405161007c91906102f3565b60405180910390f35b61009f600480360381019061009a919061045e565b6101a5565b005b6100a96101b8565b6040516100b691906104c0565b60405180910390f35b6100c76101c1565b6040516100d491906104c0565b60405180910390f35b6100e56101c7565b6040516100f291906102f3565b60405180910390f35b61011560048036038101906101109190610507565b610259565b005b6001805461012490610563565b80601f016020809104026020016040519081016040528092919081815260200182805461015090610563565b801561019d5780601f106101725761010080835404028352916020019161019d565b820191906000526020600020905b81548152906001019060200180831161018057829003601f168201915b505050505081565b80600190816101b4919061074a565b5050565b60008054905090565b60005481565b6060600180546101d690610563565b80601f016020809104026020016040519081016040528092919081815260200182805461020290610563565b801561024f5780601f106102245761010080835404028352916020019161024f565b820191906000526020600020905b81548152906001019060200180831161023257829003601f168201915b5050505050905090565b8060008190555050565b600081519050919050565b600082825260208201905092915050565b60005b8381101561029d578082015181840152602081019050610282565b60008484015250505050565b6000601f19601f8301169050919050565b60006102c582610263565b6102cf818561026e565b93506102df81856020860161027f565b6102e8816102a9565b840191505092915050565b6000602082019050818103600083015261030d81846102ba565b905092915050565b6000604051905090565b600080fd5b600080fd5b600080fd5b600080fd5b7f4e487b7100000000000000000000000000000000000000000000000000000000600052604160045260246000fd5b61036b826102a9565b810181811067ffffffffffffffff8211171561038a57610389610333565b5b80604052505050565b600061039d610315565b90506103a98282610362565b919050565b600067ffffffffffffffff8211156103c9576103c8610333565b5b6103d2826102a9565b9050602081019050919050565b82818337600083830152505050565b60006104016103fc846103ae565b610393565b90508281526020810184848401111561041d5761041c61032e565b5b6104288482856103df565b509392505050565b600082601f83011261044557610444610329565b5b81356104558482602086016103ee565b91505092915050565b6000602082840312156104745761047361031f565b5b600082013567ffffffffffffffff81111561049257610491610324565b5b61049e84828501610430565b91505092915050565b6000819050919050565b6104ba816104a7565b82525050565b60006020820190506104d560008301846104b1565b92915050565b6104e4816104a7565b81146104ef57600080fd5b50565b600081359050610501816104db565b92915050565b60006020828403121561051d5761051c61031f565b5b600061052b848285016104f2565b91505092915050565b7f4e487b7100000000000000000000000000000000000000000000000000000000600052602260045260246000fd5b6000600282049050600182168061057b57607f821691505b60208210810361058e5761058d610534565b5b50919050565b60008190508160005260206000209050919050565b60006020601f8301049050919050565b600082821b905092915050565b6000600883026105f67fffffffffffffffffffffffffffffffffffffffffffffffffffffffffffffffff826105b9565b61060086836105b9565b95508019841693508086168417925050509392505050565b6000819050919050565b6000819050919050565b600061064761064261063d84610618565b610622565b610618565b9050919050565b6000819050919050565b6106618361062c565b61067561066d8261064e565b8484546105c6565b825550505050565b600090565b61068a61067d565b610695818484610658565b505050565b5b818110156106b9576106ae600082610682565b60018101905061069b565b5050565b601f8211156106fe576106cf81610594565b6106d8846105a9565b810160208510156106e7578190505b6106fb6106f3856105a9565b83018261069a565b50505b505050565b600082821c905092915050565b600061072160001984600802610703565b1980831691505092915050565b600061073a8383610710565b9150826002028217905092915050565b61075382610263565b67ffffffffffffffff81111561076c5761076b610333565b5b6107768254610563565b6107818282856106bd565b600060209050601f8311600181146107b457600084156107a2578287015190505b6107ac858261072e565b865550610814565b601f1984166107c286610594565b60005b828110156107ea578489015182556001820191506020850194506020810190506107c5565b868310156108075784890151610803601f891682610710565b8355505b6001600288020188555050505b50505050505056fea2646970667358221220fe03954bef65c9266c3d8583839bcd439fbda0066e9df48d7df2f0ac58617e9964736f6c63430008120033",
					"opcodes": "PUSH1 0x80 PUSH1 0x40 MSTORE PUSH1 0x40 MLOAD DUP1 PUSH1 0x40 ADD PUSH1 0x40 MSTORE DUP1 PUSH1 0x9 DUP2 MSTORE PUSH1 0x20 ADD PUSH32 0x4E65772044656C68690000000000000000000000000000000000000000000000 DUP2 MSTORE POP PUSH1 0x1 SWAP1 DUP2 PUSH3 0x4A SWAP2 SWAP1 PUSH3 0x2D9 JUMP JUMPDEST POP CALLVALUE DUP1 ISZERO PUSH3 0x58 JUMPI PUSH1 0x0 DUP1 REVERT JUMPDEST POP PUSH3 0x3C0 JUMP JUMPDEST PUSH1 0x0 DUP2 MLOAD SWAP1 POP SWAP2 SWAP1 POP JUMP JUMPDEST PUSH32 0x4E487B7100000000000000000000000000000000000000000000000000000000 PUSH1 0x0 MSTORE PUSH1 0x41 PUSH1 0x4 MSTORE PUSH1 0x24 PUSH1 0x0 REVERT JUMPDEST PUSH32 0x4E487B7100000000000000000000000000000000000000000000000000000000 PUSH1 0x0 MSTORE PUSH1 0x22 PUSH1 0x4 MSTORE PUSH1 0x24 PUSH1 0x0 REVERT JUMPDEST PUSH1 0x0 PUSH1 0x2 DUP3 DIV SWAP1 POP PUSH1 0x1 DUP3 AND DUP1 PUSH3 0xE1 JUMPI PUSH1 0x7F DUP3 AND SWAP2 POP JUMPDEST PUSH1 0x20 DUP3 LT DUP2 SUB PUSH3 0xF7 JUMPI PUSH3 0xF6 PUSH3 0x99 JUMP JUMPDEST JUMPDEST POP SWAP2 SWAP1 POP JUMP JUMPDEST PUSH1 0x0 DUP2 SWAP1 POP DUP2 PUSH1 0x0 MSTORE PUSH1 0x20 PUSH1 0x0 KECCAK256 SWAP1 POP SWAP2 SWAP1 POP JUMP JUMPDEST PUSH1 0x0 PUSH1 0x20 PUSH1 0x1F DUP4 ADD DIV SWAP1 POP SWAP2 SWAP1 POP JUMP JUMPDEST PUSH1 0x0 DUP3 DUP3 SHL SWAP1 POP SWAP3 SWAP2 POP POP JUMP JUMPDEST PUSH1 0x0 PUSH1 0x8 DUP4 MUL PUSH3 0x161 PUSH32 0xFFFFFFFFFFFFFFFFFFFFFFFFFFFFFFFFFFFFFFFFFFFFFFFFFFFFFFFFFFFFFFFF DUP3 PUSH3 0x122 JUMP JUMPDEST PUSH3 0x16D DUP7 DUP4 PUSH3 0x122 JUMP JUMPDEST SWAP6 POP DUP1 NOT DUP5 AND SWAP4 POP DUP1 DUP7 AND DUP5 OR SWAP3 POP POP POP SWAP4 SWAP3 POP POP POP JUMP JUMPDEST PUSH1 0x0 DUP2 SWAP1 POP SWAP2 SWAP1 POP JUMP JUMPDEST PUSH1 0x0 DUP2 SWAP1 POP SWAP2 SWAP1 POP JUMP JUMPDEST PUSH1 0x0 PUSH3 0x1BA PUSH3 0x1B4 PUSH3 0x1AE DUP5 PUSH3 0x185 JUMP JUMPDEST PUSH3 0x18F JUMP JUMPDEST PUSH3 0x185 JUMP JUMPDEST SWAP1 POP SWAP2 SWAP1 POP JUMP JUMPDEST PUSH1 0x0 DUP2 SWAP1 POP SWAP2 SWAP1 POP JUMP JUMPDEST PUSH3 0x1D6 DUP4 PUSH3 0x199 JUMP JUMPDEST PUSH3 0x1EE PUSH3 0x1E5 DUP3 PUSH3 0x1C1 JUMP JUMPDEST DUP5 DUP5 SLOAD PUSH3 0x12F JUMP JUMPDEST DUP3 SSTORE POP POP POP POP JUMP JUMPDEST PUSH1 0x0 SWAP1 JUMP JUMPDEST PUSH3 0x205 PUSH3 0x1F6 JUMP JUMPDEST PUSH3 0x212 DUP2 DUP5 DUP5 PUSH3 0x1CB JUMP JUMPDEST POP POP POP JUMP JUMPDEST JUMPDEST DUP2 DUP2 LT ISZERO PUSH3 0x23A JUMPI PUSH3 0x22E PUSH1 0x0 DUP3 PUSH3 0x1FB JUMP JUMPDEST PUSH1 0x1 DUP2 ADD SWAP1 POP PUSH3 0x218 JUMP JUMPDEST POP POP JUMP JUMPDEST PUSH1 0x1F DUP3 GT ISZERO PUSH3 0x289 JUMPI PUSH3 0x253 DUP2 PUSH3 0xFD JUMP JUMPDEST PUSH3 0x25E DUP5 PUSH3 0x112 JUMP JUMPDEST DUP2 ADD PUSH1 0x20 DUP6 LT ISZERO PUSH3 0x26E JUMPI DUP2 SWAP1 POP JUMPDEST PUSH3 0x286 PUSH3 0x27D DUP6 PUSH3 0x112 JUMP JUMPDEST DUP4 ADD DUP3 PUSH3 0x217 JUMP JUMPDEST POP POP JUMPDEST POP POP POP JUMP JUMPDEST PUSH1 0x0 DUP3 DUP3 SHR SWAP1 POP SWAP3 SWAP2 POP POP JUMP JUMPDEST PUSH1 0x0 PUSH3 0x2AE PUSH1 0x0 NOT DUP5 PUSH1 0x8 MUL PUSH3 0x28E JUMP JUMPDEST NOT DUP1 DUP4 AND SWAP2 POP POP SWAP3 SWAP2 POP POP JUMP JUMPDEST PUSH1 0x0 PUSH3 0x2C9 DUP4 DUP4 PUSH3 0x29B JUMP JUMPDEST SWAP2 POP DUP3 PUSH1 0x2 MUL DUP3 OR SWAP1 POP SWAP3 SWAP2 POP POP JUMP JUMPDEST PUSH3 0x2E4 DUP3 PUSH3 0x5F JUMP JUMPDEST PUSH8 0xFFFFFFFFFFFFFFFF DUP2 GT ISZERO PUSH3 0x300 JUMPI PUSH3 0x2FF PUSH3 0x6A JUMP JUMPDEST JUMPDEST PUSH3 0x30C DUP3 SLOAD PUSH3 0xC8 JUMP JUMPDEST PUSH3 0x319 DUP3 DUP3 DUP6 PUSH3 0x23E JUMP JUMPDEST PUSH1 0x0 PUSH1 0x20 SWAP1 POP PUSH1 0x1F DUP4 GT PUSH1 0x1 DUP2 EQ PUSH3 0x351 JUMPI PUSH1 0x0 DUP5 ISZERO PUSH3 0x33C JUMPI DUP3 DUP8 ADD MLOAD SWAP1 POP JUMPDEST PUSH3 0x348 DUP6 DUP3 PUSH3 0x2BB JUMP JUMPDEST DUP7 SSTORE POP PUSH3 0x3B8 JUMP JUMPDEST PUSH1 0x1F NOT DUP5 AND PUSH3 0x361 DUP7 PUSH3 0xFD JUMP JUMPDEST PUSH1 0x0 JUMPDEST DUP3 DUP2 LT ISZERO PUSH3 0x38B JUMPI DUP5 DUP10 ADD MLOAD DUP3 SSTORE PUSH1 0x1 DUP3 ADD SWAP2 POP PUSH1 0x20 DUP6 ADD SWAP5 POP PUSH1 0x20 DUP2 ADD SWAP1 POP PUSH3 0x364 JUMP JUMPDEST DUP7 DUP4 LT ISZERO PUSH3 0x3AB JUMPI DUP5 DUP10 ADD MLOAD PUSH3 0x3A7 PUSH1 0x1F DUP10 AND DUP3 PUSH3 0x29B JUMP JUMPDEST DUP4 SSTORE POP JUMPDEST PUSH1 0x1 PUSH1 0x2 DUP9 MUL ADD DUP9 SSTORE POP POP POP JUMPDEST POP POP POP POP POP POP JUMP JUMPDEST PUSH2 0x852 DUP1 PUSH3 0x3D0 PUSH1 0x0 CODECOPY PUSH1 0x0 RETURN INVALID PUSH1 0x80 PUSH1 0x40 MSTORE CALLVALUE DUP1 ISZERO PUSH2 0x10 JUMPI PUSH1 0x0 DUP1 REVERT JUMPDEST POP PUSH1 0x4 CALLDATASIZE LT PUSH2 0x62 JUMPI PUSH1 0x0 CALLDATALOAD PUSH1 0xE0 SHR DUP1 PUSH4 0x516F279E EQ PUSH2 0x67 JUMPI DUP1 PUSH4 0x827BFBDF EQ PUSH2 0x85 JUMPI DUP1 PUSH4 0x98D5FDCA EQ PUSH2 0xA1 JUMPI DUP1 PUSH4 0xA035B1FE EQ PUSH2 0xBF JUMPI DUP1 PUSH4 0xCE2CE3FC EQ PUSH2 0xDD JUMPI DUP1 PUSH4 0xF7A30806 EQ PUSH2 0xFB JUMPI JUMPDEST PUSH1 0x0 DUP1 REVERT JUMPDEST PUSH2 0x6F PUSH2 0x117 JUMP JUMPDEST PUSH1 0x40 MLOAD PUSH2 0x7C SWAP2 SWAP1 PUSH2 0x2F3 JUMP JUMPDEST PUSH1 0x40 MLOAD DUP1 SWAP2 SUB SWAP1 RETURN JUMPDEST PUSH2 0x9F PUSH1 0x4 DUP1 CALLDATASIZE SUB DUP2 ADD SWAP1 PUSH2 0x9A SWAP2 SWAP1 PUSH2 0x45E JUMP JUMPDEST PUSH2 0x1A5 JUMP JUMPDEST STOP JUMPDEST PUSH2 0xA9 PUSH2 0x1B8 JUMP JUMPDEST PUSH1 0x40 MLOAD PUSH2 0xB6 SWAP2 SWAP1 PUSH2 0x4C0 JUMP JUMPDEST PUSH1 0x40 MLOAD DUP1 SWAP2 SUB SWAP1 RETURN JUMPDEST PUSH2 0xC7 PUSH2 0x1C1 JUMP JUMPDEST PUSH1 0x40 MLOAD PUSH2 0xD4 SWAP2 SWAP1 PUSH2 0x4C0 JUMP JUMPDEST PUSH1 0x40 MLOAD DUP1 SWAP2 SUB SWAP1 RETURN JUMPDEST PUSH2 0xE5 PUSH2 0x1C7 JUMP JUMPDEST PUSH1 0x40 MLOAD PUSH2 0xF2 SWAP2 SWAP1 PUSH2 0x2F3 JUMP JUMPDEST PUSH1 0x40 MLOAD DUP1 SWAP2 SUB SWAP1 RETURN JUMPDEST PUSH2 0x115 PUSH1 0x4 DUP1 CALLDATASIZE SUB DUP2 ADD SWAP1 PUSH2 0x110 SWAP2 SWAP1 PUSH2 0x507 JUMP JUMPDEST PUSH2 0x259 JUMP JUMPDEST STOP JUMPDEST PUSH1 0x1 DUP1 SLOAD PUSH2 0x124 SWAP1 PUSH2 0x563 JUMP JUMPDEST DUP1 PUSH1 0x1F ADD PUSH1 0x20 DUP1 SWAP2 DIV MUL PUSH1 0x20 ADD PUSH1 0x40 MLOAD SWAP1 DUP2 ADD PUSH1 0x40 MSTORE DUP1 SWAP3 SWAP2 SWAP1 DUP2 DUP2 MSTORE PUSH1 0x20 ADD DUP3 DUP1 SLOAD PUSH2 0x150 SWAP1 PUSH2 0x563 JUMP JUMPDEST DUP1 ISZERO PUSH2 0x19D JUMPI DUP1 PUSH1 0x1F LT PUSH2 0x172 JUMPI PUSH2 0x100 DUP1 DUP4 SLOAD DIV MUL DUP4 MSTORE SWAP2 PUSH1 0x20 ADD SWAP2 PUSH2 0x19D JUMP JUMPDEST DUP3 ADD SWAP2 SWAP1 PUSH1 0x0 MSTORE PUSH1 0x20 PUSH1 0x0 KECCAK256 SWAP1 JUMPDEST DUP2 SLOAD DUP2 MSTORE SWAP1 PUSH1 0x1 ADD SWAP1 PUSH1 0x20 ADD DUP1 DUP4 GT PUSH2 0x180 JUMPI DUP3 SWAP1 SUB PUSH1 0x1F AND DUP3 ADD SWAP2 JUMPDEST POP POP POP POP POP DUP2 JUMP JUMPDEST DUP1 PUSH1 0x1 SWAP1 DUP2 PUSH2 0x1B4 SWAP2 SWAP1 PUSH2 0x74A JUMP JUMPDEST POP POP JUMP JUMPDEST PUSH1 0x0 DUP1 SLOAD SWAP1 POP SWAP1 JUMP JUMPDEST PUSH1 0x0 SLOAD DUP2 JUMP JUMPDEST PUSH1 0x60 PUSH1 0x1 DUP1 SLOAD PUSH2 0x1D6 SWAP1 PUSH2 0x563 JUMP JUMPDEST DUP1 PUSH1 0x1F ADD PUSH1 0x20 DUP1 SWAP2 DIV MUL PUSH1 0x20 ADD PUSH1 0x40 MLOAD SWAP1 DUP2 ADD PUSH1 0x40 MSTORE DUP1 SWAP3 SWAP2 SWAP1 DUP2 DUP2 MSTORE PUSH1 0x20 ADD DUP3 DUP1 SLOAD PUSH2 0x202 SWAP1 PUSH2 0x563 JUMP JUMPDEST DUP1 ISZERO PUSH2 0x24F JUMPI DUP1 PUSH1 0x1F LT PUSH2 0x224 JUMPI PUSH2 0x100 DUP1 DUP4 SLOAD DIV MUL DUP4 MSTORE SWAP2 PUSH1 0x20 ADD SWAP2 PUSH2 0x24F JUMP JUMPDEST DUP3 ADD SWAP2 SWAP1 PUSH1 0x0 MSTORE PUSH1 0x20 PUSH1 0x0 KECCAK256 SWAP1 JUMPDEST DUP2 SLOAD DUP2 MSTORE SWAP1 PUSH1 0x1 ADD SWAP1 PUSH1 0x20 ADD DUP1 DUP4 GT PUSH2 0x232 JUMPI DUP3 SWAP1 SUB PUSH1 0x1F AND DUP3 ADD SWAP2 JUMPDEST POP POP POP POP POP SWAP1 POP SWAP1 JUMP JUMPDEST DUP1 PUSH1 0x0 DUP2 SWAP1 SSTORE POP POP JUMP JUMPDEST PUSH1 0x0 DUP2 MLOAD SWAP1 POP SWAP2 SWAP1 POP JUMP JUMPDEST PUSH1 0x0 DUP3 DUP3 MSTORE PUSH1 0x20 DUP3 ADD SWAP1 POP SWAP3 SWAP2 POP POP JUMP JUMPDEST PUSH1 0x0 JUMPDEST DUP4 DUP2 LT ISZERO PUSH2 0x29D JUMPI DUP1 DUP3 ADD MLOAD DUP2 DUP5 ADD MSTORE PUSH1 0x20 DUP2 ADD SWAP1 POP PUSH2 0x282 JUMP JUMPDEST PUSH1 0x0 DUP5 DUP5 ADD MSTORE POP POP POP POP JUMP JUMPDEST PUSH1 0x0 PUSH1 0x1F NOT PUSH1 0x1F DUP4 ADD AND SWAP1 POP SWAP2 SWAP1 POP JUMP JUMPDEST PUSH1 0x0 PUSH2 0x2C5 DUP3 PUSH2 0x263 JUMP JUMPDEST PUSH2 0x2CF DUP2 DUP6 PUSH2 0x26E JUMP JUMPDEST SWAP4 POP PUSH2 0x2DF DUP2 DUP6 PUSH1 0x20 DUP7 ADD PUSH2 0x27F JUMP JUMPDEST PUSH2 0x2E8 DUP2 PUSH2 0x2A9 JUMP JUMPDEST DUP5 ADD SWAP2 POP POP SWAP3 SWAP2 POP POP JUMP JUMPDEST PUSH1 0x0 PUSH1 0x20 DUP3 ADD SWAP1 POP DUP2 DUP2 SUB PUSH1 0x0 DUP4 ADD MSTORE PUSH2 0x30D DUP2 DUP5 PUSH2 0x2BA JUMP JUMPDEST SWAP1 POP SWAP3 SWAP2 POP POP JUMP JUMPDEST PUSH1 0x0 PUSH1 0x40 MLOAD SWAP1 POP SWAP1 JUMP JUMPDEST PUSH1 0x0 DUP1 REVERT JUMPDEST PUSH1 0x0 DUP1 REVERT JUMPDEST PUSH1 0x0 DUP1 REVERT JUMPDEST PUSH1 0x0 DUP1 REVERT JUMPDEST PUSH32 0x4E487B7100000000000000000000000000000000000000000000000000000000 PUSH1 0x0 MSTORE PUSH1 0x41 PUSH1 0x4 MSTORE PUSH1 0x24 PUSH1 0x0 REVERT JUMPDEST PUSH2 0x36B DUP3 PUSH2 0x2A9 JUMP JUMPDEST DUP2 ADD DUP2 DUP2 LT PUSH8 0xFFFFFFFFFFFFFFFF DUP3 GT OR ISZERO PUSH2 0x38A JUMPI PUSH2 0x389 PUSH2 0x333 JUMP JUMPDEST JUMPDEST DUP1 PUSH1 0x40 MSTORE POP POP POP JUMP JUMPDEST PUSH1 0x0 PUSH2 0x39D PUSH2 0x315 JUMP JUMPDEST SWAP1 POP PUSH2 0x3A9 DUP3 DUP3 PUSH2 0x362 JUMP JUMPDEST SWAP2 SWAP1 POP JUMP JUMPDEST PUSH1 0x0 PUSH8 0xFFFFFFFFFFFFFFFF DUP3 GT ISZERO PUSH2 0x3C9 JUMPI PUSH2 0x3C8 PUSH2 0x333 JUMP JUMPDEST JUMPDEST PUSH2 0x3D2 DUP3 PUSH2 0x2A9 JUMP JUMPDEST SWAP1 POP PUSH1 0x20 DUP2 ADD SWAP1 POP SWAP2 SWAP1 POP JUMP JUMPDEST DUP3 DUP2 DUP4 CALLDATACOPY PUSH1 0x0 DUP4 DUP4 ADD MSTORE POP POP POP JUMP JUMPDEST PUSH1 0x0 PUSH2 0x401 PUSH2 0x3FC DUP5 PUSH2 0x3AE JUMP JUMPDEST PUSH2 0x393 JUMP JUMPDEST SWAP1 POP DUP3 DUP2 MSTORE PUSH1 0x20 DUP2 ADD DUP5 DUP5 DUP5 ADD GT ISZERO PUSH2 0x41D JUMPI PUSH2 0x41C PUSH2 0x32E JUMP JUMPDEST JUMPDEST PUSH2 0x428 DUP5 DUP3 DUP6 PUSH2 0x3DF JUMP JUMPDEST POP SWAP4 SWAP3 POP POP POP JUMP JUMPDEST PUSH1 0x0 DUP3 PUSH1 0x1F DUP4 ADD SLT PUSH2 0x445 JUMPI PUSH2 0x444 PUSH2 0x329 JUMP JUMPDEST JUMPDEST DUP2 CALLDATALOAD PUSH2 0x455 DUP5 DUP3 PUSH1 0x20 DUP7 ADD PUSH2 0x3EE JUMP JUMPDEST SWAP2 POP POP SWAP3 SWAP2 POP POP JUMP JUMPDEST PUSH1 0x0 PUSH1 0x20 DUP3 DUP5 SUB SLT ISZERO PUSH2 0x474 JUMPI PUSH2 0x473 PUSH2 0x31F JUMP JUMPDEST JUMPDEST PUSH1 0x0 DUP3 ADD CALLDATALOAD PUSH8 0xFFFFFFFFFFFFFFFF DUP2 GT ISZERO PUSH2 0x492 JUMPI PUSH2 0x491 PUSH2 0x324 JUMP JUMPDEST JUMPDEST PUSH2 0x49E DUP5 DUP3 DUP6 ADD PUSH2 0x430 JUMP JUMPDEST SWAP2 POP POP SWAP3 SWAP2 POP POP JUMP JUMPDEST PUSH1 0x0 DUP2 SWAP1 POP SWAP2 SWAP1 POP JUMP JUMPDEST PUSH2 0x4BA DUP2 PUSH2 0x4A7 JUMP JUMPDEST DUP3 MSTORE POP POP JUMP JUMPDEST PUSH1 0x0 PUSH1 0x20 DUP3 ADD SWAP1 POP PUSH2 0x4D5 PUSH1 0x0 DUP4 ADD DUP5 PUSH2 0x4B1 JUMP JUMPDEST SWAP3 SWAP2 POP POP JUMP JUMPDEST PUSH2 0x4E4 DUP2 PUSH2 0x4A7 JUMP JUMPDEST DUP2 EQ PUSH2 0x4EF JUMPI PUSH1 0x0 DUP1 REVERT JUMPDEST POP JUMP JUMPDEST PUSH1 0x0 DUP2 CALLDATALOAD SWAP1 POP PUSH2 0x501 DUP2 PUSH2 0x4DB JUMP JUMPDEST SWAP3 SWAP2 POP POP JUMP JUMPDEST PUSH1 0x0 PUSH1 0x20 DUP3 DUP5 SUB SLT ISZERO PUSH2 0x51D JUMPI PUSH2 0x51C PUSH2 0x31F JUMP JUMPDEST JUMPDEST PUSH1 0x0 PUSH2 0x52B DUP5 DUP3 DUP6 ADD PUSH2 0x4F2 JUMP JUMPDEST SWAP2 POP POP SWAP3 SWAP2 POP POP JUMP JUMPDEST PUSH32 0x4E487B7100000000000000000000000000000000000000000000000000000000 PUSH1 0x0 MSTORE PUSH1 0x22 PUSH1 0x4 MSTORE PUSH1 0x24 PUSH1 0x0 REVERT JUMPDEST PUSH1 0x0 PUSH1 0x2 DUP3 DIV SWAP1 POP PUSH1 0x1 DUP3 AND DUP1 PUSH2 0x57B JUMPI PUSH1 0x7F DUP3 AND SWAP2 POP JUMPDEST PUSH1 0x20 DUP3 LT DUP2 SUB PUSH2 0x58E JUMPI PUSH2 0x58D PUSH2 0x534 JUMP JUMPDEST JUMPDEST POP SWAP2 SWAP1 POP JUMP JUMPDEST PUSH1 0x0 DUP2 SWAP1 POP DUP2 PUSH1 0x0 MSTORE PUSH1 0x20 PUSH1 0x0 KECCAK256 SWAP1 POP SWAP2 SWAP1 POP JUMP JUMPDEST PUSH1 0x0 PUSH1 0x20 PUSH1 0x1F DUP4 ADD DIV SWAP1 POP SWAP2 SWAP1 POP JUMP JUMPDEST PUSH1 0x0 DUP3 DUP3 SHL SWAP1 POP SWAP3 SWAP2 POP POP JUMP JUMPDEST PUSH1 0x0 PUSH1 0x8 DUP4 MUL PUSH2 0x5F6 PUSH32 0xFFFFFFFFFFFFFFFFFFFFFFFFFFFFFFFFFFFFFFFFFFFFFFFFFFFFFFFFFFFFFFFF DUP3 PUSH2 0x5B9 JUMP JUMPDEST PUSH2 0x600 DUP7 DUP4 PUSH2 0x5B9 JUMP JUMPDEST SWAP6 POP DUP1 NOT DUP5 AND SWAP4 POP DUP1 DUP7 AND DUP5 OR SWAP3 POP POP POP SWAP4 SWAP3 POP POP POP JUMP JUMPDEST PUSH1 0x0 DUP2 SWAP1 POP SWAP2 SWAP1 POP JUMP JUMPDEST PUSH1 0x0 DUP2 SWAP1 POP SWAP2 SWAP1 POP JUMP JUMPDEST PUSH1 0x0 PUSH2 0x647 PUSH2 0x642 PUSH2 0x63D DUP5 PUSH2 0x618 JUMP JUMPDEST PUSH2 0x622 JUMP JUMPDEST PUSH2 0x618 JUMP JUMPDEST SWAP1 POP SWAP2 SWAP1 POP JUMP JUMPDEST PUSH1 0x0 DUP2 SWAP1 POP SWAP2 SWAP1 POP JUMP JUMPDEST PUSH2 0x661 DUP4 PUSH2 0x62C JUMP JUMPDEST PUSH2 0x675 PUSH2 0x66D DUP3 PUSH2 0x64E JUMP JUMPDEST DUP5 DUP5 SLOAD PUSH2 0x5C6 JUMP JUMPDEST DUP3 SSTORE POP POP POP POP JUMP JUMPDEST PUSH1 0x0 SWAP1 JUMP JUMPDEST PUSH2 0x68A PUSH2 0x67D JUMP JUMPDEST PUSH2 0x695 DUP2 DUP5 DUP5 PUSH2 0x658 JUMP JUMPDEST POP POP POP JUMP JUMPDEST JUMPDEST DUP2 DUP2 LT ISZERO PUSH2 0x6B9 JUMPI PUSH2 0x6AE PUSH1 0x0 DUP3 PUSH2 0x682 JUMP JUMPDEST PUSH1 0x1 DUP2 ADD SWAP1 POP PUSH2 0x69B JUMP JUMPDEST POP POP JUMP JUMPDEST PUSH1 0x1F DUP3 GT ISZERO PUSH2 0x6FE JUMPI PUSH2 0x6CF DUP2 PUSH2 0x594 JUMP JUMPDEST PUSH2 0x6D8 DUP5 PUSH2 0x5A9 JUMP JUMPDEST DUP2 ADD PUSH1 0x20 DUP6 LT ISZERO PUSH2 0x6E7 JUMPI DUP2 SWAP1 POP JUMPDEST PUSH2 0x6FB PUSH2 0x6F3 DUP6 PUSH2 0x5A9 JUMP JUMPDEST DUP4 ADD DUP3 PUSH2 0x69A JUMP JUMPDEST POP POP JUMPDEST POP POP POP JUMP JUMPDEST PUSH1 0x0 DUP3 DUP3 SHR SWAP1 POP SWAP3 SWAP2 POP POP JUMP JUMPDEST PUSH1 0x0 PUSH2 0x721 PUSH1 0x0 NOT DUP5 PUSH1 0x8 MUL PUSH2 0x703 JUMP JUMPDEST NOT DUP1 DUP4 AND SWAP2 POP POP SWAP3 SWAP2 POP POP JUMP JUMPDEST PUSH1 0x0 PUSH2 0x73A DUP4 DUP4 PUSH2 0x710 JUMP JUMPDEST SWAP2 POP DUP3 PUSH1 0x2 MUL DUP3 OR SWAP1 POP SWAP3 SWAP2 POP POP JUMP JUMPDEST PUSH2 0x753 DUP3 PUSH2 0x263 JUMP JUMPDEST PUSH8 0xFFFFFFFFFFFFFFFF DUP2 GT ISZERO PUSH2 0x76C JUMPI PUSH2 0x76B PUSH2 0x333 JUMP JUMPDEST JUMPDEST PUSH2 0x776 DUP3 SLOAD PUSH2 0x563 JUMP JUMPDEST PUSH2 0x781 DUP3 DUP3 DUP6 PUSH2 0x6BD JUMP JUMPDEST PUSH1 0x0 PUSH1 0x20 SWAP1 POP PUSH1 0x1F DUP4 GT PUSH1 0x1 DUP2 EQ PUSH2 0x7B4 JUMPI PUSH1 0x0 DUP5 ISZERO PUSH2 0x7A2 JUMPI DUP3 DUP8 ADD MLOAD SWAP1 POP JUMPDEST PUSH2 0x7AC DUP6 DUP3 PUSH2 0x72E JUMP JUMPDEST DUP7 SSTORE POP PUSH2 0x814 JUMP JUMPDEST PUSH1 0x1F NOT DUP5 AND PUSH2 0x7C2 DUP7 PUSH2 0x594 JUMP JUMPDEST PUSH1 0x0 JUMPDEST DUP3 DUP2 LT ISZERO PUSH2 0x7EA JUMPI DUP5 DUP10 ADD MLOAD DUP3 SSTORE PUSH1 0x1 DUP3 ADD SWAP2 POP PUSH1 0x20 DUP6 ADD SWAP5 POP PUSH1 0x20 DUP2 ADD SWAP1 POP PUSH2 0x7C5 JUMP JUMPDEST DUP7 DUP4 LT ISZERO PUSH2 0x807 JUMPI DUP5 DUP10 ADD MLOAD PUSH2 0x803 PUSH1 0x1F DUP10 AND DUP3 PUSH2 0x710 JUMP JUMPDEST DUP4 SSTORE POP JUMPDEST PUSH1 0x1 PUSH1 0x2 DUP9 MUL ADD DUP9 SSTORE POP POP POP JUMPDEST POP POP POP POP POP POP JUMP INVALID LOG2 PUSH5 0x6970667358 0x22 SLT KECCAK256 INVALID SUB SWAP6 0x4B 0xEF PUSH6 0xC9266C3D8583 DUP4 SWAP12 0xCD NUMBER SWAP16 0xBD LOG0 MOD PUSH15 0x9DF48D7DF2F0AC58617E9964736F6C PUSH4 0x43000812 STOP CALLER "
				},
				"gasEstimates": {
					"creation": {
						"codeDepositCost": "426000",
						"executionCost": "infinite",
						"totalCost": "infinite"
					},
					"external": {
						"getLocation()": "infinite",
						"getPrice()": "2459",
						"location()": "infinite",
						"price()": "2473",
						"setLocation(string)": "infinite",
						"setPrice(int256)": "22608"
					}
				},
				"methodIdentifiers": {
					"getLocation()": "ce2ce3fc",
					"getPrice()": "98d5fdca",
					"location()": "516f279e",
					"price()": "a035b1fe",
					"setLocation(string)": "827bfbdf",
					"setPrice(int256)": "f7a30806"
				}
			},
			"storageLayout": {
				"storage": [
					{
						"astId": 3,
						"contract": "Solidity 2023 Udemy Course/getterAndsetter.sol:Property",
						"label": "price",
						"offset": 0,
						"slot": "0",
						"type": "t_int256"
					},
					{
						"astId": 6,
						"contract": "Solidity 2023 Udemy Course/getterAndsetter.sol:Property",
						"label": "location",
						"offset": 0,
						"slot": "1",
						"type": "t_string_storage"
					}
				],
				"types": {
					"t_int256": {
						"encoding": "inplace",
						"label": "int256",
						"numberOfBytes": "32"
					},
					"t_string_storage": {
						"encoding": "bytes",
						"label": "string",
						"numberOfBytes": "32"
					}
				}
			},
			"userdoc": {
				"kind": "user",
				"methods": {},
				"version": 1
			}
		}
	}
}